{
  "_format": "hh-sol-artifact-1",
  "contractName": "CertificateRegistry",
  "sourceName": "contracts/CertificateRegistry.sol",
  "abi": [
    {
      "inputs": [],
      "stateMutability": "nonpayable",
      "type": "constructor"
    },
    {
      "inputs": [],
      "name": "AccessControlBadConfirmation",
      "type": "error"
    },
    {
      "inputs": [
        {
          "internalType": "address",
          "name": "account",
          "type": "address"
        },
        {
          "internalType": "bytes32",
          "name": "neededRole",
          "type": "bytes32"
        }
      ],
      "name": "AccessControlUnauthorizedAccount",
      "type": "error"
    },
    {
      "inputs": [
        {
          "internalType": "address",
          "name": "target",
          "type": "address"
        }
      ],
      "name": "AddressEmptyCode",
      "type": "error"
    },
    {
      "inputs": [],
      "name": "CertificateAlreadyExists",
      "type": "error"
    },
    {
      "inputs": [],
      "name": "CertificateAlreadyRevoked",
      "type": "error"
    },
    {
      "inputs": [],
      "name": "CertificateNotFound",
      "type": "error"
    },
    {
      "inputs": [
        {
          "internalType": "address",
          "name": "implementation",
          "type": "address"
        }
      ],
      "name": "ERC1967InvalidImplementation",
      "type": "error"
    },
    {
      "inputs": [],
      "name": "ERC1967NonPayable",
      "type": "error"
    },
    {
      "inputs": [],
      "name": "FailedCall",
      "type": "error"
    },
    {
      "inputs": [],
      "name": "InvalidAddress",
      "type": "error"
    },
    {
      "inputs": [],
      "name": "InvalidDocumentHash",
      "type": "error"
    },
    {
      "inputs": [],
      "name": "InvalidInitialization",
      "type": "error"
    },
    {
      "inputs": [],
      "name": "InvalidStudentAddress",
      "type": "error"
    },
    {
      "inputs": [],
      "name": "NotCertificateIssuer",
      "type": "error"
    },
    {
      "inputs": [],
      "name": "NotInitializing",
      "type": "error"
    },
    {
      "inputs": [],
      "name": "ReentrancyGuardReentrantCall",
      "type": "error"
    },
    {
      "inputs": [],
      "name": "UUPSUnauthorizedCallContext",
      "type": "error"
    },
    {
      "inputs": [
        {
          "internalType": "bytes32",
          "name": "slot",
          "type": "bytes32"
        }
      ],
      "name": "UUPSUnsupportedProxiableUUID",
      "type": "error"
    },
    {
      "inputs": [],
      "name": "UnauthorizedIssuer",
      "type": "error"
    },
    {
      "anonymous": false,
      "inputs": [
        {
          "indexed": true,
          "internalType": "uint256",
          "name": "certificateId",
          "type": "uint256"
        },
        {
          "indexed": true,
          "internalType": "bytes32",
          "name": "documentHash",
          "type": "bytes32"
        },
        {
          "indexed": true,
          "internalType": "address",
          "name": "studentWallet",
          "type": "address"
        },
        {
          "indexed": false,
          "internalType": "address",
          "name": "issuingInstitution",
          "type": "address"
        },
        {
          "indexed": false,
          "internalType": "uint256",
          "name": "issueDate",
          "type": "uint256"
        }
      ],
      "name": "CertificateIssued",
      "type": "event"
    },
    {
      "anonymous": false,
      "inputs": [
        {
          "indexed": true,
          "internalType": "uint256",
          "name": "certificateId",
          "type": "uint256"
        },
        {
          "indexed": true,
          "internalType": "address",
          "name": "revokedBy",
          "type": "address"
        },
        {
          "indexed": false,
          "internalType": "string",
          "name": "reason",
          "type": "string"
        },
        {
          "indexed": false,
          "internalType": "uint256",
          "name": "timestamp",
          "type": "uint256"
        }
      ],
      "name": "CertificateRevoked",
      "type": "event"
    },
    {
      "anonymous": false,
      "inputs": [
        {
          "indexed": false,
          "internalType": "uint64",
          "name": "version",
          "type": "uint64"
        }
      ],
      "name": "Initialized",
      "type": "event"
    },
    {
      "anonymous": false,
      "inputs": [
        {
          "indexed": true,
          "internalType": "bytes32",
          "name": "role",
          "type": "bytes32"
        },
        {
          "indexed": true,
          "internalType": "bytes32",
          "name": "previousAdminRole",
          "type": "bytes32"
        },
        {
          "indexed": true,
          "internalType": "bytes32",
          "name": "newAdminRole",
          "type": "bytes32"
        }
      ],
      "name": "RoleAdminChanged",
      "type": "event"
    },
    {
      "anonymous": false,
      "inputs": [
        {
          "indexed": true,
          "internalType": "bytes32",
          "name": "role",
          "type": "bytes32"
        },
        {
          "indexed": true,
          "internalType": "address",
          "name": "account",
          "type": "address"
        },
        {
          "indexed": true,
          "internalType": "address",
          "name": "sender",
          "type": "address"
        }
      ],
      "name": "RoleGranted",
      "type": "event"
    },
    {
      "anonymous": false,
      "inputs": [
        {
          "indexed": true,
          "internalType": "bytes32",
          "name": "role",
          "type": "bytes32"
        },
        {
          "indexed": true,
          "internalType": "address",
          "name": "account",
          "type": "address"
        },
        {
          "indexed": true,
          "internalType": "address",
          "name": "sender",
          "type": "address"
        }
      ],
      "name": "RoleRevoked",
      "type": "event"
    },
    {
      "anonymous": false,
      "inputs": [
        {
          "indexed": true,
          "internalType": "address",
          "name": "implementation",
          "type": "address"
        }
      ],
      "name": "Upgraded",
      "type": "event"
    },
    {
      "inputs": [],
      "name": "DEFAULT_ADMIN_ROLE",
      "outputs": [
        {
          "internalType": "bytes32",
          "name": "",
          "type": "bytes32"
        }
      ],
      "stateMutability": "view",
      "type": "function"
    },
    {
      "inputs": [],
      "name": "SUPER_ADMIN_ROLE",
      "outputs": [
        {
          "internalType": "bytes32",
          "name": "",
          "type": "bytes32"
        }
      ],
      "stateMutability": "view",
      "type": "function"
    },
    {
      "inputs": [],
      "name": "UPGRADE_INTERFACE_VERSION",
      "outputs": [
        {
          "internalType": "string",
          "name": "",
          "type": "string"
        }
      ],
      "stateMutability": "view",
      "type": "function"
    },
    {
      "inputs": [],
      "name": "VERSION",
      "outputs": [
        {
          "internalType": "string",
          "name": "",
          "type": "string"
        }
      ],
      "stateMutability": "view",
      "type": "function"
    },
    {
      "inputs": [
        {
          "internalType": "uint256",
          "name": "certificateId",
          "type": "uint256"
        }
      ],
      "name": "certificateExists",
      "outputs": [
        {
          "internalType": "bool",
          "name": "exists",
          "type": "bool"
        }
      ],
      "stateMutability": "view",
      "type": "function"
    },
    {
      "inputs": [
        {
          "internalType": "uint256",
          "name": "",
          "type": "uint256"
        }
      ],
      "name": "certificates",
      "outputs": [
        {
          "internalType": "bytes32",
          "name": "documentHash",
          "type": "bytes32"
        },
        {
          "internalType": "address",
          "name": "studentWallet",
          "type": "address"
        },
        {
          "internalType": "address",
          "name": "issuingInstitution",
          "type": "address"
        },
        {
          "internalType": "uint256",
          "name": "issueDate",
          "type": "uint256"
        },
        {
          "internalType": "uint256",
          "name": "certificateId",
          "type": "uint256"
        },
        {
          "internalType": "string",
          "name": "metadataURI",
          "type": "string"
        },
        {
          "internalType": "bool",
          "name": "isRevoked",
          "type": "bool"
        },
        {
          "internalType": "uint256",
          "name": "revokedAt",
          "type": "uint256"
        },
        {
          "internalType": "string",
          "name": "revocationReason",
          "type": "string"
        }
      ],
      "stateMutability": "view",
      "type": "function"
    },
    {
      "inputs": [
        {
          "internalType": "uint256",
          "name": "certificateId",
          "type": "uint256"
        }
      ],
      "name": "getCertificate",
      "outputs": [
        {
          "components": [
            {
              "internalType": "bytes32",
              "name": "documentHash",
              "type": "bytes32"
            },
            {
              "internalType": "address",
              "name": "studentWallet",
              "type": "address"
            },
            {
              "internalType": "address",
              "name": "issuingInstitution",
              "type": "address"
            },
            {
              "internalType": "uint256",
              "name": "issueDate",
              "type": "uint256"
            },
            {
              "internalType": "uint256",
              "name": "certificateId",
              "type": "uint256"
            },
            {
              "internalType": "string",
              "name": "metadataURI",
              "type": "string"
            },
            {
              "internalType": "bool",
              "name": "isRevoked",
              "type": "bool"
            },
            {
              "internalType": "uint256",
              "name": "revokedAt",
              "type": "uint256"
            },
            {
              "internalType": "string",
              "name": "revocationReason",
              "type": "string"
            }
          ],
          "internalType": "struct ICertificateRegistry.Certificate",
          "name": "",
          "type": "tuple"
        }
      ],
      "stateMutability": "view",
      "type": "function"
    },
    {
      "inputs": [
        {
          "internalType": "bytes32",
          "name": "documentHash",
          "type": "bytes32"
        }
      ],
      "name": "getCertificateByHash",
      "outputs": [
        {
          "components": [
            {
              "internalType": "bytes32",
              "name": "documentHash",
              "type": "bytes32"
            },
            {
              "internalType": "address",
              "name": "studentWallet",
              "type": "address"
            },
            {
              "internalType": "address",
              "name": "issuingInstitution",
              "type": "address"
            },
            {
              "internalType": "uint256",
              "name": "issueDate",
              "type": "uint256"
            },
            {
              "internalType": "uint256",
              "name": "certificateId",
              "type": "uint256"
            },
            {
              "internalType": "string",
              "name": "metadataURI",
              "type": "string"
            },
            {
              "internalType": "bool",
              "name": "isRevoked",
              "type": "bool"
            },
            {
              "internalType": "uint256",
              "name": "revokedAt",
              "type": "uint256"
            },
            {
              "internalType": "string",
              "name": "revocationReason",
              "type": "string"
            }
          ],
          "internalType": "struct ICertificateRegistry.Certificate",
          "name": "",
          "type": "tuple"
        }
      ],
      "stateMutability": "view",
      "type": "function"
    },
    {
      "inputs": [
        {
          "internalType": "uint256[]",
          "name": "certificateIds",
          "type": "uint256[]"
        }
      ],
      "name": "getCertificatesBatch",
      "outputs": [
        {
          "components": [
            {
              "internalType": "bytes32",
              "name": "documentHash",
              "type": "bytes32"
            },
            {
              "internalType": "address",
              "name": "studentWallet",
              "type": "address"
            },
            {
              "internalType": "address",
              "name": "issuingInstitution",
              "type": "address"
            },
            {
              "internalType": "uint256",
              "name": "issueDate",
              "type": "uint256"
            },
            {
              "internalType": "uint256",
              "name": "certificateId",
              "type": "uint256"
            },
            {
              "internalType": "string",
              "name": "metadataURI",
              "type": "string"
            },
            {
              "internalType": "bool",
              "name": "isRevoked",
              "type": "bool"
            },
            {
              "internalType": "uint256",
              "name": "revokedAt",
              "type": "uint256"
            },
            {
              "internalType": "string",
              "name": "revocationReason",
              "type": "string"
            }
          ],
          "internalType": "struct ICertificateRegistry.Certificate[]",
          "name": "certificates_",
          "type": "tuple[]"
        },
        {
          "internalType": "bool[]",
          "name": "foundFlags",
          "type": "bool[]"
        }
      ],
      "stateMutability": "view",
      "type": "function"
    },
    {
      "inputs": [
        {
          "internalType": "address",
          "name": "institution",
          "type": "address"
        },
        {
          "internalType": "uint256",
          "name": "offset",
          "type": "uint256"
        },
        {
          "internalType": "uint256",
          "name": "limit",
          "type": "uint256"
        }
      ],
      "name": "getCertificatesByInstitution",
      "outputs": [
        {
          "internalType": "uint256[]",
          "name": "certificateIds",
          "type": "uint256[]"
        },
        {
          "internalType": "uint256",
          "name": "total",
          "type": "uint256"
        }
      ],
      "stateMutability": "view",
      "type": "function"
    },
    {
      "inputs": [
        {
          "internalType": "address",
          "name": "studentWallet",
          "type": "address"
        }
      ],
      "name": "getCertificatesByStudent",
      "outputs": [
        {
          "internalType": "uint256[]",
          "name": "",
          "type": "uint256[]"
        }
      ],
      "stateMutability": "view",
      "type": "function"
    },
    {
      "inputs": [
        {
          "internalType": "bytes32",
          "name": "role",
          "type": "bytes32"
        }
      ],
      "name": "getRoleAdmin",
      "outputs": [
        {
          "internalType": "bytes32",
          "name": "",
          "type": "bytes32"
        }
      ],
      "stateMutability": "view",
      "type": "function"
    },
    {
      "inputs": [],
      "name": "getTotalCertificates",
      "outputs": [
        {
          "internalType": "uint256",
          "name": "",
          "type": "uint256"
        }
      ],
      "stateMutability": "view",
      "type": "function"
    },
    {
      "inputs": [],
      "name": "getUpgradeHistory",
      "outputs": [
        {
          "components": [
            {
              "internalType": "string",
              "name": "version",
              "type": "string"
            },
            {
              "internalType": "uint256",
              "name": "timestamp",
              "type": "uint256"
            },
            {
              "internalType": "address",
              "name": "upgrader",
              "type": "address"
            },
            {
              "internalType": "string",
              "name": "notes",
              "type": "string"
            }
          ],
          "internalType": "struct CertificateRegistry.UpgradeInfo[]",
          "name": "",
          "type": "tuple[]"
        }
      ],
      "stateMutability": "view",
      "type": "function"
    },
    {
      "inputs": [],
      "name": "getVersion",
      "outputs": [
        {
          "internalType": "string",
          "name": "",
          "type": "string"
        }
      ],
      "stateMutability": "pure",
      "type": "function"
    },
    {
      "inputs": [
        {
          "internalType": "bytes32",
          "name": "role",
          "type": "bytes32"
        },
        {
          "internalType": "address",
          "name": "account",
          "type": "address"
        }
      ],
      "name": "grantRole",
      "outputs": [],
      "stateMutability": "nonpayable",
      "type": "function"
    },
    {
      "inputs": [
        {
          "internalType": "bytes32",
          "name": "role",
          "type": "bytes32"
        },
        {
          "internalType": "address",
          "name": "account",
          "type": "address"
        }
      ],
      "name": "hasRole",
      "outputs": [
        {
          "internalType": "bool",
          "name": "",
          "type": "bool"
        }
      ],
      "stateMutability": "view",
      "type": "function"
    },
    {
      "inputs": [
        {
          "internalType": "bytes32",
          "name": "documentHash",
          "type": "bytes32"
        }
      ],
      "name": "hashExists",
      "outputs": [
        {
          "internalType": "bool",
          "name": "exists",
          "type": "bool"
        }
      ],
      "stateMutability": "view",
      "type": "function"
    },
    {
      "inputs": [
        {
          "internalType": "bytes32",
          "name": "",
          "type": "bytes32"
        }
      ],
      "name": "hashToCertificateId",
      "outputs": [
        {
          "internalType": "uint256",
          "name": "",
          "type": "uint256"
        }
      ],
      "stateMutability": "view",
      "type": "function"
    },
    {
      "inputs": [
        {
          "internalType": "address",
          "name": "superAdmin",
          "type": "address"
        },
        {
          "internalType": "address",
          "name": "_institutionRegistry",
          "type": "address"
        }
      ],
      "name": "initialize",
      "outputs": [],
      "stateMutability": "nonpayable",
      "type": "function"
    },
    {
      "inputs": [],
      "name": "institutionRegistry",
      "outputs": [
        {
          "internalType": "contract IInstitutionRegistry",
          "name": "",
          "type": "address"
        }
      ],
      "stateMutability": "view",
      "type": "function"
    },
    {
      "inputs": [
        {
          "internalType": "bytes32",
          "name": "documentHash",
          "type": "bytes32"
        }
      ],
      "name": "isValidCertificate",
      "outputs": [
        {
          "internalType": "bool",
          "name": "isValid",
          "type": "bool"
        },
        {
          "internalType": "uint256",
          "name": "certificateId",
          "type": "uint256"
        },
        {
          "internalType": "bool",
          "name": "isRevoked",
          "type": "bool"
        }
      ],
      "stateMutability": "view",
      "type": "function"
    },
    {
      "inputs": [
        {
          "internalType": "bytes32",
          "name": "documentHash",
          "type": "bytes32"
        },
        {
          "internalType": "address",
          "name": "studentWallet",
          "type": "address"
        },
        {
          "internalType": "string",
          "name": "metadataURI",
          "type": "string"
        }
      ],
      "name": "issueCertificate",
      "outputs": [
        {
          "internalType": "uint256",
          "name": "",
          "type": "uint256"
        }
      ],
      "stateMutability": "nonpayable",
      "type": "function"
    },
    {
      "inputs": [
        {
          "internalType": "bytes32[]",
          "name": "documentHashes",
          "type": "bytes32[]"
        },
        {
          "internalType": "address[]",
          "name": "studentWallets",
          "type": "address[]"
        },
        {
          "internalType": "string[]",
          "name": "metadataURIs",
          "type": "string[]"
        }
      ],
      "name": "issueCertificatesBatch",
      "outputs": [
        {
          "internalType": "uint256[]",
          "name": "",
          "type": "uint256[]"
        }
      ],
      "stateMutability": "nonpayable",
      "type": "function"
    },
    {
      "inputs": [],
      "name": "proxiableUUID",
      "outputs": [
        {
          "internalType": "bytes32",
          "name": "",
          "type": "bytes32"
        }
      ],
      "stateMutability": "view",
      "type": "function"
    },
    {
      "inputs": [
        {
          "internalType": "string",
          "name": "newVersion",
          "type": "string"
        },
        {
          "internalType": "string",
          "name": "notes",
          "type": "string"
        }
      ],
      "name": "recordUpgrade",
      "outputs": [],
      "stateMutability": "nonpayable",
      "type": "function"
    },
    {
      "inputs": [
        {
          "internalType": "bytes32",
          "name": "role",
          "type": "bytes32"
        },
        {
          "internalType": "address",
          "name": "callerConfirmation",
          "type": "address"
        }
      ],
      "name": "renounceRole",
      "outputs": [],
      "stateMutability": "nonpayable",
      "type": "function"
    },
    {
      "inputs": [
        {
          "internalType": "uint256",
          "name": "certificateId",
          "type": "uint256"
        },
        {
          "internalType": "string",
          "name": "reason",
          "type": "string"
        }
      ],
      "name": "revokeCertificate",
      "outputs": [],
      "stateMutability": "nonpayable",
      "type": "function"
    },
    {
      "inputs": [
        {
          "internalType": "bytes32",
          "name": "role",
          "type": "bytes32"
        },
        {
          "internalType": "address",
          "name": "account",
          "type": "address"
        }
      ],
      "name": "revokeRole",
      "outputs": [],
      "stateMutability": "nonpayable",
      "type": "function"
    },
    {
      "inputs": [
        {
          "internalType": "address",
          "name": "_institutionRegistry",
          "type": "address"
        }
      ],
      "name": "setInstitutionRegistry",
      "outputs": [],
      "stateMutability": "nonpayable",
      "type": "function"
    },
    {
      "inputs": [
        {
          "internalType": "address",
          "name": "",
          "type": "address"
        },
        {
          "internalType": "uint256",
          "name": "",
          "type": "uint256"
        }
      ],
      "name": "studentCertificates",
      "outputs": [
        {
          "internalType": "uint256",
          "name": "",
          "type": "uint256"
        }
      ],
      "stateMutability": "view",
      "type": "function"
    },
    {
      "inputs": [
        {
          "internalType": "bytes4",
          "name": "interfaceId",
          "type": "bytes4"
        }
      ],
      "name": "supportsInterface",
      "outputs": [
        {
          "internalType": "bool",
          "name": "",
          "type": "bool"
        }
      ],
      "stateMutability": "view",
      "type": "function"
    },
    {
      "inputs": [
        {
          "internalType": "uint256",
          "name": "",
          "type": "uint256"
        }
      ],
      "name": "upgradeHistory",
      "outputs": [
        {
          "internalType": "string",
          "name": "version",
          "type": "string"
        },
        {
          "internalType": "uint256",
          "name": "timestamp",
          "type": "uint256"
        },
        {
          "internalType": "address",
          "name": "upgrader",
          "type": "address"
        },
        {
          "internalType": "string",
          "name": "notes",
          "type": "string"
        }
      ],
      "stateMutability": "view",
      "type": "function"
    },
    {
      "inputs": [
        {
          "internalType": "address",
          "name": "newImplementation",
          "type": "address"
        },
        {
          "internalType": "bytes",
          "name": "data",
          "type": "bytes"
        }
      ],
      "name": "upgradeToAndCall",
      "outputs": [],
      "stateMutability": "payable",
      "type": "function"
    }
  ],
  "bytecode": "0x60a080604052346100cd57306080527ff0c57e16840df040f15088dc2f81fe391c3923bec73e23a9662efc9c229c6a009081549060ff8260401c166100be57506001600160401b036002600160401b031982821601610079575b604051612eb49081620000d382396080518181816118fe0152611a0a0152f35b6001600160401b031990911681179091556040519081527fc7f505b2f371ae2175ee4913f4499e1f2633a7b5936321eed1cdaeb6115181d290602090a1388080610059565b63f92ee8a960e01b8152600490fd5b600080fdfe608080604052600436101561001357600080fd5b60003560e01c90816301ffc9a714612340575080630d8e6e2c146101955780631b1fcb0414612317578063248a9ca3146122db57806329cd14bb1461208b5780632f2ff15d1461203f57806336568abe14611ff85780634460bdd614611fcf578063485cc95514611be95780634f1ef286146119bb57806351640fee1461196857806352d1902d146118eb5780635b686a0a146118b657806365f8d23914611885578063663b3e22146117c8578063693f3894146111e757806375922c5d14610d125780637843bb7914610cd1578063843f0ab814610ca557806390ab95cb14610bd457806391d1485414610b7a57806398f211dc146108fb578063a217fddf146108df578063ad3cb1cc14610899578063b1466d1d14610633578063b535b5c314610605578063b85176db146105bb578063c3934f0e14610563578063c5d73aeb14610509578063d547741f146104bb578063e1a37ea51461035f578063ea092518146102d4578063f171d397146101ce5763ffa1ad741461019557600080fd5b346101c95760003660031901126101c9576101c56101b1612737565b604051918291602083526020830190612393565b0390f35b600080fd5b346101c95760203660031901126101c9576004356005548110156101c9576102bc90600560005260021b6101c5610226827f036b6384b5eca791c62761152d0c79bb0604c104a5fb6f4eb0703f3154bb3db0016125df565b7f036b6384b5eca791c62761152d0c79bb0604c104a5fb6f4eb0703f3154bb3db18301547f036b6384b5eca791c62761152d0c79bb0604c104a5fb6f4eb0703f3154bb3db2840154919390916001600160a01b0316906102a7907f036b6384b5eca791c62761152d0c79bb0604c104a5fb6f4eb0703f3154bb3db3016125df565b90604051958695608087526080870190612393565b92602086015260408501528382036060850152612393565b346101c9576020806003193601126101c9576001600160a01b036102f661249c565b1660005260028152604060002090604051808383829554938481520190600052836000209260005b858282106103495750505061033592500383612532565b6101c5604051928284938452830190612684565b855484526001958601958895509301920161031e565b346101c95760003660031901126101c95760055461037c81612758565b9061038a6040519283612532565b808252602090818301908160056000527f036b6384b5eca791c62761152d0c79bb0604c104a5fb6f4eb0703f3154bb3db06000915b8383106104605750505050604051918083019381845251809452604083019360408160051b85010192916000955b8287106103fa5785850386f35b909192938280610450600193603f198a820301865288516104246080825190808552840190612393565b918482015185820152868060a01b03604083015116604082015260608092015191818403910152612393565b96019201960195929190926103ed565b600486600192604099989951610475816124ce565b61047e866125df565b81528486015483820152848060a01b0360028701541660408201526104a5600387016125df565b60608201528152019201920191909594956103bf565b346101c95760403660031901126101c9576105076004356104da612486565b9080600052600080516020612e3f833981519152602052610502600160406000200154612abd565b612cc7565b005b346101c95760203660031901126101c95761052261249c565b61052a612a55565b6001600160a01b03168015610551576001600160601b0360a01b6000541617600055600080f35b60405163e6c4247b60e01b8152600490fd5b346101c95760403660031901126101c95761057c61249c565b6001600160a01b03166000908152600260205260409020805460243591908210156101c9576020916105ad916126e5565b90546040519160031b1c8152f35b346101c95760603660031901126101c9576105fb6105e76105da61249c565b6044359060243590612907565b604051928392604084526040840190612684565b9060208301520390f35b346101c95760203660031901126101c957600435600052600360205260206040600020541515604051908152f35b346101c95760403660031901126101c9576001600160401b036004356024358281116101c9576106679036906004016126b8565b9091610671612d4a565b806000526001926020848152604060002060048101541561088757600681019081549160ff83166108755760028201546001600160a01b031633141580610837575b610825578760089360ff19161790554260078201550195841161080f576106e4846106de88546125a5565b886127d7565b600095601f851160011461078c5761073885807f5ddf0e046312b29db15b9baad0a899f136ffab25f5d76ff3af1b18b94ec57e5196979899600091610781575b508160011b916000199060031b1c19161790565b90555b846040519260408452816040850152606084013760006060868401015242908201526060813395601f80199101168101030190a3600080516020612e5f83398151915255005b90508501358a610724565b601f1985169681600052826000209060005b8981106107fa5750867f5ddf0e046312b29db15b9baad0a899f136ffab25f5d76ff3af1b18b94ec57e5196979899106107e0575b50508686811b01905561073b565b840135600019600389901b60f8161c1916905587806107d2565b8582013583559188019190840190840161079e565b634e487b7160e01b600052604160045260246000fd5b604051634f52869d60e11b8152600490fd5b50600080516020612e1f833981519152600052600080516020612e3f8339815191528452604060002033600052845260ff60406000205416156106b3565b604051631ba03cdd60e31b8152600490fd5b60405163761e55e760e01b8152600490fd5b346101c95760003660031901126101c9576101c56040516108b9816124fc565b60058152640352e302e360dc1b6020820152604051918291602083526020830190612393565b346101c95760003660031901126101c957602060405160008152f35b346101c95760403660031901126101c9576001600160401b036004358181116101c95761092c9036906004016126b8565b91602435928184116101c9576109496109689436906004016126b8565b949093610954612a55565b60405192610961846124ce565b369161256e565b8152602090610986828201944286526040830196338852369161256e565b946060820195865260055494600160401b86101561080f576109af6001968781016005556126fd565b939093610b64575180519086821161080f576109d5826109cf87546125a5565b876127d7565b8590601f8311600114610afc579180610a0b92600397969594600092610af1575b50508160011b916000199060031b1c19161790565b83555b5186830155600282019060018060a01b039051166001600160601b0360a01b82541617905501935192835192831161080f57610a4e836109cf87546125a5565b81601f8411600114610a8d5750508190610a7e93600092610a825750508160011b916000199060031b1c19161790565b9055005b0151905084806109f6565b91909383601f1981168760005284600020946000905b88838310610ad75750505010610abe575b505050811b019055005b015160001960f88460031b161c19169055838080610ab4565b858701518855909601959485019487935090810190610aa3565b015190508b806109f6565b949392918891601f1982169086600052886000209160005b8a828210610b4e575050978360039910610b36575b505050811b018355610a0e565b015160001983891b60f8161c191690558a8080610b29565b838b015185558d96909401939283019201610b14565b634e487b7160e01b600052600060045260246000fd5b346101c95760403660031901126101c957610b93612486565b600435600052600080516020612e3f83398151915260205260406000209060018060a01b0316600052602052602060ff604060002054166040519015158152f35b346101c9576020806003193601126101c957610bee61276f565b506004356000526003815260406000205480156108875760005260018152604060002090610c8b600860405193610c24856124b2565b8054855260018101546001600160a01b039081168587015260028201541660408601526003810154606086015260048101546080860152610c67600582016125df565b60a086015260ff600682015416151560c0860152600781015460e0860152016125df565b6101008301526101c5604051928284938452830190612403565b346101c95760203660031901126101c95760043560005260036020526020604060002054604051908152f35b346101c95760003660031901126101c9576004546000198101908111610cfc57602090604051908152f35b634e487b7160e01b600052601160045260246000fd5b346101c95760603660031901126101c957610d2b612486565b6044356001600160401b0381116101c957610d4a9036906004016126b8565b9190610d54612d4a565b6001600160a01b038216156111d557600435156111c357600054604051630de1c3c960e31b815233600482015290602090829060249082906001600160a01b03165afa90811561107257600091611194575b501561118257600435600052600360205260406000205461117057610e0f60045491610dd1836128c3565b60045560405194610de1866124b2565b60043586526001600160a01b038516602087015233604087015242606087015260808601849052369161256e565b60a0840152600060c0840152600060e0840152604051610e2e81612517565b600081526101008401528060005260016020526040600020835181556001810160018060a01b03602086015116906001600160601b0360a01b9182825416179055600282019060018060a01b0360408701511690825416179055606084015160038201556080840151600482015560a08401518051906001600160401b03821161080f57610ecc82610ec360058601546125a5565b600586016127d7565b602090601f83116001146110fa57826008936101009593610f03936000926110ef5750508160011b916000199060031b1c19161790565b60058201555b610f2860c08701511515600683019060ff801983541691151516179055565b60e08601516007820155019301519283516001600160401b03811161080f57610f5b81610f5584546125a5565b846127d7565b602094601f821160011461108957610f8e92939495829160009261107e5750508160011b916000199060031b1c19161790565b90555b60018060a01b0382166000526002602052610fb08160406000206128d2565b6004356000908152600360205260408120829055546001600160a01b031691823b156101c9576000809360246040518096819363f466fe1360e01b83523360048401525af192831561107257602093611063575b50604080513381524260208201526001600160a01b0392909216916004359184917f2975a491763b4b20a2b13ec55e40ce297a6bae13acf955dbe1991f1db30d31d19190a46001600080516020612e5f83398151915255604051908152f35b61106c906124e9565b83611004565b6040513d6000823e3d90fd5b0151905086806109f6565b601f198216958360005260206000209160005b8881106110d7575083600195969798106110be575b505050811b019055610f91565b015160001960f88460031b161c191690558580806110b1565b9192602060018192868501518155019401920161109c565b0151905089806109f6565b906005840160005260206000209160005b601f1985168110611158575092610100949260019260089583601f1981161061113f575b505050811b016005820155610f09565b015160001960f88460031b161c1916905588808061112f565b9192602060018192868501518155019401920161110b565b604051635a0e33b560e01b8152600490fd5b604051635a0dd16b60e11b8152600490fd5b6111b6915060203d6020116111bc575b6111ae8183612532565b810190612865565b84610da6565b503d6111a4565b604051630c96ccbb60e11b8152600490fd5b604051631186b0dd60e21b8152600490fd5b346101c95760603660031901126101c9576004356001600160401b0381116101c9576112179036906004016123d3565b906024356001600160401b0381116101c9576112379036906004016123d3565b916044356001600160401b0381116101c9576112579036906004016123d3565b919092611262612d4a565b85156111c3578486148015906117be575b6111c357600054604051630de1c3c960e31b815233600482015290602090829060249082906001600160a01b03165afa9081156110725760009161179f575b5015611182576112c18661287d565b9460005b8781106112f4576001600080516020612e5f83398151915255604051602080825281906101c59082018a612684565b6001600160a01b0361130f61130a8385876127b3565b6128af565b16156111d5576113208189866127b3565b35156111c3576113318189866127b3565b3560005260036020526040600020546111705760045490611351826128c3565b60045561135f818a876127b3565b3561136e61130a8386886127b3565b8783101561178957601e19893603018360051b8a013512156101c9576001600160401b038360051b8a01358a0135116101c957600583901b8901358901803536036020909101136101c957604051916113c6836124b2565b82526001600160a01b031660208083019190915233604083015242606083015260808201849052611406903690600585901b8b01358b018035910161256e565b60a0820152600060c0820152600060e082015260405161142581612517565b60008152610100820152826000526001602052604060002090805182556001820160018060a01b03602083015116906001600160601b0360a01b9182825416179055600283019060018060a01b0360408401511690825416179055606081015160038301556080810151600483015560a08101518051906001600160401b03821161080f576114c4826114bb60058701546125a5565b600587016127d7565b602090601f83116001146117155791806114f992610100959460009261170a5750508160011b916000199060031b1c19161790565b60058401555b61151e60c08201511515600685019060ff801983541691151516179055565b60e0810151600784015501518051906001600160401b03821161080f576115558261154c60088601546125a5565b600886016127d7565b602090601f831160011461169a5791806115889260089460009261168f5750508160011b916000199060031b1c19161790565b9101555b6001600160a01b036115a261130a8386886127b3565b1660005260026020526115b98260406000206128d2565b6115c4818a876127b3565b356000908152600360205260408120839055546001600160a01b031691823b156101c9576000809360246040518096819363f466fe1360e01b83523360048401525af192831561107257600193611680575b50611622828b886127b3565b35838060a01b0361163761130a85888a6127b3565b6040805133815242602082015292909116929184917f2975a491763b4b20a2b13ec55e40ce297a6bae13acf955dbe1991f1db30d31d191a4611679828a6127c3565b52016112c5565b611689906124e9565b8a611616565b015190508e806109f6565b906008840160005260206000209160005b601f19851681106116f25750918391600193600895601f198116106116d9575b505050811b0191015561158c565b015160001960f88460031b161c191690558d80806116cb565b919260206001819286850151815501940192016116ab565b015190508f806109f6565b906005850160005260206000209160005b601f198516811061177157509183916001936101009695601f19811610611758575b505050811b0160058401556114ff565b015160001960f88460031b161c191690558e8080611748565b91926020600181928685015181550194019201611726565b634e487b7160e01b600052603260045260246000fd5b6117b8915060203d6020116111bc576111ae8183612532565b876112b2565b5082861415611273565b346101c95760203660031901126101c9576004356000526001602052604060002080546101c560018060a01b039182600185015416926002850154169360038101549061186a600482015493611820600584016125df565b9060ff6006850154169561183b6008600787015496016125df565b956040519a8b9a610120948c5260208c015260408b015260608a015260808901528060a0890152870190612393565b92151560c086015260e0850152838203610100850152612393565b346101c95760203660031901126101c957600435600052600160205260206004604060002001541515604051908152f35b346101c95760203660031901126101c95760606118d460043561282d565b906040519215158352602083015215156040820152f35b346101c95760003660031901126101c9577f00000000000000000000000000000000000000000000000000000000000000006001600160a01b031630036119565760206040517f360894a13ba1a3210667c828492db98dca3e2076cc3735a920a3ca505d382bbc8152f35b60405163703e46dd60e11b8152600490fd5b346101c9576020806003193601126101c95760043561198561276f565b508060005260018252600460406000200154156108875760005260018152604060002090610c8b600860405193610c24856124b2565b60403660031901126101c9576119cf61249c565b6024356001600160401b0381116101c957366023820112156101c9576119ff90369060248160040135910161256e565b906001600160a01b037f00000000000000000000000000000000000000000000000000000000000000008116308114908115611bbb575b5061195657611a43612a55565b6040516352d1902d60e01b8152908216916020918281600481875afa60009181611b8c575b50611a8657604051634c9c8ce360e01b815260048101859052602490fd5b9284937f360894a13ba1a3210667c828492db98dca3e2076cc3735a920a3ca505d382bbc90818103611b745750823b15611b5b5780546001600160a01b03191682179055604051907fbc7cd75a20ee27fd9adebab32041f755214dbc6bffa90cc0225b39da2e5c2d3b600080a2835115611b415750600080848461050796519101845af4903d15611b38573d611b1b81612553565b90611b296040519283612532565b8152600081943d92013e612dbb565b60609250612dbb565b9250505034611b4c57005b63b398979f60e01b8152600490fd5b604051634c9c8ce360e01b815260048101839052602490fd5b60249060405190632a87526960e21b82526004820152fd5b9091508381813d8311611bb4575b611ba48183612532565b810103126101c957519086611a68565b503d611b9a565b9050817f360894a13ba1a3210667c828492db98dca3e2076cc3735a920a3ca505d382bbc5416141584611a36565b346101c95760403660031901126101c957611c0261249c565b611c0a612486565b907ff0c57e16840df040f15088dc2f81fe391c3923bec73e23a9662efc9c229c6a00908154926001600160401b03841680159081611fbf575b6001149081611fb5575b159081611fac575b50611f9a5760016001600160401b0319851617835560ff8460401c1615611f7b575b6001600160a01b03821615610551576001600160a01b031690811561055157611cdb90611ca2612d7a565b611caa612d7a565b611cb2612d7a565b611cba612d7a565b6001600080516020612e5f83398151915255611cd581612af0565b50612b90565b506001600160601b0360a01b60005416176000556001600455611cfc612737565b9160405192611d0a846124ce565b8352426020840152336040840152604051611d24816124fc565b6012815271125b9a5d1a585b0819195c1b1bde5b595b9d60721b60208201526060840152600554600160401b81101561080f57806001611d6792016005556126fd565b610b645783518051906001600160401b03821161080f57611d9282611d8c85546125a5565b856127d7565b602090601f8311600114611f0d578260039360609593611dc8936000926110ef5750508160011b916000199060031b1c19161790565b81555b602086015160018201556002810160018060a01b036040880151166001600160601b0360a01b825416179055019301519283516001600160401b03811161080f57611e1a81610f5584546125a5565b6020601f8211600114611ea3579080611e4d9260ff9697600092611e985750508160011b916000199060031b1c19161790565b90555b60401c1615611e5b57005b68ff00000000000000001981541690557fc7f505b2f371ae2175ee4913f4499e1f2633a7b5936321eed1cdaeb6115181d2602060405160018152a1005b0151905087806109f6565b601f198216958360005260206000209660005b818110611ef557509160ff969791846001959410611edc575b505050811b019055611e50565b015160001960f88460031b161c19169055868080611ecf565b83830151895560019098019760209384019301611eb6565b908360005260206000209160005b601f1985168110611f635750926060949260019260039583601f19811610611f4b575b505050811b018155611dcb565b015160001983871b60f8161c19169055888080611f3e565b91926020600181928685015181550194019201611f1b565b68ffffffffffffffffff19841668010000000000000001178355611c77565b60405163f92ee8a960e01b8152600490fd5b90501585611c55565b303b159150611c4d565b604086901c60ff16159150611c43565b346101c95760003660031901126101c9576020604051600080516020612e1f8339815191528152f35b346101c95760403660031901126101c957612011612486565b336001600160a01b0382160361202d5761050790600435612cc7565b60405163334bd91960e11b8152600490fd5b346101c95760403660031901126101c95761050760043561205e612486565b9080600052600080516020612e3f833981519152602052612086600160406000200154612abd565b612c40565b346101c9576020806003193601126101c9576004356001600160401b0381116101c9576120bc9036906004016123d3565b906120c682612758565b926120d46040519485612532565b8284526120e083612758565b601f199290830160005b8181106122bd5750506120fc84612758565b9361210a6040519586612532565b80855261211681612758565b858401940136853760005b8181106121cc575050506040519384936040850160408652825180915260608601908460608260051b8901019401916000905b82821061219a57505050508482038584015251808252908201929160005b82811061218157505050500390f35b8351151585528695509381019392810192600101612172565b91939460019193979850866121ba8192605f198d82030186528a51612403565b98019201920188979694939192612154565b806121de60019284869a98999a6127b3565b3560008181528387526040902060040154839190156122a9576000528086526040600020612277600860405192612214846124b2565b80548452868060a01b038086830154168b86015260028201541660408501526003810154606085015260048101546080850152612253600582016125df565b60a085015260ff600682015416151560c0850152600781015460e0850152016125df565b61010082015261228783896127c3565b5261229282886127c3565b5061229d828a6127c3565b525b0195949395612121565b505060006122b7828a6127c3565b5261229f565b83906122cb9795969761276f565b82828801015201959493956120ea565b346101c95760203660031901126101c957600435600052600080516020612e3f8339815191526020526020600160406000200154604051908152f35b346101c95760003660031901126101c9576000546040516001600160a01b039091168152602090f35b346101c95760203660031901126101c9576004359063ffffffff60e01b82168092036101c957602091637965db0b60e01b8114908115612382575b5015158152f35b6301ffc9a760e01b1490508361237b565b919082519283825260005b8481106123bf575050826000602080949584010152601f8019910116010190565b60208183018101518483018201520161239e565b9181601f840112156101c9578235916001600160401b0383116101c9576020808501948460051b0101116101c957565b906124839161245961012082518452602083015160018060a01b0380911660208601526040840151166040850152606083015160608501526080830151608085015260a0830151908060a0860152840190612393565b9160c0820151151560c082015260e082015160e08201526101008092015191818403910152612393565b90565b602435906001600160a01b03821682036101c957565b600435906001600160a01b03821682036101c957565b61012081019081106001600160401b0382111761080f57604052565b608081019081106001600160401b0382111761080f57604052565b6001600160401b03811161080f57604052565b604081019081106001600160401b0382111761080f57604052565b602081019081106001600160401b0382111761080f57604052565b90601f801991011681019081106001600160401b0382111761080f57604052565b6001600160401b03811161080f57601f01601f191660200190565b92919261257a82612553565b916125886040519384612532565b8294818452818301116101c9578281602093846000960137010152565b90600182811c921680156125d5575b60208310146125bf57565b634e487b7160e01b600052602260045260246000fd5b91607f16916125b4565b906040519182600082546125f2816125a5565b908184526020946001916001811690816000146126625750600114612623575b50505061262192500383612532565b565b600090815285812095935091905b81831061264a5750506126219350820101388080612612565b85548884018501529485019487945091830191612631565b9250505061262194925060ff191682840152151560051b820101388080612612565b90815180825260208080930193019160005b8281106126a4575050505090565b835185529381019392810192600101612696565b9181601f840112156101c9578235916001600160401b0383116101c957602083818601950101116101c957565b80548210156117895760005260206000200190600090565b60055481101561178957600560005260021b7f036b6384b5eca791c62761152d0c79bb0604c104a5fb6f4eb0703f3154bb3db00190600090565b60405190612744826124fc565b60058252640312e302e360dc1b6020830152565b6001600160401b03811161080f5760051b60200190565b6040519061277c826124b2565b606061010083600080825280602083015280604083015280848301528060808301528360a08301528060c083015260e08201520152565b91908110156117895760051b0190565b80518210156117895760209160051b010190565b90601f81116127e557505050565b6000916000526020600020906020601f850160051c83019410612823575b601f0160051c01915b82811061281857505050565b81815560010161280c565b9092508290612803565b9060009182526003602052604082205491821561285d578281526001602052604090206006015460ff1680159291565b915081908190565b908160209103126101c9575180151581036101c95790565b9061288782612758565b6128946040519182612532565b82815280926128a5601f1991612758565b0190602036910137565b356001600160a01b03811681036101c95790565b6000198114610cfc5760010190565b8054600160401b81101561080f576128ef916001820181556126e5565b819291549060031b91821b91600019901b1916179055565b926000600193600454945b858110612a14575081808510156129f457818501808611610cfc5781106129e3575b5061293e8161287d565b9160009360009260015b888110806129da575b156129cc576000818152600160205260409020600201546001600160a01b038b8116911614612989575b612984906128c3565b612948565b95878110156129a7575b61299f612984916128c3565b96905061297b565b9361299f6129c382896129bd612984958b6127c3565b526128c3565b95915050612993565b505095509550509150509190565b50818510612951565b84810391508111610cfc5738612934565b95505050915050604051612a0781612517565b6000815260003681379190565b6000818152600160205260409020600201546001600160a01b03888116911614612a41575b600101612912565b91612a4d6001916128c3565b929050612a39565b3360009081527f1bb2c9017acf0fa0e0be596646f477a7b3f104bdd8321c4e00ff770f062ffc3a6020526040902054600080516020612e1f8339815191529060ff1615612a9f5750565b6044906040519063e2517d3f60e01b82523360048301526024820152fd5b80600052600080516020612e3f83398151915260205260406000203360005260205260ff6040600020541615612a9f5750565b6001600160a01b031660008181527fb7db2dd08fcb62d0c9e08c51941cae53c267786a0b75803fb7960902fc8ef97d6020526040812054909190600080516020612e3f8339815191529060ff16612b8b578280526020526040822081835260205260408220600160ff1982541617905533917f2f8788117e7eff1d82e926ec794901d17c78024a50270940304540a733656f0d8180a4600190565b505090565b6001600160a01b031660008181527f1bb2c9017acf0fa0e0be596646f477a7b3f104bdd8321c4e00ff770f062ffc3a6020526040812054909190600080516020612e1f83398151915290600080516020612e3f8339815191529060ff16612c3a578184526020526040832082845260205260408320600160ff198254161790557f2f8788117e7eff1d82e926ec794901d17c78024a50270940304540a733656f0d339380a4600190565b50505090565b90600091808352600080516020612e3f83398151915280602052604084209260018060a01b03169283855260205260ff60408520541615600014612c3a578184526020526040832082845260205260408320600160ff198254161790557f2f8788117e7eff1d82e926ec794901d17c78024a50270940304540a733656f0d339380a4600190565b90600091808352600080516020612e3f83398151915280602052604084209260018060a01b03169283855260205260ff604085205416600014612c3a57818452602052604083208284526020526040832060ff1981541690557ff6391f5c32d9c69d2a47ea670b442974b53935d1edc7fd64eb21e047a839171b339380a4600190565b600080516020612e5f8339815191526002815414612d685760029055565b604051633ee5aeb560e01b8152600490fd5b60ff7ff0c57e16840df040f15088dc2f81fe391c3923bec73e23a9662efc9c229c6a005460401c1615612da957565b604051631afcd79f60e31b8152600490fd5b90612de25750805115612dd057602081519101fd5b60405163d6bda27560e01b8152600490fd5b81511580612e15575b612df3575090565b604051639996b31560e01b81526001600160a01b039091166004820152602490fd5b50803b15612deb56fe7613a25ecc738585a232ad50a301178f12b3ba8887d13e138b523c4269c4768902dd7bc7dec4dceedda775e58dd541e08a116c6c53815c0bd028192f7b6268009b779b17422d0df92223018b32b4d1fa46e071723d6817e2486d003becc55f00a264697066735822122076071025b3dcfe5922cad8dd8a1ba55e9be604a48a063bf70d460946e1cc89fb64736f6c63430008180033",
  "linkReferences": {},
  "deployedLinkReferences": {}
}