{
  "_format": "hh-sol-artifact-1",
  "contractName": "CertificateRegistry",
  "sourceName": "contracts/CertificateRegistry.sol",
  "abi": [
    {
      "inputs": [],
      "stateMutability": "nonpayable",
      "type": "constructor"
    },
    {
      "inputs": [],
      "name": "AccessControlBadConfirmation",
      "type": "error"
    },
    {
      "inputs": [
        {
          "internalType": "address",
          "name": "account",
          "type": "address"
        },
        {
          "internalType": "bytes32",
          "name": "neededRole",
          "type": "bytes32"
        }
      ],
      "name": "AccessControlUnauthorizedAccount",
      "type": "error"
    },
    {
      "inputs": [
        {
          "internalType": "address",
          "name": "target",
          "type": "address"
        }
      ],
      "name": "AddressEmptyCode",
      "type": "error"
    },
    {
      "inputs": [],
      "name": "CertificateAlreadyExists",
      "type": "error"
    },
    {
      "inputs": [],
      "name": "CertificateAlreadyRevoked",
      "type": "error"
    },
    {
      "inputs": [],
      "name": "CertificateNotFound",
      "type": "error"
    },
    {
      "inputs": [
        {
          "internalType": "address",
          "name": "implementation",
          "type": "address"
        }
      ],
      "name": "ERC1967InvalidImplementation",
      "type": "error"
    },
    {
      "inputs": [],
      "name": "ERC1967NonPayable",
      "type": "error"
    },
    {
      "inputs": [],
      "name": "FailedCall",
      "type": "error"
    },
    {
      "inputs": [],
      "name": "InvalidAddress",
      "type": "error"
    },
    {
      "inputs": [],
      "name": "InvalidDocumentHash",
      "type": "error"
    },
    {
      "inputs": [],
      "name": "InvalidInitialization",
      "type": "error"
    },
    {
      "inputs": [],
      "name": "InvalidStudentAddress",
      "type": "error"
    },
    {
      "inputs": [],
      "name": "NotCertificateIssuer",
      "type": "error"
    },
    {
      "inputs": [],
      "name": "NotInitializing",
      "type": "error"
    },
    {
      "inputs": [],
      "name": "ReentrancyGuardReentrantCall",
      "type": "error"
    },
    {
      "inputs": [],
      "name": "UUPSUnauthorizedCallContext",
      "type": "error"
    },
    {
      "inputs": [
        {
          "internalType": "bytes32",
          "name": "slot",
          "type": "bytes32"
        }
      ],
      "name": "UUPSUnsupportedProxiableUUID",
      "type": "error"
    },
    {
      "inputs": [],
      "name": "UnauthorizedIssuer",
      "type": "error"
    },
    {
      "anonymous": false,
      "inputs": [
        {
          "indexed": true,
          "internalType": "uint256",
          "name": "certificateId",
          "type": "uint256"
        },
        {
          "indexed": true,
          "internalType": "bytes32",
          "name": "documentHash",
          "type": "bytes32"
        },
        {
          "indexed": true,
          "internalType": "address",
          "name": "studentWallet",
          "type": "address"
        },
        {
          "indexed": false,
          "internalType": "address",
          "name": "issuingInstitution",
          "type": "address"
        },
        {
          "indexed": false,
          "internalType": "uint256",
          "name": "issueDate",
          "type": "uint256"
        }
      ],
      "name": "CertificateIssued",
      "type": "event"
    },
    {
      "anonymous": false,
      "inputs": [
        {
          "indexed": true,
          "internalType": "uint256",
          "name": "certificateId",
          "type": "uint256"
        },
        {
          "indexed": true,
          "internalType": "address",
          "name": "revokedBy",
          "type": "address"
        },
        {
          "indexed": false,
          "internalType": "string",
          "name": "reason",
          "type": "string"
        },
        {
          "indexed": false,
          "internalType": "uint256",
          "name": "timestamp",
          "type": "uint256"
        }
      ],
      "name": "CertificateRevoked",
      "type": "event"
    },
    {
      "anonymous": false,
      "inputs": [
        {
          "indexed": false,
          "internalType": "uint64",
          "name": "version",
          "type": "uint64"
        }
      ],
      "name": "Initialized",
      "type": "event"
    },
    {
      "anonymous": false,
      "inputs": [
        {
          "indexed": true,
          "internalType": "bytes32",
          "name": "role",
          "type": "bytes32"
        },
        {
          "indexed": true,
          "internalType": "bytes32",
          "name": "previousAdminRole",
          "type": "bytes32"
        },
        {
          "indexed": true,
          "internalType": "bytes32",
          "name": "newAdminRole",
          "type": "bytes32"
        }
      ],
      "name": "RoleAdminChanged",
      "type": "event"
    },
    {
      "anonymous": false,
      "inputs": [
        {
          "indexed": true,
          "internalType": "bytes32",
          "name": "role",
          "type": "bytes32"
        },
        {
          "indexed": true,
          "internalType": "address",
          "name": "account",
          "type": "address"
        },
        {
          "indexed": true,
          "internalType": "address",
          "name": "sender",
          "type": "address"
        }
      ],
      "name": "RoleGranted",
      "type": "event"
    },
    {
      "anonymous": false,
      "inputs": [
        {
          "indexed": true,
          "internalType": "bytes32",
          "name": "role",
          "type": "bytes32"
        },
        {
          "indexed": true,
          "internalType": "address",
          "name": "account",
          "type": "address"
        },
        {
          "indexed": true,
          "internalType": "address",
          "name": "sender",
          "type": "address"
        }
      ],
      "name": "RoleRevoked",
      "type": "event"
    },
    {
      "anonymous": false,
      "inputs": [
        {
          "indexed": true,
          "internalType": "address",
          "name": "implementation",
          "type": "address"
        }
      ],
      "name": "Upgraded",
      "type": "event"
    },
    {
      "inputs": [],
      "name": "DEFAULT_ADMIN_ROLE",
      "outputs": [
        {
          "internalType": "bytes32",
          "name": "",
          "type": "bytes32"
        }
      ],
      "stateMutability": "view",
      "type": "function"
    },
    {
      "inputs": [],
      "name": "SUPER_ADMIN_ROLE",
      "outputs": [
        {
          "internalType": "bytes32",
          "name": "",
          "type": "bytes32"
        }
      ],
      "stateMutability": "view",
      "type": "function"
    },
    {
      "inputs": [],
      "name": "UPGRADE_INTERFACE_VERSION",
      "outputs": [
        {
          "internalType": "string",
          "name": "",
          "type": "string"
        }
      ],
      "stateMutability": "view",
      "type": "function"
    },
    {
      "inputs": [],
      "name": "VERSION",
      "outputs": [
        {
          "internalType": "string",
          "name": "",
          "type": "string"
        }
      ],
      "stateMutability": "view",
      "type": "function"
    },
    {
      "inputs": [
        {
          "internalType": "uint256",
          "name": "certificateId",
          "type": "uint256"
        }
      ],
      "name": "certificateExists",
      "outputs": [
        {
          "internalType": "bool",
          "name": "exists",
          "type": "bool"
        }
      ],
      "stateMutability": "view",
      "type": "function"
    },
    {
      "inputs": [
        {
          "internalType": "uint256",
          "name": "",
          "type": "uint256"
        }
      ],
      "name": "certificates",
      "outputs": [
        {
          "internalType": "bytes32",
          "name": "documentHash",
          "type": "bytes32"
        },
        {
          "internalType": "address",
          "name": "studentWallet",
          "type": "address"
        },
        {
          "internalType": "address",
          "name": "issuingInstitution",
          "type": "address"
        },
        {
          "internalType": "uint256",
          "name": "issueDate",
          "type": "uint256"
        },
        {
          "internalType": "uint256",
          "name": "certificateId",
          "type": "uint256"
        },
        {
          "internalType": "string",
          "name": "metadataURI",
          "type": "string"
        },
        {
          "internalType": "bool",
          "name": "isRevoked",
          "type": "bool"
        },
        {
          "internalType": "uint256",
          "name": "revokedAt",
          "type": "uint256"
        },
        {
          "internalType": "string",
          "name": "revocationReason",
          "type": "string"
        }
      ],
      "stateMutability": "view",
      "type": "function"
    },
    {
      "inputs": [
        {
          "internalType": "uint256",
          "name": "certificateId",
          "type": "uint256"
        }
      ],
      "name": "getCertificate",
      "outputs": [
        {
          "components": [
            {
              "internalType": "bytes32",
              "name": "documentHash",
              "type": "bytes32"
            },
            {
              "internalType": "address",
              "name": "studentWallet",
              "type": "address"
            },
            {
              "internalType": "address",
              "name": "issuingInstitution",
              "type": "address"
            },
            {
              "internalType": "uint256",
              "name": "issueDate",
              "type": "uint256"
            },
            {
              "internalType": "uint256",
              "name": "certificateId",
              "type": "uint256"
            },
            {
              "internalType": "string",
              "name": "metadataURI",
              "type": "string"
            },
            {
              "internalType": "bool",
              "name": "isRevoked",
              "type": "bool"
            },
            {
              "internalType": "uint256",
              "name": "revokedAt",
              "type": "uint256"
            },
            {
              "internalType": "string",
              "name": "revocationReason",
              "type": "string"
            }
          ],
          "internalType": "struct ICertificateRegistry.Certificate",
          "name": "",
          "type": "tuple"
        }
      ],
      "stateMutability": "view",
      "type": "function"
    },
    {
      "inputs": [
        {
          "internalType": "bytes32",
          "name": "documentHash",
          "type": "bytes32"
        }
      ],
      "name": "getCertificateByHash",
      "outputs": [
        {
          "components": [
            {
              "internalType": "bytes32",
              "name": "documentHash",
              "type": "bytes32"
            },
            {
              "internalType": "address",
              "name": "studentWallet",
              "type": "address"
            },
            {
              "internalType": "address",
              "name": "issuingInstitution",
              "type": "address"
            },
            {
              "internalType": "uint256",
              "name": "issueDate",
              "type": "uint256"
            },
            {
              "internalType": "uint256",
              "name": "certificateId",
              "type": "uint256"
            },
            {
              "internalType": "string",
              "name": "metadataURI",
              "type": "string"
            },
            {
              "internalType": "bool",
              "name": "isRevoked",
              "type": "bool"
            },
            {
              "internalType": "uint256",
              "name": "revokedAt",
              "type": "uint256"
            },
            {
              "internalType": "string",
              "name": "revocationReason",
              "type": "string"
            }
          ],
          "internalType": "struct ICertificateRegistry.Certificate",
          "name": "",
          "type": "tuple"
        }
      ],
      "stateMutability": "view",
      "type": "function"
    },
    {
      "inputs": [
        {
          "internalType": "uint256[]",
          "name": "certificateIds",
          "type": "uint256[]"
        }
      ],
      "name": "getCertificatesBatch",
      "outputs": [
        {
          "components": [
            {
              "internalType": "bytes32",
              "name": "documentHash",
              "type": "bytes32"
            },
            {
              "internalType": "address",
              "name": "studentWallet",
              "type": "address"
            },
            {
              "internalType": "address",
              "name": "issuingInstitution",
              "type": "address"
            },
            {
              "internalType": "uint256",
              "name": "issueDate",
              "type": "uint256"
            },
            {
              "internalType": "uint256",
              "name": "certificateId",
              "type": "uint256"
            },
            {
              "internalType": "string",
              "name": "metadataURI",
              "type": "string"
            },
            {
              "internalType": "bool",
              "name": "isRevoked",
              "type": "bool"
            },
            {
              "internalType": "uint256",
              "name": "revokedAt",
              "type": "uint256"
            },
            {
              "internalType": "string",
              "name": "revocationReason",
              "type": "string"
            }
          ],
          "internalType": "struct ICertificateRegistry.Certificate[]",
          "name": "certificates_",
          "type": "tuple[]"
        },
        {
          "internalType": "bool[]",
          "name": "foundFlags",
          "type": "bool[]"
        }
      ],
      "stateMutability": "view",
      "type": "function"
    },
    {
      "inputs": [
        {
          "internalType": "address",
          "name": "institution",
          "type": "address"
        },
        {
          "internalType": "uint256",
          "name": "offset",
          "type": "uint256"
        },
        {
          "internalType": "uint256",
          "name": "limit",
          "type": "uint256"
        }
      ],
      "name": "getCertificatesByInstitution",
      "outputs": [
        {
          "internalType": "uint256[]",
          "name": "certificateIds",
          "type": "uint256[]"
        },
        {
          "internalType": "uint256",
          "name": "total",
          "type": "uint256"
        }
      ],
      "stateMutability": "view",
      "type": "function"
    },
    {
      "inputs": [
        {
          "internalType": "address",
          "name": "studentWallet",
          "type": "address"
        }
      ],
      "name": "getCertificatesByStudent",
      "outputs": [
        {
          "internalType": "uint256[]",
          "name": "",
          "type": "uint256[]"
        }
      ],
      "stateMutability": "view",
      "type": "function"
    },
    {
      "inputs": [
        {
          "internalType": "bytes32",
          "name": "role",
          "type": "bytes32"
        }
      ],
      "name": "getRoleAdmin",
      "outputs": [
        {
          "internalType": "bytes32",
          "name": "",
          "type": "bytes32"
        }
      ],
      "stateMutability": "view",
      "type": "function"
    },
    {
      "inputs": [],
      "name": "getTotalCertificates",
      "outputs": [
        {
          "internalType": "uint256",
          "name": "",
          "type": "uint256"
        }
      ],
      "stateMutability": "view",
      "type": "function"
    },
    {
      "inputs": [],
      "name": "getUpgradeHistory",
      "outputs": [
        {
          "components": [
            {
              "internalType": "string",
              "name": "version",
              "type": "string"
            },
            {
              "internalType": "uint256",
              "name": "timestamp",
              "type": "uint256"
            },
            {
              "internalType": "address",
              "name": "upgrader",
              "type": "address"
            },
            {
              "internalType": "string",
              "name": "notes",
              "type": "string"
            }
          ],
          "internalType": "struct CertificateRegistry.UpgradeInfo[]",
          "name": "",
          "type": "tuple[]"
        }
      ],
      "stateMutability": "view",
      "type": "function"
    },
    {
      "inputs": [],
      "name": "getVersion",
      "outputs": [
        {
          "internalType": "string",
          "name": "",
          "type": "string"
        }
      ],
      "stateMutability": "pure",
      "type": "function"
    },
    {
      "inputs": [
        {
          "internalType": "bytes32",
          "name": "role",
          "type": "bytes32"
        },
        {
          "internalType": "address",
          "name": "account",
          "type": "address"
        }
      ],
      "name": "grantRole",
      "outputs": [],
      "stateMutability": "nonpayable",
      "type": "function"
    },
    {
      "inputs": [
        {
          "internalType": "bytes32",
          "name": "role",
          "type": "bytes32"
        },
        {
          "internalType": "address",
          "name": "account",
          "type": "address"
        }
      ],
      "name": "hasRole",
      "outputs": [
        {
          "internalType": "bool",
          "name": "",
          "type": "bool"
        }
      ],
      "stateMutability": "view",
      "type": "function"
    },
    {
      "inputs": [
        {
          "internalType": "bytes32",
          "name": "documentHash",
          "type": "bytes32"
        }
      ],
      "name": "hashExists",
      "outputs": [
        {
          "internalType": "bool",
          "name": "exists",
          "type": "bool"
        }
      ],
      "stateMutability": "view",
      "type": "function"
    },
    {
      "inputs": [
        {
          "internalType": "bytes32",
          "name": "",
          "type": "bytes32"
        }
      ],
      "name": "hashToCertificateId",
      "outputs": [
        {
          "internalType": "uint256",
          "name": "",
          "type": "uint256"
        }
      ],
      "stateMutability": "view",
      "type": "function"
    },
    {
      "inputs": [
        {
          "internalType": "address",
          "name": "superAdmin",
          "type": "address"
        },
        {
          "internalType": "address",
          "name": "_institutionRegistry",
          "type": "address"
        }
      ],
      "name": "initialize",
      "outputs": [],
      "stateMutability": "nonpayable",
      "type": "function"
    },
    {
      "inputs": [],
      "name": "institutionRegistry",
      "outputs": [
        {
          "internalType": "contract IInstitutionRegistry",
          "name": "",
          "type": "address"
        }
      ],
      "stateMutability": "view",
      "type": "function"
    },
    {
      "inputs": [
        {
          "internalType": "bytes32",
          "name": "documentHash",
          "type": "bytes32"
        }
      ],
      "name": "isValidCertificate",
      "outputs": [
        {
          "internalType": "bool",
          "name": "isValid",
          "type": "bool"
        },
        {
          "internalType": "uint256",
          "name": "certificateId",
          "type": "uint256"
        },
        {
          "internalType": "bool",
          "name": "isRevoked",
          "type": "bool"
        }
      ],
      "stateMutability": "view",
      "type": "function"
    },
    {
      "inputs": [
        {
          "internalType": "bytes32",
          "name": "documentHash",
          "type": "bytes32"
        },
        {
          "internalType": "address",
          "name": "studentWallet",
          "type": "address"
        },
        {
          "internalType": "string",
          "name": "metadataURI",
          "type": "string"
        }
      ],
      "name": "issueCertificate",
      "outputs": [
        {
          "internalType": "uint256",
          "name": "",
          "type": "uint256"
        }
      ],
      "stateMutability": "nonpayable",
      "type": "function"
    },
    {
      "inputs": [],
      "name": "proxiableUUID",
      "outputs": [
        {
          "internalType": "bytes32",
          "name": "",
          "type": "bytes32"
        }
      ],
      "stateMutability": "view",
      "type": "function"
    },
    {
      "inputs": [
        {
          "internalType": "string",
          "name": "newVersion",
          "type": "string"
        },
        {
          "internalType": "string",
          "name": "notes",
          "type": "string"
        }
      ],
      "name": "recordUpgrade",
      "outputs": [],
      "stateMutability": "nonpayable",
      "type": "function"
    },
    {
      "inputs": [
        {
          "internalType": "bytes32",
          "name": "role",
          "type": "bytes32"
        },
        {
          "internalType": "address",
          "name": "callerConfirmation",
          "type": "address"
        }
      ],
      "name": "renounceRole",
      "outputs": [],
      "stateMutability": "nonpayable",
      "type": "function"
    },
    {
      "inputs": [
        {
          "internalType": "uint256",
          "name": "certificateId",
          "type": "uint256"
        },
        {
          "internalType": "string",
          "name": "reason",
          "type": "string"
        }
      ],
      "name": "revokeCertificate",
      "outputs": [],
      "stateMutability": "nonpayable",
      "type": "function"
    },
    {
      "inputs": [
        {
          "internalType": "bytes32",
          "name": "role",
          "type": "bytes32"
        },
        {
          "internalType": "address",
          "name": "account",
          "type": "address"
        }
      ],
      "name": "revokeRole",
      "outputs": [],
      "stateMutability": "nonpayable",
      "type": "function"
    },
    {
      "inputs": [
        {
          "internalType": "address",
          "name": "_institutionRegistry",
          "type": "address"
        }
      ],
      "name": "setInstitutionRegistry",
      "outputs": [],
      "stateMutability": "nonpayable",
      "type": "function"
    },
    {
      "inputs": [
        {
          "internalType": "address",
          "name": "",
          "type": "address"
        },
        {
          "internalType": "uint256",
          "name": "",
          "type": "uint256"
        }
      ],
      "name": "studentCertificates",
      "outputs": [
        {
          "internalType": "uint256",
          "name": "",
          "type": "uint256"
        }
      ],
      "stateMutability": "view",
      "type": "function"
    },
    {
      "inputs": [
        {
          "internalType": "bytes4",
          "name": "interfaceId",
          "type": "bytes4"
        }
      ],
      "name": "supportsInterface",
      "outputs": [
        {
          "internalType": "bool",
          "name": "",
          "type": "bool"
        }
      ],
      "stateMutability": "view",
      "type": "function"
    },
    {
      "inputs": [
        {
          "internalType": "uint256",
          "name": "",
          "type": "uint256"
        }
      ],
      "name": "upgradeHistory",
      "outputs": [
        {
          "internalType": "string",
          "name": "version",
          "type": "string"
        },
        {
          "internalType": "uint256",
          "name": "timestamp",
          "type": "uint256"
        },
        {
          "internalType": "address",
          "name": "upgrader",
          "type": "address"
        },
        {
          "internalType": "string",
          "name": "notes",
          "type": "string"
        }
      ],
      "stateMutability": "view",
      "type": "function"
    },
    {
      "inputs": [
        {
          "internalType": "address",
          "name": "newImplementation",
          "type": "address"
        },
        {
          "internalType": "bytes",
          "name": "data",
          "type": "bytes"
        }
      ],
      "name": "upgradeToAndCall",
      "outputs": [],
      "stateMutability": "payable",
      "type": "function"
    }
  ],
  "bytecode": "0x60a080604052346100cc57306080527ff0c57e16840df040f15088dc2f81fe391c3923bec73e23a9662efc9c229c6a009081549060ff8260401c166100bd57506001600160401b036002600160401b031982821601610078575b60405161288590816100d2823960805181818161134d01526114590152f35b6001600160401b031990911681179091556040519081527fc7f505b2f371ae2175ee4913f4499e1f2633a7b5936321eed1cdaeb6115181d290602090a1388080610059565b63f92ee8a960e01b8152600490fd5b600080fdfe608080604052600436101561001357600080fd5b60003560e01c90816301ffc9a714611db8575080630d8e6e2c1461018a5780631b1fcb0414611d8f578063248a9ca314611d5357806329cd14bb14611ae05780632f2ff15d14611a9457806336568abe14611a4d5780634460bdd614611a24578063485cc955146116385780634f1ef2861461140a57806351640fee146113b757806352d1902d1461133a5780635b686a0a1461130557806365f8d239146112d4578063663b3e221461121757806375922c5d14610d075780637843bb7914610cc6578063843f0ab814610c9a57806390ab95cb14610bc957806391d1485414610b6f57806398f211dc146108f0578063a217fddf146108d4578063ad3cb1cc1461088e578063b1466d1d14610628578063b535b5c3146105fa578063b85176db146105b0578063c3934f0e14610558578063c5d73aeb146104fe578063d547741f146104b0578063e1a37ea514610354578063ea092518146102c9578063f171d397146101c35763ffa1ad741461018a57600080fd5b346101be5760003660031901126101be576101ba6101a6612182565b604051918291602083526020830190611e0b565b0390f35b600080fd5b346101be5760203660031901126101be576004356005548110156101be576102b190600560005260021b6101ba61021b827f036b6384b5eca791c62761152d0c79bb0604c104a5fb6f4eb0703f3154bb3db001612014565b7f036b6384b5eca791c62761152d0c79bb0604c104a5fb6f4eb0703f3154bb3db18301547f036b6384b5eca791c62761152d0c79bb0604c104a5fb6f4eb0703f3154bb3db2840154919390916001600160a01b03169061029c907f036b6384b5eca791c62761152d0c79bb0604c104a5fb6f4eb0703f3154bb3db301612014565b90604051958695608087526080870190611e0b565b92602086015260408501528382036060850152611e0b565b346101be576020806003193601126101be576001600160a01b036102eb611ee4565b1660005260028152604060002090604051808383829554938481520190600052836000209260005b8582821061033e5750505061032a92500383611f67565b6101ba6040519282849384528301906120e6565b8554845260019586019588955093019201610313565b346101be5760003660031901126101be57600554610371816121a3565b9061037f6040519283611f67565b808252602090818301908160056000527f036b6384b5eca791c62761152d0c79bb0604c104a5fb6f4eb0703f3154bb3db06000915b8383106104555750505050604051918083019381845251809452604083019360408160051b85010192916000955b8287106103ef5785850386f35b909192938280610445600193603f198a820301865288516104196080825190808552840190611e0b565b918482015185820152868060a01b03604083015116604082015260608092015191818403910152611e0b565b96019201960195929190926103e2565b60048660019260409998995161046a81611f16565b61047386612014565b81528486015483820152848060a01b03600287015416604082015261049a60038701612014565b60608201528152019201920191909594956103b4565b346101be5760403660031901126101be576104fc6004356104cf611ece565b90806000526000805160206128108339815191526020526104f760016040600020015461248e565b612698565b005b346101be5760203660031901126101be57610517611ee4565b61051f612426565b6001600160a01b03168015610546576001600160601b0360a01b6000541617600055600080f35b60405163e6c4247b60e01b8152600490fd5b346101be5760403660031901126101be57610571611ee4565b6001600160a01b03166000908152600260205260409020805460243591908210156101be576020916105a29161211a565b90546040519160031b1c8152f35b346101be5760603660031901126101be576105f06105dc6105cf611ee4565b60443590602435906122af565b6040519283926040845260408401906120e6565b9060208301520390f35b346101be5760203660031901126101be57600435600052600360205260206040600020541515604051908152f35b346101be5760403660031901126101be576001600160401b036004356024358281116101be5761065c9036906004016120b9565b909161066661271b565b806000526001926020848152604060002060048101541561087c57600681019081549160ff831661086a5760028201546001600160a01b03163314158061082c575b61081a578760089360ff191617905542600782015501958411610804576106d9846106d38854611fda565b88612212565b600095601f85116001146107815761072d85807f5ddf0e046312b29db15b9baad0a899f136ffab25f5d76ff3af1b18b94ec57e5196979899600091610776575b508160011b916000199060031b1c19161790565b90555b846040519260408452816040850152606084013760006060868401015242908201526060813395601f80199101168101030190a360008051602061283083398151915255005b90508501358a610719565b601f1985169681600052826000209060005b8981106107ef5750867f5ddf0e046312b29db15b9baad0a899f136ffab25f5d76ff3af1b18b94ec57e5196979899106107d5575b50508686811b019055610730565b840135600019600389901b60f8161c1916905587806107c7565b85820135835591880191908401908401610793565b634e487b7160e01b600052604160045260246000fd5b604051634f52869d60e11b8152600490fd5b506000805160206127f08339815191526000526000805160206128108339815191528452604060002033600052845260ff60406000205416156106a8565b604051631ba03cdd60e31b8152600490fd5b60405163761e55e760e01b8152600490fd5b346101be5760003660031901126101be576101ba6040516108ae81611f31565b60058152640352e302e360dc1b6020820152604051918291602083526020830190611e0b565b346101be5760003660031901126101be57602060405160008152f35b346101be5760403660031901126101be576001600160401b036004358181116101be576109219036906004016120b9565b91602435928184116101be5761093e61095d9436906004016120b9565b949093610949612426565b6040519261095684611f16565b3691611fa3565b815260209061097b8282019442865260408301963388523691611fa3565b946060820195865260055494600160401b861015610804576109a4600196878101600555612148565b939093610b595751805190868211610804576109ca826109c48754611fda565b87612212565b8590601f8311600114610af1579180610a0092600397969594600092610ae6575b50508160011b916000199060031b1c19161790565b83555b5186830155600282019060018060a01b039051166001600160601b0360a01b82541617905501935192835192831161080457610a43836109c48754611fda565b81601f8411600114610a825750508190610a7393600092610a775750508160011b916000199060031b1c19161790565b9055005b0151905084806109eb565b91909383601f1981168760005284600020946000905b88838310610acc5750505010610ab3575b505050811b019055005b015160001960f88460031b161c19169055838080610aa9565b858701518855909601959485019487935090810190610a98565b015190508b806109eb565b949392918891601f1982169086600052886000209160005b8a828210610b43575050978360039910610b2b575b505050811b018355610a03565b015160001983891b60f8161c191690558a8080610b1e565b838b015185558d96909401939283019201610b09565b634e487b7160e01b600052600060045260246000fd5b346101be5760403660031901126101be57610b88611ece565b60043560005260008051602061281083398151915260205260406000209060018060a01b0316600052602052602060ff604060002054166040519015158152f35b346101be576020806003193601126101be57610be36121ba565b5060043560005260038152604060002054801561087c5760005260018152604060002090610c80600860405193610c1985611efa565b8054855260018101546001600160a01b039081168587015260028201541660408601526003810154606086015260048101546080860152610c5c60058201612014565b60a086015260ff600682015416151560c0860152600781015460e086015201612014565b6101008301526101ba604051928284938452830190611e4b565b346101be5760203660031901126101be5760043560005260036020526020604060002054604051908152f35b346101be5760003660031901126101be576004546000198101908111610cf157602090604051908152f35b634e487b7160e01b600052601160045260246000fd5b346101be5760603660031901126101be57610d20611ece565b6044356001600160401b0381116101be57610d3f9036906004016120b9565b610d4761271b565b6001600160a01b0383161561120557600435156111f357600054604051630de1c3c960e31b815233600482015290602090829060249082906001600160a01b03165afa90811561108e576000916111b8575b50156111a657600435600052600360205260406000205461119457610e0260045492610dc4846122a0565b60045560405192610dd484611efa565b60043584526001600160a01b0386166020850152336040850152426060850152608084018590523691611fa3565b60a0820152600060c0820152600060e0820152604051610e2181611f4c565b60008152610100820152816000526001602052604060002090805182556001820160018060a01b03602083015116906001600160601b0360a01b9182825416179055600283019060018060a01b0360408401511690825416179055606081015160038301556080810151600483015560a08101518051906001600160401b03821161080457610ec082610eb76005870154611fda565b60058701612212565b602090601f8311600114611120579180610ef59261010095946000926111155750508160011b916000199060031b1c19161790565b60058401555b6006830160c0820151151560ff8019835416911617905560e0810151600784015501518051906001600160401b03821161080457610f4982610f406008860154611fda565b60088601612212565b602090601f83116001146110a5579180610f7c9260089460009261109a5750508160011b916000199060031b1c19161790565b9101555b6001600160a01b03821660009081526002602052604090208054600160401b81101561080457610fb59160018201815561211a565b81549060031b9083821b91600019901b191617905560043560005260036020528060406000205560018060a01b036000541691823b156101be576000809360246040518096819363f466fe1360e01b83523360048401525af1801561108e57611075575b6020925060405190338252428483015260018060a01b031690827f2975a491763b4b20a2b13ec55e40ce297a6bae13acf955dbe1991f1db30d31d1604060043593a4600160008051602061283083398151915255604051908152f35b6001600160401b03831161080457602092604052611019565b6040513d6000823e3d90fd5b0151905087806109eb565b906008840160005260206000209160005b601f19851681106110fd5750918391600193600895601f198116106110e4575b505050811b01910155610f80565b015160001960f88460031b161c191690558680806110d6565b919260206001819286850151815501940192016110b6565b0151905088806109eb565b906005850160005260206000209160005b601f198516811061117c57509183916001936101009695601f19811610611163575b505050811b016005840155610efb565b015160001960f88460031b161c19169055878080611153565b91926020600181928685015181550194019201611131565b604051635a0e33b560e01b8152600490fd5b604051635a0dd16b60e11b8152600490fd5b90506020813d6020116111eb575b816111d360209383611f67565b810103126101be575180151581036101be5784610d99565b3d91506111c6565b604051630c96ccbb60e11b8152600490fd5b604051631186b0dd60e21b8152600490fd5b346101be5760203660031901126101be576004356000526001602052604060002080546101ba60018060a01b03918260018501541692600285015416936003810154906112b960048201549361126f60058401612014565b9060ff6006850154169561128a600860078701549601612014565b956040519a8b9a610120948c5260208c015260408b015260608a015260808901528060a0890152870190611e0b565b92151560c086015260e0850152838203610100850152611e0b565b346101be5760203660031901126101be57600435600052600160205260206004604060002001541515604051908152f35b346101be5760203660031901126101be576060611323600435612268565b906040519215158352602083015215156040820152f35b346101be5760003660031901126101be577f00000000000000000000000000000000000000000000000000000000000000006001600160a01b031630036113a55760206040517f360894a13ba1a3210667c828492db98dca3e2076cc3735a920a3ca505d382bbc8152f35b60405163703e46dd60e11b8152600490fd5b346101be576020806003193601126101be576004356113d46121ba565b5080600052600182526004604060002001541561087c5760005260018152604060002090610c80600860405193610c1985611efa565b60403660031901126101be5761141e611ee4565b6024356001600160401b0381116101be57366023820112156101be5761144e903690602481600401359101611fa3565b906001600160a01b037f0000000000000000000000000000000000000000000000000000000000000000811630811490811561160a575b506113a557611492612426565b6040516352d1902d60e01b8152908216916020918281600481875afa600091816115db575b506114d557604051634c9c8ce360e01b815260048101859052602490fd5b9284937f360894a13ba1a3210667c828492db98dca3e2076cc3735a920a3ca505d382bbc908181036115c35750823b156115aa5780546001600160a01b03191682179055604051907fbc7cd75a20ee27fd9adebab32041f755214dbc6bffa90cc0225b39da2e5c2d3b600080a2835115611590575060008084846104fc96519101845af4903d15611587573d61156a81611f88565b906115786040519283611f67565b8152600081943d92013e61278c565b6060925061278c565b925050503461159b57005b63b398979f60e01b8152600490fd5b604051634c9c8ce360e01b815260048101839052602490fd5b60249060405190632a87526960e21b82526004820152fd5b9091508381813d8311611603575b6115f38183611f67565b810103126101be575190866114b7565b503d6115e9565b9050817f360894a13ba1a3210667c828492db98dca3e2076cc3735a920a3ca505d382bbc5416141584611485565b346101be5760403660031901126101be57611651611ee4565b611659611ece565b907ff0c57e16840df040f15088dc2f81fe391c3923bec73e23a9662efc9c229c6a00908154926001600160401b03841680159081611a14575b6001149081611a0a575b159081611a01575b506119ef5760016001600160401b0319851617835560ff8460401c16156119d0575b6001600160a01b03821615610546576001600160a01b03169081156105465761172a906116f161274b565b6116f961274b565b61170161274b565b61170961274b565b600160008051602061283083398151915255611724816124c1565b50612561565b506001600160601b0360a01b6000541617600055600160045561174b612182565b916040519261175984611f16565b835242602084015233604084015260405161177381611f31565b6012815271125b9a5d1a585b0819195c1b1bde5b595b9d60721b60208201526060840152600554600160401b811015610804578060016117b69201600555612148565b610b595783518051906001600160401b038211610804576117e1826117db8554611fda565b85612212565b602090601f8311600114611962578260039360609593611817936000926119575750508160011b916000199060031b1c19161790565b81555b602086015160018201556002810160018060a01b036040880151166001600160601b0360a01b825416179055019301519283516001600160401b0381116108045761186f816118698454611fda565b84612212565b6020601f82116001146118ed5790806118a29260ff969760009261109a5750508160011b916000199060031b1c19161790565b90555b60401c16156118b057005b68ff00000000000000001981541690557fc7f505b2f371ae2175ee4913f4499e1f2633a7b5936321eed1cdaeb6115181d2602060405160018152a1005b601f198216958360005260206000209660005b81811061193f57509160ff969791846001959410611926575b505050811b0190556118a5565b015160001960f88460031b161c19169055868080611919565b83830151895560019098019760209384019301611900565b0151905089806109eb565b908360005260206000209160005b601f19851681106119b85750926060949260019260039583601f198116106119a0575b505050811b01815561181a565b015160001983871b60f8161c19169055888080611993565b91926020600181928685015181550194019201611970565b68ffffffffffffffffff198416680100000000000000011783556116c6565b60405163f92ee8a960e01b8152600490fd5b905015856116a4565b303b15915061169c565b604086901c60ff16159150611692565b346101be5760003660031901126101be5760206040516000805160206127f08339815191528152f35b346101be5760403660031901126101be57611a66611ece565b336001600160a01b03821603611a82576104fc90600435612698565b60405163334bd91960e11b8152600490fd5b346101be5760403660031901126101be576104fc600435611ab3611ece565b9080600052600080516020612810833981519152602052611adb60016040600020015461248e565b612611565b346101be576020806003193601126101be57600435906001600160401b038083116101be57366023840112156101be5782600401359081116101be576024916005913660248260051b870101116101be57611b3e81959493956121a3565b94611b4c6040519687611f67565b818652611b58826121a3565b601f199490850160005b818110611d35575050611b74836121a3565b95611b826040519788611f67565b838752611b8e846121a3565b878601960136873760005b848110611c465750505050506040519384936040850160408652825180915260608601908460608260051b8901019401916000905b828210611c1457505050508482038584015251808252908201929160005b828110611bfb57505050500390f35b8351151585528695509381019392810192600101611bec565b9193946001919397985086611c348192605f198d82030186528a51611e4b565b98019201920188979694939192611bce565b8083600192869b999a9b1b840101358060005282908189526004604060002001541515600014611d21576000528088526040600020611cef600860405192611c8d84611efa565b80548452868060a01b038086830154168d86015260028201541660408501526003810154606085015260048101546080850152611ccb8a8201612014565b60a085015260ff600682015416151560c0850152600781015460e085015201612014565b610100820152611cff838b6121fe565b52611d0a828a6121fe565b50611d15828c6121fe565b525b0197969597611b99565b50506000611d2f828c6121fe565b52611d17565b8590611d43999798996121ba565b82828a0101520197969597611b62565b346101be5760203660031901126101be576004356000526000805160206128108339815191526020526020600160406000200154604051908152f35b346101be5760003660031901126101be576000546040516001600160a01b039091168152602090f35b346101be5760203660031901126101be576004359063ffffffff60e01b82168092036101be57602091637965db0b60e01b8114908115611dfa575b5015158152f35b6301ffc9a760e01b14905083611df3565b919082519283825260005b848110611e37575050826000602080949584010152601f8019910116010190565b602081830181015184830182015201611e16565b90611ecb91611ea161012082518452602083015160018060a01b0380911660208601526040840151166040850152606083015160608501526080830151608085015260a0830151908060a0860152840190611e0b565b9160c0820151151560c082015260e082015160e08201526101008092015191818403910152611e0b565b90565b602435906001600160a01b03821682036101be57565b600435906001600160a01b03821682036101be57565b61012081019081106001600160401b0382111761080457604052565b608081019081106001600160401b0382111761080457604052565b604081019081106001600160401b0382111761080457604052565b602081019081106001600160401b0382111761080457604052565b90601f801991011681019081106001600160401b0382111761080457604052565b6001600160401b03811161080457601f01601f191660200190565b929192611faf82611f88565b91611fbd6040519384611f67565b8294818452818301116101be578281602093846000960137010152565b90600182811c9216801561200a575b6020831014611ff457565b634e487b7160e01b600052602260045260246000fd5b91607f1691611fe9565b9060405191826000825461202781611fda565b908184526020946001916001811690816000146120975750600114612058575b50505061205692500383611f67565b565b600090815285812095935091905b81831061207f5750506120569350820101388080612047565b85548884018501529485019487945091830191612066565b9250505061205694925060ff191682840152151560051b820101388080612047565b9181601f840112156101be578235916001600160401b0383116101be57602083818601950101116101be57565b90815180825260208080930193019160005b828110612106575050505090565b8351855293810193928101926001016120f8565b80548210156121325760005260206000200190600090565b634e487b7160e01b600052603260045260246000fd5b60055481101561213257600560005260021b7f036b6384b5eca791c62761152d0c79bb0604c104a5fb6f4eb0703f3154bb3db00190600090565b6040519061218f82611f31565b60058252640312e302e360dc1b6020830152565b6001600160401b0381116108045760051b60200190565b604051906121c782611efa565b606061010083600080825280602083015280604083015280848301528060808301528360a08301528060c083015260e08201520152565b80518210156121325760209160051b010190565b90601f811161222057505050565b6000916000526020600020906020601f850160051c8301941061225e575b601f0160051c01915b82811061225357505050565b818155600101612247565b909250829061223e565b90600091825260036020526040822054918215612298578281526001602052604090206006015460ff1680159291565b915081908190565b6000198114610cf15760010190565b926000600193600454945b8581106123e5575081808510156123c557818501808611610cf15781106123b4575b506122e6816121a3565b916040906122f76040519485611f67565b828452612303836121a3565b60209190601f1901368684013760009560009460015b8a8110806123ab575b1561239b57600081815260018652869020600201546001600160a01b038d8116911614612358575b612353906122a0565b612319565b9789811015612376575b61236e612353916122a0565b98905061234a565b9561236e612392828b61238c612353958d6121fe565b526122a0565b97915050612362565b5050975097505050509150509190565b50818710612322565b84810391508111610cf157386122dc565b955050509150506040516123d881611f4c565b6000815260003681379190565b6000818152600160205260409020600201546001600160a01b03888116911614612412575b6001016122ba565b9161241e6001916122a0565b92905061240a565b3360009081527f1bb2c9017acf0fa0e0be596646f477a7b3f104bdd8321c4e00ff770f062ffc3a60205260409020546000805160206127f08339815191529060ff16156124705750565b6044906040519063e2517d3f60e01b82523360048301526024820152fd5b8060005260008051602061281083398151915260205260406000203360005260205260ff60406000205416156124705750565b6001600160a01b031660008181527fb7db2dd08fcb62d0c9e08c51941cae53c267786a0b75803fb7960902fc8ef97d60205260408120549091906000805160206128108339815191529060ff1661255c578280526020526040822081835260205260408220600160ff1982541617905533917f2f8788117e7eff1d82e926ec794901d17c78024a50270940304540a733656f0d8180a4600190565b505090565b6001600160a01b031660008181527f1bb2c9017acf0fa0e0be596646f477a7b3f104bdd8321c4e00ff770f062ffc3a60205260408120549091906000805160206127f0833981519152906000805160206128108339815191529060ff1661260b578184526020526040832082845260205260408320600160ff198254161790557f2f8788117e7eff1d82e926ec794901d17c78024a50270940304540a733656f0d339380a4600190565b50505090565b9060009180835260008051602061281083398151915280602052604084209260018060a01b03169283855260205260ff6040852054161560001461260b578184526020526040832082845260205260408320600160ff198254161790557f2f8788117e7eff1d82e926ec794901d17c78024a50270940304540a733656f0d339380a4600190565b9060009180835260008051602061281083398151915280602052604084209260018060a01b03169283855260205260ff60408520541660001461260b57818452602052604083208284526020526040832060ff1981541690557ff6391f5c32d9c69d2a47ea670b442974b53935d1edc7fd64eb21e047a839171b339380a4600190565b60008051602061283083398151915260028154146127395760029055565b604051633ee5aeb560e01b8152600490fd5b60ff7ff0c57e16840df040f15088dc2f81fe391c3923bec73e23a9662efc9c229c6a005460401c161561277a57565b604051631afcd79f60e31b8152600490fd5b906127b357508051156127a157602081519101fd5b60405163d6bda27560e01b8152600490fd5b815115806127e6575b6127c4575090565b604051639996b31560e01b81526001600160a01b039091166004820152602490fd5b50803b156127bc56fe7613a25ecc738585a232ad50a301178f12b3ba8887d13e138b523c4269c4768902dd7bc7dec4dceedda775e58dd541e08a116c6c53815c0bd028192f7b6268009b779b17422d0df92223018b32b4d1fa46e071723d6817e2486d003becc55f00a264697066735822122005a5cc4264378b7a95305e0d97ef41898d255433859394e089bda0ba3b75149864736f6c63430008180033",
  "linkReferences": {},
  "deployedLinkReferences": {}
}