{
  "_format": "hh-sol-artifact-1",
  "contractName": "CertificateRegistry",
  "sourceName": "contracts/CertificateRegistry.sol",
  "abi": [
    {
      "inputs": [],
      "stateMutability": "nonpayable",
      "type": "constructor"
    },
    {
      "inputs": [],
      "name": "AccessControlBadConfirmation",
      "type": "error"
    },
    {
      "inputs": [
        {
          "internalType": "address",
          "name": "account",
          "type": "address"
        },
        {
          "internalType": "bytes32",
          "name": "neededRole",
          "type": "bytes32"
        }
      ],
      "name": "AccessControlUnauthorizedAccount",
      "type": "error"
    },
    {
      "inputs": [
        {
          "internalType": "address",
          "name": "target",
          "type": "address"
        }
      ],
      "name": "AddressEmptyCode",
      "type": "error"
    },
    {
      "inputs": [],
      "name": "CertificateAlreadyExists",
      "type": "error"
    },
    {
      "inputs": [],
      "name": "CertificateAlreadyRevoked",
      "type": "error"
    },
    {
      "inputs": [],
      "name": "CertificateNotFound",
      "type": "error"
    },
    {
      "inputs": [
        {
          "internalType": "address",
          "name": "implementation",
          "type": "address"
        }
      ],
      "name": "ERC1967InvalidImplementation",
      "type": "error"
    },
    {
      "inputs": [],
      "name": "ERC1967NonPayable",
      "type": "error"
    },
    {
      "inputs": [],
      "name": "FailedCall",
      "type": "error"
    },
    {
      "inputs": [],
      "name": "InvalidAddress",
      "type": "error"
    },
    {
      "inputs": [],
      "name": "InvalidDocumentHash",
      "type": "error"
    },
    {
      "inputs": [],
      "name": "InvalidInitialization",
      "type": "error"
    },
    {
      "inputs": [],
      "name": "InvalidStudentAddress",
      "type": "error"
    },
    {
      "inputs": [],
      "name": "NotCertificateIssuer",
      "type": "error"
    },
    {
      "inputs": [],
      "name": "NotInitializing",
      "type": "error"
    },
    {
      "inputs": [],
      "name": "ReentrancyGuardReentrantCall",
      "type": "error"
    },
    {
      "inputs": [],
      "name": "UUPSUnauthorizedCallContext",
      "type": "error"
    },
    {
      "inputs": [
        {
          "internalType": "bytes32",
          "name": "slot",
          "type": "bytes32"
        }
      ],
      "name": "UUPSUnsupportedProxiableUUID",
      "type": "error"
    },
    {
      "inputs": [],
      "name": "UnauthorizedIssuer",
      "type": "error"
    },
    {
      "anonymous": false,
      "inputs": [
        {
          "indexed": true,
          "internalType": "uint256",
          "name": "certificateId",
          "type": "uint256"
        },
        {
          "indexed": true,
          "internalType": "bytes32",
          "name": "documentHash",
          "type": "bytes32"
        },
        {
          "indexed": true,
          "internalType": "address",
          "name": "studentWallet",
          "type": "address"
        },
        {
          "indexed": false,
          "internalType": "address",
          "name": "issuingInstitution",
          "type": "address"
        },
        {
          "indexed": false,
          "internalType": "uint256",
          "name": "issueDate",
          "type": "uint256"
        }
      ],
      "name": "CertificateIssued",
      "type": "event"
    },
    {
      "anonymous": false,
      "inputs": [
        {
          "indexed": true,
          "internalType": "uint256",
          "name": "certificateId",
          "type": "uint256"
        },
        {
          "indexed": true,
          "internalType": "address",
          "name": "revokedBy",
          "type": "address"
        },
        {
          "indexed": false,
          "internalType": "string",
          "name": "reason",
          "type": "string"
        },
        {
          "indexed": false,
          "internalType": "uint256",
          "name": "timestamp",
          "type": "uint256"
        }
      ],
      "name": "CertificateRevoked",
      "type": "event"
    },
    {
      "anonymous": false,
      "inputs": [
        {
          "indexed": false,
          "internalType": "uint64",
          "name": "version",
          "type": "uint64"
        }
      ],
      "name": "Initialized",
      "type": "event"
    },
    {
      "anonymous": false,
      "inputs": [
        {
          "indexed": true,
          "internalType": "bytes32",
          "name": "role",
          "type": "bytes32"
        },
        {
          "indexed": true,
          "internalType": "bytes32",
          "name": "previousAdminRole",
          "type": "bytes32"
        },
        {
          "indexed": true,
          "internalType": "bytes32",
          "name": "newAdminRole",
          "type": "bytes32"
        }
      ],
      "name": "RoleAdminChanged",
      "type": "event"
    },
    {
      "anonymous": false,
      "inputs": [
        {
          "indexed": true,
          "internalType": "bytes32",
          "name": "role",
          "type": "bytes32"
        },
        {
          "indexed": true,
          "internalType": "address",
          "name": "account",
          "type": "address"
        },
        {
          "indexed": true,
          "internalType": "address",
          "name": "sender",
          "type": "address"
        }
      ],
      "name": "RoleGranted",
      "type": "event"
    },
    {
      "anonymous": false,
      "inputs": [
        {
          "indexed": true,
          "internalType": "bytes32",
          "name": "role",
          "type": "bytes32"
        },
        {
          "indexed": true,
          "internalType": "address",
          "name": "account",
          "type": "address"
        },
        {
          "indexed": true,
          "internalType": "address",
          "name": "sender",
          "type": "address"
        }
      ],
      "name": "RoleRevoked",
      "type": "event"
    },
    {
      "anonymous": false,
      "inputs": [
        {
          "indexed": true,
          "internalType": "address",
          "name": "implementation",
          "type": "address"
        }
      ],
      "name": "Upgraded",
      "type": "event"
    },
    {
      "inputs": [],
      "name": "ADMIN_ROLE",
      "outputs": [
        {
          "internalType": "bytes32",
          "name": "",
          "type": "bytes32"
        }
      ],
      "stateMutability": "view",
      "type": "function"
    },
    {
      "inputs": [],
      "name": "DEFAULT_ADMIN_ROLE",
      "outputs": [
        {
          "internalType": "bytes32",
          "name": "",
          "type": "bytes32"
        }
      ],
      "stateMutability": "view",
      "type": "function"
    },
    {
      "inputs": [],
      "name": "UPGRADE_INTERFACE_VERSION",
      "outputs": [
        {
          "internalType": "string",
          "name": "",
          "type": "string"
        }
      ],
      "stateMutability": "view",
      "type": "function"
    },
    {
      "inputs": [],
      "name": "VERSION",
      "outputs": [
        {
          "internalType": "string",
          "name": "",
          "type": "string"
        }
      ],
      "stateMutability": "view",
      "type": "function"
    },
    {
      "inputs": [
        {
          "internalType": "uint256",
          "name": "certificateId",
          "type": "uint256"
        }
      ],
      "name": "certificateExists",
      "outputs": [
        {
          "internalType": "bool",
          "name": "exists",
          "type": "bool"
        }
      ],
      "stateMutability": "view",
      "type": "function"
    },
    {
      "inputs": [
        {
          "internalType": "uint256",
          "name": "",
          "type": "uint256"
        }
      ],
      "name": "certificates",
      "outputs": [
        {
          "internalType": "bytes32",
          "name": "documentHash",
          "type": "bytes32"
        },
        {
          "internalType": "address",
          "name": "studentWallet",
          "type": "address"
        },
        {
          "internalType": "address",
          "name": "issuingInstitution",
          "type": "address"
        },
        {
          "internalType": "uint256",
          "name": "issueDate",
          "type": "uint256"
        },
        {
          "internalType": "uint256",
          "name": "certificateId",
          "type": "uint256"
        },
        {
          "internalType": "string",
          "name": "metadataURI",
          "type": "string"
        },
        {
          "internalType": "bool",
          "name": "isRevoked",
          "type": "bool"
        },
        {
          "internalType": "uint256",
          "name": "revokedAt",
          "type": "uint256"
        },
        {
          "internalType": "string",
          "name": "revocationReason",
          "type": "string"
        },
        {
          "internalType": "uint16",
          "name": "graduationYear",
          "type": "uint16"
        }
      ],
      "stateMutability": "view",
      "type": "function"
    },
    {
      "inputs": [
        {
          "internalType": "uint256",
          "name": "certificateId",
          "type": "uint256"
        }
      ],
      "name": "getCertificate",
      "outputs": [
        {
          "components": [
            {
              "internalType": "bytes32",
              "name": "documentHash",
              "type": "bytes32"
            },
            {
              "internalType": "address",
              "name": "studentWallet",
              "type": "address"
            },
            {
              "internalType": "address",
              "name": "issuingInstitution",
              "type": "address"
            },
            {
              "internalType": "uint256",
              "name": "issueDate",
              "type": "uint256"
            },
            {
              "internalType": "uint256",
              "name": "certificateId",
              "type": "uint256"
            },
            {
              "internalType": "string",
              "name": "metadataURI",
              "type": "string"
            },
            {
              "internalType": "bool",
              "name": "isRevoked",
              "type": "bool"
            },
            {
              "internalType": "uint256",
              "name": "revokedAt",
              "type": "uint256"
            },
            {
              "internalType": "string",
              "name": "revocationReason",
              "type": "string"
            },
            {
              "internalType": "uint16",
              "name": "graduationYear",
              "type": "uint16"
            }
          ],
          "internalType": "struct ICertificateRegistry.Certificate",
          "name": "",
          "type": "tuple"
        }
      ],
      "stateMutability": "view",
      "type": "function"
    },
    {
      "inputs": [
        {
          "internalType": "bytes32",
          "name": "documentHash",
          "type": "bytes32"
        }
      ],
      "name": "getCertificateByHash",
      "outputs": [
        {
          "components": [
            {
              "internalType": "bytes32",
              "name": "documentHash",
              "type": "bytes32"
            },
            {
              "internalType": "address",
              "name": "studentWallet",
              "type": "address"
            },
            {
              "internalType": "address",
              "name": "issuingInstitution",
              "type": "address"
            },
            {
              "internalType": "uint256",
              "name": "issueDate",
              "type": "uint256"
            },
            {
              "internalType": "uint256",
              "name": "certificateId",
              "type": "uint256"
            },
            {
              "internalType": "string",
              "name": "metadataURI",
              "type": "string"
            },
            {
              "internalType": "bool",
              "name": "isRevoked",
              "type": "bool"
            },
            {
              "internalType": "uint256",
              "name": "revokedAt",
              "type": "uint256"
            },
            {
              "internalType": "string",
              "name": "revocationReason",
              "type": "string"
            },
            {
              "internalType": "uint16",
              "name": "graduationYear",
              "type": "uint16"
            }
          ],
          "internalType": "struct ICertificateRegistry.Certificate",
          "name": "",
          "type": "tuple"
        }
      ],
      "stateMutability": "view",
      "type": "function"
    },
    {
      "inputs": [
        {
          "internalType": "uint256[]",
          "name": "certificateIds",
          "type": "uint256[]"
        }
      ],
      "name": "getCertificatesBatch",
      "outputs": [
        {
          "components": [
            {
              "internalType": "bytes32",
              "name": "documentHash",
              "type": "bytes32"
            },
            {
              "internalType": "address",
              "name": "studentWallet",
              "type": "address"
            },
            {
              "internalType": "address",
              "name": "issuingInstitution",
              "type": "address"
            },
            {
              "internalType": "uint256",
              "name": "issueDate",
              "type": "uint256"
            },
            {
              "internalType": "uint256",
              "name": "certificateId",
              "type": "uint256"
            },
            {
              "internalType": "string",
              "name": "metadataURI",
              "type": "string"
            },
            {
              "internalType": "bool",
              "name": "isRevoked",
              "type": "bool"
            },
            {
              "internalType": "uint256",
              "name": "revokedAt",
              "type": "uint256"
            },
            {
              "internalType": "string",
              "name": "revocationReason",
              "type": "string"
            },
            {
              "internalType": "uint16",
              "name": "graduationYear",
              "type": "uint16"
            }
          ],
          "internalType": "struct ICertificateRegistry.Certificate[]",
          "name": "certificates_",
          "type": "tuple[]"
        },
        {
          "internalType": "bool[]",
          "name": "foundFlags",
          "type": "bool[]"
        }
      ],
      "stateMutability": "view",
      "type": "function"
    },
    {
      "inputs": [
        {
          "internalType": "address",
          "name": "institution",
          "type": "address"
        },
        {
          "internalType": "uint256",
          "name": "offset",
          "type": "uint256"
        },
        {
          "internalType": "uint256",
          "name": "limit",
          "type": "uint256"
        }
      ],
      "name": "getCertificatesByInstitution",
      "outputs": [
        {
          "internalType": "uint256[]",
          "name": "certificateIds",
          "type": "uint256[]"
        },
        {
          "internalType": "uint256",
          "name": "total",
          "type": "uint256"
        }
      ],
      "stateMutability": "view",
      "type": "function"
    },
    {
      "inputs": [
        {
          "internalType": "address",
          "name": "studentWallet",
          "type": "address"
        }
      ],
      "name": "getCertificatesByStudent",
      "outputs": [
        {
          "internalType": "uint256[]",
          "name": "",
          "type": "uint256[]"
        }
      ],
      "stateMutability": "view",
      "type": "function"
    },
    {
      "inputs": [
        {
          "internalType": "bytes32",
          "name": "role",
          "type": "bytes32"
        }
      ],
      "name": "getRoleAdmin",
      "outputs": [
        {
          "internalType": "bytes32",
          "name": "",
          "type": "bytes32"
        }
      ],
      "stateMutability": "view",
      "type": "function"
    },
    {
      "inputs": [],
      "name": "getTotalCertificates",
      "outputs": [
        {
          "internalType": "uint256",
          "name": "",
          "type": "uint256"
        }
      ],
      "stateMutability": "view",
      "type": "function"
    },
    {
      "inputs": [],
      "name": "getUpgradeHistory",
      "outputs": [
        {
          "components": [
            {
              "internalType": "string",
              "name": "version",
              "type": "string"
            },
            {
              "internalType": "uint256",
              "name": "timestamp",
              "type": "uint256"
            },
            {
              "internalType": "address",
              "name": "upgrader",
              "type": "address"
            },
            {
              "internalType": "string",
              "name": "notes",
              "type": "string"
            }
          ],
          "internalType": "struct CertificateRegistry.UpgradeInfo[]",
          "name": "",
          "type": "tuple[]"
        }
      ],
      "stateMutability": "view",
      "type": "function"
    },
    {
      "inputs": [],
      "name": "getVersion",
      "outputs": [
        {
          "internalType": "string",
          "name": "",
          "type": "string"
        }
      ],
      "stateMutability": "pure",
      "type": "function"
    },
    {
      "inputs": [
        {
          "internalType": "bytes32",
          "name": "role",
          "type": "bytes32"
        },
        {
          "internalType": "address",
          "name": "account",
          "type": "address"
        }
      ],
      "name": "grantRole",
      "outputs": [],
      "stateMutability": "nonpayable",
      "type": "function"
    },
    {
      "inputs": [
        {
          "internalType": "bytes32",
          "name": "role",
          "type": "bytes32"
        },
        {
          "internalType": "address",
          "name": "account",
          "type": "address"
        }
      ],
      "name": "hasRole",
      "outputs": [
        {
          "internalType": "bool",
          "name": "",
          "type": "bool"
        }
      ],
      "stateMutability": "view",
      "type": "function"
    },
    {
      "inputs": [
        {
          "internalType": "bytes32",
          "name": "documentHash",
          "type": "bytes32"
        }
      ],
      "name": "hashExists",
      "outputs": [
        {
          "internalType": "bool",
          "name": "exists",
          "type": "bool"
        }
      ],
      "stateMutability": "view",
      "type": "function"
    },
    {
      "inputs": [
        {
          "internalType": "bytes32",
          "name": "",
          "type": "bytes32"
        }
      ],
      "name": "hashToCertificateId",
      "outputs": [
        {
          "internalType": "uint256",
          "name": "",
          "type": "uint256"
        }
      ],
      "stateMutability": "view",
      "type": "function"
    },
    {
      "inputs": [
        {
          "internalType": "address",
          "name": "superAdmin",
          "type": "address"
        },
        {
          "internalType": "address",
          "name": "_institutionRegistry",
          "type": "address"
        }
      ],
      "name": "initialize",
      "outputs": [],
      "stateMutability": "nonpayable",
      "type": "function"
    },
    {
      "inputs": [],
      "name": "institutionRegistry",
      "outputs": [
        {
          "internalType": "contract IInstitutionRegistry",
          "name": "",
          "type": "address"
        }
      ],
      "stateMutability": "view",
      "type": "function"
    },
    {
      "inputs": [
        {
          "internalType": "bytes32",
          "name": "documentHash",
          "type": "bytes32"
        }
      ],
      "name": "isValidCertificate",
      "outputs": [
        {
          "internalType": "bool",
          "name": "isValid",
          "type": "bool"
        },
        {
          "internalType": "uint256",
          "name": "certificateId",
          "type": "uint256"
        },
        {
          "internalType": "bool",
          "name": "isRevoked",
          "type": "bool"
        }
      ],
      "stateMutability": "view",
      "type": "function"
    },
    {
      "inputs": [
        {
          "internalType": "bytes32",
          "name": "documentHash",
          "type": "bytes32"
        },
        {
          "internalType": "address",
          "name": "studentWallet",
          "type": "address"
        },
        {
          "internalType": "string",
          "name": "metadataURI",
          "type": "string"
        },
        {
          "internalType": "uint16",
          "name": "graduationYear",
          "type": "uint16"
        }
      ],
      "name": "issueCertificate",
      "outputs": [
        {
          "internalType": "uint256",
          "name": "",
          "type": "uint256"
        }
      ],
      "stateMutability": "nonpayable",
      "type": "function"
    },
    {
      "inputs": [
        {
          "internalType": "bytes32[]",
          "name": "documentHashes",
          "type": "bytes32[]"
        },
        {
          "internalType": "address[]",
          "name": "studentWallets",
          "type": "address[]"
        },
        {
          "internalType": "string[]",
          "name": "metadataURIs",
          "type": "string[]"
        },
        {
          "internalType": "uint16[]",
          "name": "graduationYears",
          "type": "uint16[]"
        }
      ],
      "name": "issueCertificatesBatch",
      "outputs": [
        {
          "internalType": "uint256[]",
          "name": "",
          "type": "uint256[]"
        }
      ],
      "stateMutability": "nonpayable",
      "type": "function"
    },
    {
      "inputs": [],
      "name": "proxiableUUID",
      "outputs": [
        {
          "internalType": "bytes32",
          "name": "",
          "type": "bytes32"
        }
      ],
      "stateMutability": "view",
      "type": "function"
    },
    {
      "inputs": [
        {
          "internalType": "string",
          "name": "newVersion",
          "type": "string"
        },
        {
          "internalType": "string",
          "name": "notes",
          "type": "string"
        }
      ],
      "name": "recordUpgrade",
      "outputs": [],
      "stateMutability": "nonpayable",
      "type": "function"
    },
    {
      "inputs": [
        {
          "internalType": "bytes32",
          "name": "role",
          "type": "bytes32"
        },
        {
          "internalType": "address",
          "name": "callerConfirmation",
          "type": "address"
        }
      ],
      "name": "renounceRole",
      "outputs": [],
      "stateMutability": "nonpayable",
      "type": "function"
    },
    {
      "inputs": [
        {
          "internalType": "uint256",
          "name": "certificateId",
          "type": "uint256"
        },
        {
          "internalType": "string",
          "name": "reason",
          "type": "string"
        }
      ],
      "name": "revokeCertificate",
      "outputs": [],
      "stateMutability": "nonpayable",
      "type": "function"
    },
    {
      "inputs": [
        {
          "internalType": "bytes32",
          "name": "role",
          "type": "bytes32"
        },
        {
          "internalType": "address",
          "name": "account",
          "type": "address"
        }
      ],
      "name": "revokeRole",
      "outputs": [],
      "stateMutability": "nonpayable",
      "type": "function"
    },
    {
      "inputs": [
        {
          "internalType": "address",
          "name": "_institutionRegistry",
          "type": "address"
        }
      ],
      "name": "setInstitutionRegistry",
      "outputs": [],
      "stateMutability": "nonpayable",
      "type": "function"
    },
    {
      "inputs": [
        {
          "internalType": "address",
          "name": "",
          "type": "address"
        },
        {
          "internalType": "uint256",
          "name": "",
          "type": "uint256"
        }
      ],
      "name": "studentCertificates",
      "outputs": [
        {
          "internalType": "uint256",
          "name": "",
          "type": "uint256"
        }
      ],
      "stateMutability": "view",
      "type": "function"
    },
    {
      "inputs": [
        {
          "internalType": "bytes4",
          "name": "interfaceId",
          "type": "bytes4"
        }
      ],
      "name": "supportsInterface",
      "outputs": [
        {
          "internalType": "bool",
          "name": "",
          "type": "bool"
        }
      ],
      "stateMutability": "view",
      "type": "function"
    },
    {
      "inputs": [
        {
          "internalType": "uint256",
          "name": "",
          "type": "uint256"
        }
      ],
      "name": "upgradeHistory",
      "outputs": [
        {
          "internalType": "string",
          "name": "version",
          "type": "string"
        },
        {
          "internalType": "uint256",
          "name": "timestamp",
          "type": "uint256"
        },
        {
          "internalType": "address",
          "name": "upgrader",
          "type": "address"
        },
        {
          "internalType": "string",
          "name": "notes",
          "type": "string"
        }
      ],
      "stateMutability": "view",
      "type": "function"
    },
    {
      "inputs": [
        {
          "internalType": "address",
          "name": "newImplementation",
          "type": "address"
        },
        {
          "internalType": "bytes",
          "name": "data",
          "type": "bytes"
        }
      ],
      "name": "upgradeToAndCall",
      "outputs": [],
      "stateMutability": "payable",
      "type": "function"
    }
  ],
  "bytecode": "0x60a080604052346100cd57306080527ff0c57e16840df040f15088dc2f81fe391c3923bec73e23a9662efc9c229c6a009081549060ff8260401c166100be57506001600160401b036002600160401b031982821601610079575b604051612f4c9081620000d382396080518181816111e701526112f30152f35b6001600160401b031990911681179091556040519081527fc7f505b2f371ae2175ee4913f4499e1f2633a7b5936321eed1cdaeb6115181d290602090a1388080610059565b63f92ee8a960e01b8152600490fd5b600080fdfe608080604052600436101561001357600080fd5b60003560e01c90816301ffc9a7146120e2575080630d8e6e2c146101955780631b1fcb04146120b95780632365db3f146119f2578063248a9ca3146119b657806329cd14bb146117575780632f2ff15d1461170b57806336568abe146116c4578063485cc955146114d25780634f1ef286146112a457806351640fee1461125157806352d1902d146111d45780635b686a0a1461119f57806365f8d2391461116e578063663b3e221461109d57806375b238fc146110745780637843bb7914611033578063843f0ab81461100757806390ab95cb14610f2757806391d1485414610ecd57806398f211dc14610e3a578063a217fddf14610e1e578063ad3cb1cc14610dd8578063af380c4014610899578063b1466d1d14610633578063b535b5c314610605578063b85176db146105bb578063c3934f0e14610563578063c5d73aeb14610509578063d547741f146104bb578063e1a37ea51461035f578063ea092518146102d4578063f171d397146101ce5763ffa1ad741461019557600080fd5b346101c95760003660031901126101c9576101c56101b16124ad565b604051918291602083526020830190612135565b0390f35b600080fd5b346101c95760203660031901126101c9576004356005548110156101c9576102bc90600560005260021b6101c5610226827f036b6384b5eca791c62761152d0c79bb0604c104a5fb6f4eb0703f3154bb3db0016123c3565b7f036b6384b5eca791c62761152d0c79bb0604c104a5fb6f4eb0703f3154bb3db18301547f036b6384b5eca791c62761152d0c79bb0604c104a5fb6f4eb0703f3154bb3db2840154919390916001600160a01b0316906102a7907f036b6384b5eca791c62761152d0c79bb0604c104a5fb6f4eb0703f3154bb3db3016123c3565b90604051958695608087526080870190612135565b92602086015260408501528382036060850152612135565b346101c9576020806003193601126101c9576001600160a01b036102f6612280565b1660005260028152604060002090604051808383829554938481520190600052836000209260005b858282106103495750505061033592500383612316565b6101c56040519282849384528301906121a5565b855484526001958601958895509301920161031e565b346101c95760003660031901126101c95760055461037c816124e6565b9061038a6040519283612316565b808252602090818301908160056000527f036b6384b5eca791c62761152d0c79bb0604c104a5fb6f4eb0703f3154bb3db06000915b8383106104605750505050604051918083019381845251809452604083019360408160051b85010192916000955b8287106103fa5785850386f35b909192938280610450600193603f198a820301865288516104246080825190808552840190612135565b918482015185820152868060a01b03604083015116604082015260608092015191818403910152612135565b96019201960195929190926103ed565b600486600192604099989951610475816122c5565b61047e866123c3565b81528486015483820152848060a01b0360028701541660408201526104a5600387016123c3565b60608201528152019201920191909594956103bf565b346101c95760403660031901126101c9576105076004356104da61226a565b9080600052600080516020612eb7833981519152602052610502600160406000200154612b85565b612d8f565b005b346101c95760203660031901126101c957610522612280565b61052a612b1d565b6001600160a01b03168015610551576001600160601b0360a01b6000541617600055600080f35b60405163e6c4247b60e01b8152600490fd5b346101c95760403660031901126101c95761057c612280565b6001600160a01b03166000908152600260205260409020805460243591908210156101c9576020916105ad91612495565b90546040519160031b1c8152f35b346101c95760603660031901126101c9576105fb6105e76105da612280565b604435906024359061299f565b6040519283926040845260408401906121a5565b9060208301520390f35b346101c95760203660031901126101c957600435600052600360205260206040600020541515604051908152f35b346101c95760403660031901126101c9576001600160401b036004356024358281116101c957610667903690600401612468565b9091610671612aed565b806000526001926020848152604060002060048101541561088757600681019081549160ff83166108755760028201546001600160a01b031633141580610837575b610825578760089360ff19161790554260078201550195841161080f576106e4846106de8854612389565b886125dc565b600095601f851160011461078c5761073885807f5ddf0e046312b29db15b9baad0a899f136ffab25f5d76ff3af1b18b94ec57e5196979899600091610781575b508160011b916000199060031b1c19161790565b90555b846040519260408452816040850152606084013760006060868401015242908201526060813395601f80199101168101030190a3600080516020612ed783398151915255005b90508501358a610724565b601f1985169681600052826000209060005b8981106107fa5750867f5ddf0e046312b29db15b9baad0a899f136ffab25f5d76ff3af1b18b94ec57e5196979899106107e0575b50508686811b01905561073b565b840135600019600389901b60f8161c1916905587806107d2565b8582013583559188019190840190840161079e565b634e487b7160e01b600052604160045260246000fd5b604051634f52869d60e11b8152600490fd5b50600080516020612ef7833981519152600052600080516020612eb78339815191528452604060002033600052845260ff60406000205416156106b3565b604051631ba03cdd60e31b8152600490fd5b60405163761e55e760e01b8152600490fd5b346101c95760803660031901126101c9576108b261226a565b6044356001600160401b0381116101c9576108d1903690600401612468565b60643561ffff811681036101c9576108e7612aed565b6001600160a01b03841615610dc65760043515610db45761076c61ffff8216101580610da4575b61091790612562565b600054604051630de1c3c960e31b815233600482015290602090829060249082906001600160a01b03165afa908115610c4457600091610d75575b5015610d63576004356000526003602052604060002054610d515761ffff906109bf60045494610981866125cd565b6004556040519461099186612296565b60043586526001600160a01b0388166020870152336040870152426060870152608086018790523691612352565b60a0840152600060c0840152600060e08401526040516109de816122e0565b60008152610100840152166101208201528160005260016020526040600020815181556001810160018060a01b03602084015116906001600160601b0360a01b9182825416179055600282019060018060a01b0360408501511690825416179055606082015160038201556080820151600482015560a08201518051906001600160401b03821161080f57610a8382610a7a6005860154612389565b600586016125dc565b602090601f8311600114610cdf57610ab4929160009183610cd4575b50508160011b916000199060031b1c19161790565b60058201555b610ad960c08301511515600683019060ff801983541691151516179055565b60e082015160078201556101008201518051906001600160401b03821161080f57610b1482610b0b6008860154612389565b600886016125dc565b602090601f8311600114610c5b5792610b4e836101209460099461ffff97600092610c505750508160011b916000199060031b1c19161790565b60088201555b019201511661ffff1982541617905560018060a01b0382166000526002602052610b82816040600020612632565b6004356000908152600360205260408120829055546001600160a01b031691823b156101c9576000809360246040518096819363f466fe1360e01b83523360048401525af1928315610c4457602093610c35575b50604080513381524260208201526001600160a01b0392909216916004359184917f2975a491763b4b20a2b13ec55e40ce297a6bae13acf955dbe1991f1db30d31d19190a46001600080516020612ed783398151915255604051908152f35b610c3e906122b2565b83610bd6565b6040513d6000823e3d90fd5b015190508a80610a9f565b906008840160005260206000209160005b601f1985168110610cbc57508360099361ffff969360019361012097601f19811610610ca3575b505050811b016008820155610b54565b015160001960f88460031b161c19169055898080610c93565b91926020600181928685015181550194019201610c6c565b015190508780610a9f565b9190600584016000526020600020906000935b601f1984168510610d36576001945083601f19811610610d1d575b505050811b016005820155610aba565b015160001960f88460031b161c19169055868080610d0d565b81810151835560209485019460019093019290910190610cf2565b604051635a0e33b560e01b8152600490fd5b604051635a0dd16b60e11b8152600490fd5b610d97915060203d602011610d9d575b610d8f8183612316565b8101906124ce565b85610952565b503d610d85565b5061083461ffff8216111561090e565b604051630c96ccbb60e11b8152600490fd5b604051631186b0dd60e21b8152600490fd5b346101c95760003660031901126101c9576101c5604051610df8816122fb565b60058152640352e302e360dc1b6020820152604051918291602083526020830190612135565b346101c95760003660031901126101c957602060405160008152f35b346101c95760403660031901126101c9576001600160401b036004358181116101c957610e6b903690600401612468565b90916024359081116101c95761050792610eae610e8f610ec3933690600401612468565b919092610e9a612b1d565b60405195610ea7876122c5565b3691612352565b84524260208501523360408501523691612352565b60608201526126c9565b346101c95760403660031901126101c957610ee661226a565b600435600052600080516020612eb783398151915260205260406000209060018060a01b0316600052602052602060ff604060002054166040519015158152f35b346101c9576020806003193601126101c957610f4161267b565b50600435600052600381526040600020548015610887576000526001815260406000209061ffff600960405193610f7785612296565b8054855260018101546001600160a01b039081168587015260028201541660408601526003810154606086015260048101546080860152610fba600582016123c3565b60a086015260ff600682015416151560c0860152600781015460e0860152610fe4600882016123c3565b6101008601520154166101208301526101c56040519282849384528301906121d9565b346101c95760203660031901126101c95760043560005260036020526020604060002054604051908152f35b346101c95760003660031901126101c957600454600019810190811161105e57602090604051908152f35b634e487b7160e01b600052601160045260246000fd5b346101c95760003660031901126101c9576020604051600080516020612ef78339815191528152f35b346101c95760203660031901126101c9576004356000526001602052604060002080549060018060a01b039061116382600183015416926002830154169360038301549260048101546111486110f5600584016123c3565b60ff6006850154169460078501549361ffff6009611115600889016123c3565b97015416986040519b8c9b610140948d5260208d015260408c015260608b015260808a01528060a08a0152880190612135565b92151560c087015260e0860152848203610100860152612135565b906101208301520390f35b346101c95760203660031901126101c957600435600052600160205260206004604060002001541515604051908152f35b346101c95760203660031901126101c95760606111bd600435612967565b906040519215158352602083015215156040820152f35b346101c95760003660031901126101c9577f00000000000000000000000000000000000000000000000000000000000000006001600160a01b0316300361123f5760206040517f360894a13ba1a3210667c828492db98dca3e2076cc3735a920a3ca505d382bbc8152f35b60405163703e46dd60e11b8152600490fd5b346101c9576020806003193601126101c95760043561126e61267b565b50806000526001825260046040600020015415610887576000526001815260406000209061ffff600960405193610f7785612296565b60403660031901126101c9576112b8612280565b6024356001600160401b0381116101c957366023820112156101c9576112e8903690602481600401359101612352565b906001600160a01b037f000000000000000000000000000000000000000000000000000000000000000081163081149081156114a4575b5061123f5761132c612b1d565b6040516352d1902d60e01b8152908216916020918281600481875afa60009181611475575b5061136f57604051634c9c8ce360e01b815260048101859052602490fd5b9284937f360894a13ba1a3210667c828492db98dca3e2076cc3735a920a3ca505d382bbc9081810361145d5750823b156114445780546001600160a01b03191682179055604051907fbc7cd75a20ee27fd9adebab32041f755214dbc6bffa90cc0225b39da2e5c2d3b600080a283511561142a5750600080848461050796519101845af4903d15611421573d61140481612337565b906114126040519283612316565b8152600081943d92013e612e53565b60609250612e53565b925050503461143557005b63b398979f60e01b8152600490fd5b604051634c9c8ce360e01b815260048101839052602490fd5b60249060405190632a87526960e21b82526004820152fd5b9091508381813d831161149d575b61148d8183612316565b810103126101c957519086611351565b503d611483565b9050817f360894a13ba1a3210667c828492db98dca3e2076cc3735a920a3ca505d382bbc541614158461131f565b346101c95760403660031901126101c9576114eb612280565b6114f361226a565b7ff0c57e16840df040f15088dc2f81fe391c3923bec73e23a9662efc9c229c6a009182549160ff8360401c1615926001600160401b038116801590816116bc575b60011490816116b2575b1590816116a9575b506116975767ffffffffffffffff198116600117855583611678575b506001600160a01b0390828216156105515716908115610551576115c190611588612e12565b611590612e12565b611598612e12565b6115a0612e12565b6001600080516020612ed7833981519152556115bb81612bb8565b50612c58565b506001600160601b0360a01b600054161760005560016004556116356115e56124ad565b604051906115f2826122c5565b815242602082015233604082015260405161160c816122fb565b6012815271125b9a5d1a585b0819195c1b1bde5b595b9d60721b602082015260608201526126c9565b61163b57005b68ff00000000000000001981541690557fc7f505b2f371ae2175ee4913f4499e1f2633a7b5936321eed1cdaeb6115181d2602060405160018152a1005b68ffffffffffffffffff19166801000000000000000117845584611562565b60405163f92ee8a960e01b8152600490fd5b90501586611546565b303b15915061153e565b859150611534565b346101c95760403660031901126101c9576116dd61226a565b336001600160a01b038216036116f95761050790600435612d8f565b60405163334bd91960e11b8152600490fd5b346101c95760403660031901126101c95761050760043561172a61226a565b9080600052600080516020612eb7833981519152602052611752600160406000200154612b85565b612d08565b346101c9576020806003193601126101c9576004356001600160401b0381116101c957611788903690600401612175565b90611792826124e6565b926117a06040519485612316565b8284526117ac836124e6565b601f199290830160005b8181106119985750506117c8846124e6565b936117d66040519586612316565b8085526117e2816124e6565b858401940136853760005b818110611898575050506040519384936040850160408652825180915260608601908460608260051b8901019401916000905b82821061186657505050508482038584015251808252908201929160005b82811061184d57505050500390f35b835115158552869550938101939281019260010161183e565b91939460019193979850866118868192605f198d82030186528a516121d9565b98019201920188979694939192611820565b806118aa60019284869a98999a61252f565b35600081815283875260409020600401548391901561198457600052808652604060002061ffff6009604051926118e084612296565b80548452868060a01b038086830154168b8601526002820154166040850152600381015460608501526004810154608085015261191f600582016123c3565b60a085015260ff600682015416151560c0850152600781015460e0850152611949600882016123c3565b6101008501520154166101208201526119628389612667565b5261196d8288612667565b50611978828a612667565b525b01959493956117ed565b50506000611992828a612667565b5261197a565b83906119a69795969761267b565b82828801015201959493956117b6565b346101c95760203660031901126101c957600435600052600080516020612eb78339815191526020526020600160406000200154604051908152f35b346101c95760803660031901126101c9576004356001600160401b0381116101c957611a22903690600401612175565b906024356001600160401b0381116101c957611a42903690600401612175565b6044929192356001600160401b0381116101c957611a64903690600401612175565b9290936064356001600160401b0381116101c957611a86903690600401612175565b939095611a91612aed565b8715610db457606488116120685781881480159061205e575b8015612054575b610db457600054604051630de1c3c960e31b815233600482015290602090829060249082906001600160a01b03165afa908115610c4457600091612035575b5015610d6357611aff886124fd565b9660005b898110611b32576001600080516020612ed783398151915255604051602080825281906101c59082018c6121a5565b6001600160a01b03611b4d611b4883878961252f565b61253f565b1615610dc657611b5e818b8861252f565b3515610db45761076c61ffff611b7d611b78848b8761252f565b612553565b16101580612013575b611b8f90612562565b611b9a818b8861252f565b356000526003602052604060002054610d515760045490611bba826125cd565b600455611bc8818c8961252f565b35611bd7611b4883888a61252f565b8a831015611ffd578260051b86013590601e19873603018212156101c9576001600160401b0382880135116101c957818701353603602083890101136101c957611c6e61ffff92611c2c611b78878f8b61252f565b9260405195611c3a87612296565b86526001600160a01b03166020808701919091523360408701524260608701526080860188905236918a0180359101612352565b60a0840152600060c0840152600060e0840152604051611c8d816122e0565b60008152610100840152166101208201528260005260016020526040600020815181556001810160018060a01b036020840151166001600160601b0360a01b8254161790556002810160018060a01b036040840151166001600160601b0360a01b825416179055606082015160038201556080820151600482015560a08201518051906001600160401b03821161080f57611d2f82610a7a6005860154612389565b602090601f8311600114611f8b57611d5f929160009183611f075750508160011b916000199060031b1c19161790565b60058201555b611d8460c08301511515600683019060ff801983541691151516179055565b60e082015160078201556101008201518051906001600160401b03821161080f57611db682610b0b6008860154612389565b602090601f8311600114611f125792611df0836101209460099461ffff97600092611f075750508160011b916000199060031b1c19161790565b60088201555b019201511661ffff1982541617905560018060a01b03611e1a611b4883888a61252f565b166000526002602052611e31826040600020612632565b611e3c818c8961252f565b356000908152600360205260408120839055546001600160a01b031691823b156101c9576000809360246040518096819363f466fe1360e01b83523360048401525af1928315610c4457600193611ef8575b50611e9a828d8a61252f565b35838060a01b03611eaf611b48858a8c61252f565b6040805133815242602082015292909116929184917f2975a491763b4b20a2b13ec55e40ce297a6bae13acf955dbe1991f1db30d31d191a4611ef1828c612667565b5201611b03565b611f01906122b2565b8c611e8e565b015190503880610a9f565b906008840160005260206000209160005b601f1985168110611f7357508360099361ffff969360019361012097601f19811610611f5a575b505050811b016008820155611df6565b015160001960f88460031b161c19169055388080611f4a565b91926020600181928685015181550194019201611f23565b9190600584016000526020600020906000935b601f1984168510611fe2576001945083601f19811610611fc9575b505050811b016005820155611d65565b015160001960f88460031b161c191690558f8080611fb9565b81810151835560209485019460019093019290910190611f9e565b634e487b7160e01b600052603260045260246000fd5b50611b8f61083461ffff61202b611b78858c8861252f565b1611159050611b86565b61204e915060203d602011610d9d57610d8f8183612316565b89611af0565b5084881415611ab1565b5085881415611aaa565b60405162461bcd60e51b8152602060048201526024808201527f42617463682073697a65206d757374206265206265747765656e203120616e646044820152630203130360e41b6064820152608490fd5b346101c95760003660031901126101c9576000546040516001600160a01b039091168152602090f35b346101c95760203660031901126101c9576004359063ffffffff60e01b82168092036101c957602091637965db0b60e01b8114908115612124575b5015158152f35b6301ffc9a760e01b1490508361211d565b919082519283825260005b848110612161575050826000602080949584010152601f8019910116010190565b602081830181015184830182015201612140565b9181601f840112156101c9578235916001600160401b0383116101c9576020808501948460051b0101116101c957565b90815180825260208080930193019160005b8281106121c5575050505090565b8351855293810193928101926001016121b7565b9061225861222e61014084518452602085015160018060a01b0380911660208601526040860151166040850152606085015160608501526080850151608085015260a0850151908060a0860152840190612135565b60c0840151151560c084015260e084015160e0840152610100808501519084830390850152612135565b9161ffff610120809201511691015290565b602435906001600160a01b03821682036101c957565b600435906001600160a01b03821682036101c957565b61014081019081106001600160401b0382111761080f57604052565b6001600160401b03811161080f57604052565b608081019081106001600160401b0382111761080f57604052565b602081019081106001600160401b0382111761080f57604052565b604081019081106001600160401b0382111761080f57604052565b90601f801991011681019081106001600160401b0382111761080f57604052565b6001600160401b03811161080f57601f01601f191660200190565b92919261235e82612337565b9161236c6040519384612316565b8294818452818301116101c9578281602093846000960137010152565b90600182811c921680156123b9575b60208310146123a357565b634e487b7160e01b600052602260045260246000fd5b91607f1691612398565b906040519182600082546123d681612389565b908184526020946001916001811690816000146124465750600114612407575b50505061240592500383612316565b565b600090815285812095935091905b81831061242e57505061240593508201013880806123f6565b85548884018501529485019487945091830191612415565b9250505061240594925060ff191682840152151560051b8201013880806123f6565b9181601f840112156101c9578235916001600160401b0383116101c957602083818601950101116101c957565b8054821015611ffd5760005260206000200190600090565b604051906124ba826122fb565b60058252640312e302e360dc1b6020830152565b908160209103126101c9575180151581036101c95790565b6001600160401b03811161080f5760051b60200190565b90612507826124e6565b6125146040519182612316565b8281528092612525601f19916124e6565b0190602036910137565b9190811015611ffd5760051b0190565b356001600160a01b03811681036101c95790565b3561ffff811681036101c95790565b1561256957565b60405162461bcd60e51b815260206004820152603660248201527f496e76616c69642067726164756174696f6e20796561723a206d7573742062656044820152750206265747765656e203139303020616e6420323130360541b6064820152608490fd5b600019811461105e5760010190565b90601f81116125ea57505050565b6000916000526020600020906020601f850160051c83019410612628575b601f0160051c01915b82811061261d57505050565b818155600101612611565b9092508290612608565b8054600160401b81101561080f5761264f91600182018155612495565b819291549060031b91821b91600019901b1916179055565b8051821015611ffd5760209160051b010190565b6040519061268882612296565b81610120600091828152826020820152826040820152826060820152826080820152606060a08201528260c08201528260e082015260606101008201520152565b600554600160401b81101561080f5760019081810180600555811015611ffd576000906005825260021b90817f036b6384b5eca791c62761152d0c79bb0604c104a5fb6f4eb0703f3154bb3db0019184519283516001600160401b0394858211612953576127418261273b8554612389565b856125dc565b602090601f83116001146128c95782606095937f036b6384b5eca791c62761152d0c79bb0604c104a5fb6f4eb0703f3154bb3db39593612796938992611f075750508160011b916000199060031b1c19161790565b90555b60208701517f036b6384b5eca791c62761152d0c79bb0604c104a5fb6f4eb0703f3154bb3db18201557f036b6384b5eca791c62761152d0c79bb0604c104a5fb6f4eb0703f3154bb3db2810160018060a01b036040890151166001600160601b0360a01b825416179055019401519081519283116128b5576128258361281f8754612389565b876125dc565b602093601f8411600114612858575061285493909183611f075750508160011b916000199060031b1c19161790565b9055565b93909183601f198116878552838520945b8782821061289c57505010612883575b505050811b019055565b015160001960f88460031b161c19169055388080612879565b8486015187559095019460209485019487935001612869565b634e487b7160e01b81526041600452602490fd5b8386528186208893929091601f198416885b81811061293b575091606097959391857f036b6384b5eca791c62761152d0c79bb0604c104a5fb6f4eb0703f3154bb3db398969410612922575b505050811b019055612799565b015160001960f88460031b161c19169055388080612915565b8284015185558b9690940193602093840193016128db565b634e487b7160e01b85526041600452602485fd5b90600091825260036020526040822054918215612997578281526001602052604090206006015460ff1680159291565b915081908190565b926000600193600454945b858110612aac57508180851015612a8c5781850180861161105e578110612a7b575b506129d6816124fd565b9160009360009260015b88811080612a72575b15612a64576000818152600160205260409020600201546001600160a01b038b8116911614612a21575b612a1c906125cd565b6129e0565b9587811015612a3f575b612a37612a1c916125cd565b969050612a13565b93612a37612a5b8289612a55612a1c958b612667565b526125cd565b95915050612a2b565b505095509550509150509190565b508185106129e9565b8481039150811161105e57386129cc565b95505050915050604051612a9f816122e0565b6000815260003681379190565b6000818152600160205260409020600201546001600160a01b03888116911614612ad9575b6001016129aa565b91612ae56001916125cd565b929050612ad1565b600080516020612ed78339815191526002815414612b0b5760029055565b604051633ee5aeb560e01b8152600490fd5b3360009081527fb16e88c42fd4e48df2dd6a2eabd6bc9aec654ec170056b470819f8892cc6431c6020526040902054600080516020612ef78339815191529060ff1615612b675750565b6044906040519063e2517d3f60e01b82523360048301526024820152fd5b80600052600080516020612eb783398151915260205260406000203360005260205260ff6040600020541615612b675750565b6001600160a01b031660008181527fb7db2dd08fcb62d0c9e08c51941cae53c267786a0b75803fb7960902fc8ef97d6020526040812054909190600080516020612eb78339815191529060ff16612c53578280526020526040822081835260205260408220600160ff1982541617905533917f2f8788117e7eff1d82e926ec794901d17c78024a50270940304540a733656f0d8180a4600190565b505090565b6001600160a01b031660008181527fb16e88c42fd4e48df2dd6a2eabd6bc9aec654ec170056b470819f8892cc6431c6020526040812054909190600080516020612ef783398151915290600080516020612eb78339815191529060ff16612d02578184526020526040832082845260205260408320600160ff198254161790557f2f8788117e7eff1d82e926ec794901d17c78024a50270940304540a733656f0d339380a4600190565b50505090565b90600091808352600080516020612eb783398151915280602052604084209260018060a01b03169283855260205260ff60408520541615600014612d02578184526020526040832082845260205260408320600160ff198254161790557f2f8788117e7eff1d82e926ec794901d17c78024a50270940304540a733656f0d339380a4600190565b90600091808352600080516020612eb783398151915280602052604084209260018060a01b03169283855260205260ff604085205416600014612d0257818452602052604083208284526020526040832060ff1981541690557ff6391f5c32d9c69d2a47ea670b442974b53935d1edc7fd64eb21e047a839171b339380a4600190565b60ff7ff0c57e16840df040f15088dc2f81fe391c3923bec73e23a9662efc9c229c6a005460401c1615612e4157565b604051631afcd79f60e31b8152600490fd5b90612e7a5750805115612e6857602081519101fd5b60405163d6bda27560e01b8152600490fd5b81511580612ead575b612e8b575090565b604051639996b31560e01b81526001600160a01b039091166004820152602490fd5b50803b15612e8356fe02dd7bc7dec4dceedda775e58dd541e08a116c6c53815c0bd028192f7b6268009b779b17422d0df92223018b32b4d1fa46e071723d6817e2486d003becc55f00a49807205ce4d355092ef5a8a18f56e8913cf4a201fbe287825b095693c21775a2646970667358221220d4e4714dcb1c182a146180a935dd32fb48f3dd922b57cd5a50ad7d4642e575c864736f6c63430008180033",
  "linkReferences": {},
  "deployedLinkReferences": {}
}