{
  "_format": "hh-sol-artifact-1",
  "contractName": "EmployerRegistry",
  "sourceName": "contracts/EmployerRegistry.sol",
  "abi": [
    {
      "inputs": [],
      "stateMutability": "nonpayable",
      "type": "constructor"
    },
    {
      "inputs": [],
      "name": "AccessControlBadConfirmation",
      "type": "error"
    },
    {
      "inputs": [
        {
          "internalType": "address",
          "name": "account",
          "type": "address"
        },
        {
          "internalType": "bytes32",
          "name": "neededRole",
          "type": "bytes32"
        }
      ],
      "name": "AccessControlUnauthorizedAccount",
      "type": "error"
    },
    {
      "inputs": [
        {
          "internalType": "address",
          "name": "target",
          "type": "address"
        }
      ],
      "name": "AddressEmptyCode",
      "type": "error"
    },
    {
      "inputs": [
        {
          "internalType": "address",
          "name": "implementation",
          "type": "address"
        }
      ],
      "name": "ERC1967InvalidImplementation",
      "type": "error"
    },
    {
      "inputs": [],
      "name": "ERC1967NonPayable",
      "type": "error"
    },
    {
      "inputs": [],
      "name": "FailedCall",
      "type": "error"
    },
    {
      "inputs": [],
      "name": "InvalidInitialization",
      "type": "error"
    },
    {
      "inputs": [],
      "name": "NotInitializing",
      "type": "error"
    },
    {
      "inputs": [],
      "name": "UUPSUnauthorizedCallContext",
      "type": "error"
    },
    {
      "inputs": [
        {
          "internalType": "bytes32",
          "name": "slot",
          "type": "bytes32"
        }
      ],
      "name": "UUPSUnsupportedProxiableUUID",
      "type": "error"
    },
    {
      "anonymous": false,
      "inputs": [
        {
          "indexed": true,
          "internalType": "address",
          "name": "walletAddress",
          "type": "address"
        },
        {
          "indexed": false,
          "internalType": "uint256",
          "name": "timestamp",
          "type": "uint256"
        }
      ],
      "name": "EmployerDeactivated",
      "type": "event"
    },
    {
      "anonymous": false,
      "inputs": [
        {
          "indexed": true,
          "internalType": "address",
          "name": "walletAddress",
          "type": "address"
        },
        {
          "indexed": false,
          "internalType": "uint256",
          "name": "timestamp",
          "type": "uint256"
        }
      ],
      "name": "EmployerReactivated",
      "type": "event"
    },
    {
      "anonymous": false,
      "inputs": [
        {
          "indexed": true,
          "internalType": "address",
          "name": "walletAddress",
          "type": "address"
        },
        {
          "indexed": false,
          "internalType": "string",
          "name": "companyName",
          "type": "string"
        },
        {
          "indexed": false,
          "internalType": "string",
          "name": "vatNumber",
          "type": "string"
        },
        {
          "indexed": false,
          "internalType": "uint256",
          "name": "timestamp",
          "type": "uint256"
        }
      ],
      "name": "EmployerRegistered",
      "type": "event"
    },
    {
      "anonymous": false,
      "inputs": [
        {
          "indexed": true,
          "internalType": "address",
          "name": "walletAddress",
          "type": "address"
        },
        {
          "indexed": false,
          "internalType": "string",
          "name": "companyName",
          "type": "string"
        },
        {
          "indexed": false,
          "internalType": "string",
          "name": "vatNumber",
          "type": "string"
        },
        {
          "indexed": false,
          "internalType": "uint256",
          "name": "timestamp",
          "type": "uint256"
        }
      ],
      "name": "EmployerUpdated",
      "type": "event"
    },
    {
      "anonymous": false,
      "inputs": [
        {
          "indexed": false,
          "internalType": "uint64",
          "name": "version",
          "type": "uint64"
        }
      ],
      "name": "Initialized",
      "type": "event"
    },
    {
      "anonymous": false,
      "inputs": [
        {
          "indexed": true,
          "internalType": "bytes32",
          "name": "role",
          "type": "bytes32"
        },
        {
          "indexed": true,
          "internalType": "bytes32",
          "name": "previousAdminRole",
          "type": "bytes32"
        },
        {
          "indexed": true,
          "internalType": "bytes32",
          "name": "newAdminRole",
          "type": "bytes32"
        }
      ],
      "name": "RoleAdminChanged",
      "type": "event"
    },
    {
      "anonymous": false,
      "inputs": [
        {
          "indexed": true,
          "internalType": "bytes32",
          "name": "role",
          "type": "bytes32"
        },
        {
          "indexed": true,
          "internalType": "address",
          "name": "account",
          "type": "address"
        },
        {
          "indexed": true,
          "internalType": "address",
          "name": "sender",
          "type": "address"
        }
      ],
      "name": "RoleGranted",
      "type": "event"
    },
    {
      "anonymous": false,
      "inputs": [
        {
          "indexed": true,
          "internalType": "bytes32",
          "name": "role",
          "type": "bytes32"
        },
        {
          "indexed": true,
          "internalType": "address",
          "name": "account",
          "type": "address"
        },
        {
          "indexed": true,
          "internalType": "address",
          "name": "sender",
          "type": "address"
        }
      ],
      "name": "RoleRevoked",
      "type": "event"
    },
    {
      "anonymous": false,
      "inputs": [
        {
          "indexed": true,
          "internalType": "address",
          "name": "implementation",
          "type": "address"
        }
      ],
      "name": "Upgraded",
      "type": "event"
    },
    {
      "inputs": [],
      "name": "ADMIN_ROLE",
      "outputs": [
        {
          "internalType": "bytes32",
          "name": "",
          "type": "bytes32"
        }
      ],
      "stateMutability": "view",
      "type": "function"
    },
    {
      "inputs": [],
      "name": "DEFAULT_ADMIN_ROLE",
      "outputs": [
        {
          "internalType": "bytes32",
          "name": "",
          "type": "bytes32"
        }
      ],
      "stateMutability": "view",
      "type": "function"
    },
    {
      "inputs": [],
      "name": "UPGRADE_INTERFACE_VERSION",
      "outputs": [
        {
          "internalType": "string",
          "name": "",
          "type": "string"
        }
      ],
      "stateMutability": "view",
      "type": "function"
    },
    {
      "inputs": [
        {
          "internalType": "address",
          "name": "employerAddress",
          "type": "address"
        }
      ],
      "name": "deactivateEmployer",
      "outputs": [],
      "stateMutability": "nonpayable",
      "type": "function"
    },
    {
      "inputs": [
        {
          "internalType": "uint256",
          "name": "",
          "type": "uint256"
        }
      ],
      "name": "employerAddresses",
      "outputs": [
        {
          "internalType": "address",
          "name": "",
          "type": "address"
        }
      ],
      "stateMutability": "view",
      "type": "function"
    },
    {
      "inputs": [
        {
          "internalType": "address",
          "name": "",
          "type": "address"
        }
      ],
      "name": "employers",
      "outputs": [
        {
          "internalType": "address",
          "name": "walletAddress",
          "type": "address"
        },
        {
          "internalType": "string",
          "name": "companyName",
          "type": "string"
        },
        {
          "internalType": "string",
          "name": "vatNumber",
          "type": "string"
        },
        {
          "internalType": "uint256",
          "name": "registrationDate",
          "type": "uint256"
        },
        {
          "internalType": "bool",
          "name": "isActive",
          "type": "bool"
        }
      ],
      "stateMutability": "view",
      "type": "function"
    },
    {
      "inputs": [],
      "name": "getAllEmployers",
      "outputs": [
        {
          "internalType": "address[]",
          "name": "",
          "type": "address[]"
        }
      ],
      "stateMutability": "view",
      "type": "function"
    },
    {
      "inputs": [
        {
          "internalType": "address",
          "name": "employerAddress",
          "type": "address"
        }
      ],
      "name": "getEmployer",
      "outputs": [
        {
          "components": [
            {
              "internalType": "address",
              "name": "walletAddress",
              "type": "address"
            },
            {
              "internalType": "string",
              "name": "companyName",
              "type": "string"
            },
            {
              "internalType": "string",
              "name": "vatNumber",
              "type": "string"
            },
            {
              "internalType": "uint256",
              "name": "registrationDate",
              "type": "uint256"
            },
            {
              "internalType": "bool",
              "name": "isActive",
              "type": "bool"
            }
          ],
          "internalType": "struct EmployerRegistry.Employer",
          "name": "",
          "type": "tuple"
        }
      ],
      "stateMutability": "view",
      "type": "function"
    },
    {
      "inputs": [
        {
          "internalType": "uint256",
          "name": "offset",
          "type": "uint256"
        },
        {
          "internalType": "uint256",
          "name": "limit",
          "type": "uint256"
        }
      ],
      "name": "getEmployersPaginated",
      "outputs": [
        {
          "internalType": "address[]",
          "name": "",
          "type": "address[]"
        }
      ],
      "stateMutability": "view",
      "type": "function"
    },
    {
      "inputs": [
        {
          "internalType": "bytes32",
          "name": "role",
          "type": "bytes32"
        }
      ],
      "name": "getRoleAdmin",
      "outputs": [
        {
          "internalType": "bytes32",
          "name": "",
          "type": "bytes32"
        }
      ],
      "stateMutability": "view",
      "type": "function"
    },
    {
      "inputs": [
        {
          "internalType": "bytes32",
          "name": "role",
          "type": "bytes32"
        },
        {
          "internalType": "address",
          "name": "account",
          "type": "address"
        }
      ],
      "name": "grantRole",
      "outputs": [],
      "stateMutability": "nonpayable",
      "type": "function"
    },
    {
      "inputs": [
        {
          "internalType": "bytes32",
          "name": "role",
          "type": "bytes32"
        },
        {
          "internalType": "address",
          "name": "account",
          "type": "address"
        }
      ],
      "name": "hasRole",
      "outputs": [
        {
          "internalType": "bool",
          "name": "",
          "type": "bool"
        }
      ],
      "stateMutability": "view",
      "type": "function"
    },
    {
      "inputs": [
        {
          "internalType": "address",
          "name": "admin",
          "type": "address"
        }
      ],
      "name": "initialize",
      "outputs": [],
      "stateMutability": "nonpayable",
      "type": "function"
    },
    {
      "inputs": [
        {
          "internalType": "address",
          "name": "employerAddress",
          "type": "address"
        }
      ],
      "name": "isEmployer",
      "outputs": [
        {
          "internalType": "bool",
          "name": "",
          "type": "bool"
        }
      ],
      "stateMutability": "view",
      "type": "function"
    },
    {
      "inputs": [],
      "name": "proxiableUUID",
      "outputs": [
        {
          "internalType": "bytes32",
          "name": "",
          "type": "bytes32"
        }
      ],
      "stateMutability": "view",
      "type": "function"
    },
    {
      "inputs": [
        {
          "internalType": "address",
          "name": "employerAddress",
          "type": "address"
        }
      ],
      "name": "reactivateEmployer",
      "outputs": [],
      "stateMutability": "nonpayable",
      "type": "function"
    },
    {
      "inputs": [
        {
          "internalType": "string",
          "name": "_companyName",
          "type": "string"
        },
        {
          "internalType": "string",
          "name": "_vatNumber",
          "type": "string"
        }
      ],
      "name": "registerEmployer",
      "outputs": [],
      "stateMutability": "nonpayable",
      "type": "function"
    },
    {
      "inputs": [
        {
          "internalType": "bytes32",
          "name": "role",
          "type": "bytes32"
        },
        {
          "internalType": "address",
          "name": "callerConfirmation",
          "type": "address"
        }
      ],
      "name": "renounceRole",
      "outputs": [],
      "stateMutability": "nonpayable",
      "type": "function"
    },
    {
      "inputs": [
        {
          "internalType": "bytes32",
          "name": "role",
          "type": "bytes32"
        },
        {
          "internalType": "address",
          "name": "account",
          "type": "address"
        }
      ],
      "name": "revokeRole",
      "outputs": [],
      "stateMutability": "nonpayable",
      "type": "function"
    },
    {
      "inputs": [
        {
          "internalType": "bytes4",
          "name": "interfaceId",
          "type": "bytes4"
        }
      ],
      "name": "supportsInterface",
      "outputs": [
        {
          "internalType": "bool",
          "name": "",
          "type": "bool"
        }
      ],
      "stateMutability": "view",
      "type": "function"
    },
    {
      "inputs": [],
      "name": "totalEmployers",
      "outputs": [
        {
          "internalType": "uint256",
          "name": "",
          "type": "uint256"
        }
      ],
      "stateMutability": "view",
      "type": "function"
    },
    {
      "inputs": [
        {
          "internalType": "string",
          "name": "_companyName",
          "type": "string"
        },
        {
          "internalType": "string",
          "name": "_vatNumber",
          "type": "string"
        }
      ],
      "name": "updateEmployer",
      "outputs": [],
      "stateMutability": "nonpayable",
      "type": "function"
    },
    {
      "inputs": [
        {
          "internalType": "address",
          "name": "newImplementation",
          "type": "address"
        },
        {
          "internalType": "bytes",
          "name": "data",
          "type": "bytes"
        }
      ],
      "name": "upgradeToAndCall",
      "outputs": [],
      "stateMutability": "payable",
      "type": "function"
    }
  ],
  "bytecode": "0x60a080604052346100cc57306080527ff0c57e16840df040f15088dc2f81fe391c3923bec73e23a9662efc9c229c6a009081549060ff8260401c166100bd57506001600160401b036002600160401b031982821601610078575b604051611c7790816100d28239608051818181610cdb0152610d950152f35b6001600160401b031990911681179091556040519081527fc7f505b2f371ae2175ee4913f4499e1f2633a7b5936321eed1cdaeb6115181d290602090a1388080610059565b63f92ee8a960e01b8152600490fd5b600080fdfe608080604052600436101561001357600080fd5b60003560e01c90816301608344146113585750806301ffc9a71461130357806309c91e42146112255780630be435bd1461118c57806314c671d6146110fb5780631906b4ce146110dd5780631e096e1a1461109b578063248a9ca31461105f5780632f2ff15d1461101357806336568abe14610fcc578063417d6c9914610f745780634f1ef28614610d4557806352d1902d14610cc85780637560d4ce14610bb157806375b238fc14610b7657806391d1485414610b1c5780639d4dd4dd14610738578063a217fddf1461071c578063a9ac08f614610640578063ad3cb1cc146105e3578063c4d66de8146104a7578063d44b90c11461016f5763d547741f1461011c57600080fd5b3461016a57604036600319011261016a5761016860043561013b6114d9565b9080600052600080516020611c228339815191526020526101636001604060002001546118de565b611afa565b005b600080fd5b3461016a5761017d3661170a565b90336000526020600081526101a060018060a01b03604060002054161515611773565b336000526000815260ff600460406000200154161561046d576101c5825115156117b0565b6101d1835115156117f4565b336000526000815260018060406000200190835167ffffffffffffffff928382116103a45761020081546114ef565b91601f92838111610427575b5080868482116001146103c5576000916103ba575b50600019600383901b1c191690841b1790555b336000526000845260026040600020019386519384116103a45761025885546114ef565b82811161035e575b50809184116001146102d157509180806102c195937f01674e86b11a902e93c4099786f16ce0b38f5eddd72803e51444d4bf93621c7b97956000936102c6575b501b916000199060031b1c19161790555b6040519182913395429184611836565b0390a2005b8901519250896102a0565b90601f9392931983168560005282600020926000905b8282106103475750509183916102c196947f01674e86b11a902e93c4099786f16ce0b38f5eddd72803e51444d4bf93621c7b9896941061032e575b5050811b0190556102b1565b88015160001960f88460031b161c191690558780610322565b808785968294968d015181550195019301906102e7565b85600052816000208380870160051c82019284881061039b575b0160051c019084905b82811061038f575050610260565b60008155018490610381565b92508192610378565b634e487b7160e01b600052604160045260246000fd5b905087015189610221565b859250601f1982169084600052886000209160005b8a8c8383106104125750505083116103f9575b5050811b019055610234565b89015160001960f88460031b161c1916905589806103ed565b840151855589969094019392830192016103da565b82600052866000208480840160051c820192898510610464575b0160051c019085905b82811061045857505061020c565b6000815501859061044a565b92508192610441565b6064906040519062461bcd60e51b8252600482015260136024820152721058d8dbdd5b9d0819195858dd1a5d985d1959606a1b6044820152fd5b3461016a57602036600319011261016a576104c06114c3565b7ff0c57e16840df040f15088dc2f81fe391c3923bec73e23a9662efc9c229c6a0090815460ff8160401c16159167ffffffffffffffff8216801590816105db575b60011490816105d1575b1590816105c8575b506105b65767ffffffffffffffff19821660011784556105539183610597575b5061053c611b7d565b610544611b7d565b61054d81611911565b506119b1565b5061055a57005b68ff00000000000000001981541690557fc7f505b2f371ae2175ee4913f4499e1f2633a7b5936321eed1cdaeb6115181d2602060405160018152a1005b68ffffffffffffffffff19166801000000000000000117845584610533565b60405163f92ee8a960e01b8152600490fd5b90501585610513565b303b15915061050b565b849150610501565b3461016a57600036600319011261016a57604051604081019080821067ffffffffffffffff8311176103a45761063c9160405260058152640352e302e360dc1b602082015260405191829160208352602083019061160c565b0390f35b3461016a5760208060031936011261016a5761065a6114c3565b90610663611864565b6001600160a01b0391821660008181528083526040902054909261068991161515611773565b816000526000815260ff600460406000200154166106e7577fd25839af87e0a4b08525e2e30380d66a2bb54c1a59f5d7f394282c54fc3890549082600052600081526004604060002001600160ff19825416179055604051428152a2005b6064906040519062461bcd60e51b82526004820152600e60248201526d416c72656164792061637469766560901b6044820152fd5b3461016a57600036600319011261016a57602060405160008152f35b3461016a576107463661170a565b90610753815115156117b0565b61075f825115156117f4565b336000908152602081905260409020546001600160a01b0316610ae25760405161078881611529565b338152602081018281528360408301524260608301526001608083015233600052600060205260406000209060018060a01b038351166bffffffffffffffffffffffff60a01b8354161782555180519067ffffffffffffffff82116103a45781906107f660018501546114ef565b601f8111610a8f575b50602090601f8311600114610a1d57600092610a12575b50508160011b916000199060031b1c19161760018201555b604082015180519067ffffffffffffffff82116103a45761085260028401546114ef565b601f81116109cb575b50602090601f83116001146109585791806080949260049460009261094d575b50508160011b916000199060031b1c19161760028201555b6060840151600382015501910151151560ff80198354169116179055600154680100000000000000008110156103a4578060016108d3920160015561164c565b81546001600160a01b0360039290921b91821b19163390911b1790556002546000198114610937577f7104b95a65267023d0be4f0b339405176091006cae7db6422131a063c91eabea9160016102c192016002556040519182913395429184611836565b634e487b7160e01b600052601160045260246000fd5b01519050888061087b565b90601f198316916002850160005260206000209260005b8181106109b35750926001928592600496608098961061099a575b505050811b016002820155610893565b015160001960f88460031b161c1916905588808061098a565b9293602060018192878601518155019501930161096f565b600284016000526020600020601f840160051c810160208510610a0b575b601f830160051c820181106109ff57505061085b565b600081556001016109e9565b50806109e9565b015190508680610816565b9250600184016000526020600020906000935b601f1984168510610a74576001945083601f19811610610a5b575b505050811b01600182015561082e565b015160001960f88460031b161c19169055868080610a4b565b81810151835560209485019460019093019290910190610a30565b909150600184016000526020600020601f840160051c810160208510610adb575b90849392915b601f830160051c82018110610acc5750506107ff565b60008155859450600101610ab6565b5080610ab0565b60405162461bcd60e51b8152602060048201526012602482015271105b1c9958591e481c9959da5cdd195c995960721b6044820152606490fd5b3461016a57604036600319011261016a57610b356114d9565b600435600052600080516020611c2283398151915260205260406000209060018060a01b0316600052602052602060ff604060002054166040519015158152f35b3461016a57600036600319011261016a5760206040517fa49807205ce4d355092ef5a8a18f56e8913cf4a201fbe287825b095693c217758152f35b3461016a5760208060031936011261016a57610bcb6114c3565b9060006080604051610bdc81611529565b82815260608482015260606040820152826060820152015260018060a01b038092168060005260008252610c1883604060002054161515611773565b60005260008152604060002060405191610c3183611529565b838254168352610cb5610c4660018401611567565b828501908152610ca2610c5b60028601611567565b916040870192835260ff600460038801549760608a0198895201541694608088019515158652604051988998828a525116908801525160a0604088015260c087019061160c565b9051858203601f1901606087015261160c565b9151608084015251151560a08301520390f35b3461016a57600036600319011261016a577f00000000000000000000000000000000000000000000000000000000000000006001600160a01b03163003610d335760206040517f360894a13ba1a3210667c828492db98dca3e2076cc3735a920a3ca505d382bbc8152f35b60405163703e46dd60e11b8152600490fd5b604036600319011261016a57610d596114c3565b60243567ffffffffffffffff811161016a573660238201121561016a57610d8a9036906024816004013591016116b5565b906001600160a01b037f00000000000000000000000000000000000000000000000000000000000000008116308114908115610f46575b50610d3357610dce611864565b6040516352d1902d60e01b8152908216916020918281600481875afa60009181610f17575b50610e1157604051634c9c8ce360e01b815260048101859052602490fd5b9284937f360894a13ba1a3210667c828492db98dca3e2076cc3735a920a3ca505d382bbc90818103610eff5750823b15610ee65780546001600160a01b03191682179055604051907fbc7cd75a20ee27fd9adebab32041f755214dbc6bffa90cc0225b39da2e5c2d3b600080a2835115610ecc5750600080848461016896519101845af4903d15610ec3573d610ea681611699565b90610eb46040519283611545565b8152600081943d92013e611bbe565b60609250611bbe565b9250505034610ed757005b63b398979f60e01b8152600490fd5b604051634c9c8ce360e01b815260048101839052602490fd5b60249060405190632a87526960e21b82526004820152fd5b9091508381813d8311610f3f575b610f2f8183611545565b8101031261016a57519086610df3565b503d610f25565b9050817f360894a13ba1a3210667c828492db98dca3e2076cc3735a920a3ca505d382bbc5416141584610dc1565b3461016a57602036600319011261016a5760206001600160a01b0380610f986114c3565b166000526000825260406000209081541615159081610fbd575b506040519015158152f35b60ff9150600401541682610fb2565b3461016a57604036600319011261016a57610fe56114d9565b336001600160a01b038216036110015761016890600435611afa565b60405163334bd91960e11b8152600490fd5b3461016a57604036600319011261016a576101686004356110326114d9565b9080600052600080516020611c2283398151915260205261105a6001604060002001546118de565b611a73565b3461016a57602036600319011261016a57600435600052600080516020611c228339815191526020526020600160406000200154604051908152f35b3461016a57602036600319011261016a5760043560015481101561016a576110c460209161164c565b905460405160039290921b1c6001600160a01b03168152f35b3461016a57600036600319011261016a576020600254604051908152f35b3461016a57600036600319011261016a57604051806001916001549283825260208092019360016000527fb10e2d527612073b26eecdfd717e6a320cf44b4afac2b0732d9fcbe2b7fa0cf6926000905b82821061116e5761063c86611162818a0382611545565b6040519182918261147e565b84546001600160a01b0316875295860195938301939083019061114b565b3461016a57602036600319011261016a576001600160a01b03806111ae6114c3565b1660005260006020526040600020908154166111cc60018301611567565b916111d960028201611567565b61121460ff600460038501549401541691611206604051968796875260a0602088015260a087019061160c565b90858203604087015261160c565b916060840152151560808301520390f35b3461016a5760208060031936011261016a5761123f6114c3565b90611248611864565b6001600160a01b0391821660008181528083526040902054909261126e91161515611773565b816000526000815260ff60046040600020015416156112c9577e41a6cafbbc529a88f0ee334249b6fdbbce88837bd4f5df654a70fbd412b972908260005260008152600460406000200160ff198154169055604051428152a2005b6064906040519062461bcd60e51b825260048201526013602482015272105b1c9958591e4819195858dd1a5d985d1959606a1b6044820152fd5b3461016a57602036600319011261016a5760043563ffffffff60e01b811680910361016a57602090637965db0b60e01b811490811561134757506040519015158152f35b6301ffc9a760e01b14905082610fb2565b3461016a57604036600319011261016a57600435602491600192600154918284101561144557506024358301918284116109375780831161143d575b5061139f838361174e565b926113c26113ac8561175b565b946113ba6040519687611545565b80865261175b565b60209190601f19013686840137805b8481106113e6576040518061063c888261147e565b6113ef8161164c565b9054906113fc848461174e565b9188518310156114285760039190911b1c6001600160a01b031660059190911b870184015286016113d1565b86634e487b7160e01b60005260326004526000fd5b915084611394565b62461bcd60e51b81526020600482015260146024820152734f6666736574206f7574206f6620626f756e647360601b6044820152606490fd5b602090602060408183019282815285518094520193019160005b8281106114a6575050505090565b83516001600160a01b031685529381019392810192600101611498565b600435906001600160a01b038216820361016a57565b602435906001600160a01b038216820361016a57565b90600182811c9216801561151f575b602083101461150957565b634e487b7160e01b600052602260045260246000fd5b91607f16916114fe565b60a0810190811067ffffffffffffffff8211176103a457604052565b90601f8019910116810190811067ffffffffffffffff8211176103a457604052565b9060405191826000825461157a816114ef565b908184526020946001916001811690816000146115ea57506001146115ab575b5050506115a992500383611545565b565b600090815285812095935091905b8183106115d25750506115a9935082010138808061159a565b855488840185015294850194879450918301916115b9565b925050506115a994925060ff191682840152151560051b82010138808061159a565b919082519283825260005b848110611638575050826000602080949584010152601f8019910116010190565b602081830181015184830182015201611617565b6001548110156116835760016000527fb10e2d527612073b26eecdfd717e6a320cf44b4afac2b0732d9fcbe2b7fa0cf60190600090565b634e487b7160e01b600052603260045260246000fd5b67ffffffffffffffff81116103a457601f01601f191660200190565b9291926116c182611699565b916116cf6040519384611545565b82948184528183011161016a578281602093846000960137010152565b9080601f8301121561016a57816020611707933591016116b5565b90565b90604060031983011261016a5767ffffffffffffffff60043581811161016a5783611737916004016116ec565b9260243591821161016a57611707916004016116ec565b9190820391821161093757565b67ffffffffffffffff81116103a45760051b60200190565b1561177a57565b60405162461bcd60e51b815260206004820152600e60248201526d139bdd081c9959da5cdd195c995960921b6044820152606490fd5b156117b757565b60405162461bcd60e51b815260206004820152601560248201527410dbdb5c185b9e481b985b59481c995c5d5a5c9959605a1b6044820152606490fd5b156117fb57565b60405162461bcd60e51b8152602060048201526013602482015272159055081b9d5b58995c881c995c5d5a5c9959606a1b6044820152606490fd5b93929161185f9061185160409360608852606088019061160c565b90868203602088015261160c565b930152565b3360009081527fb16e88c42fd4e48df2dd6a2eabd6bc9aec654ec170056b470819f8892cc6431c60205260409020547fa49807205ce4d355092ef5a8a18f56e8913cf4a201fbe287825b095693c217759060ff16156118c05750565b6044906040519063e2517d3f60e01b82523360048301526024820152fd5b80600052600080516020611c2283398151915260205260406000203360005260205260ff60406000205416156118c05750565b6001600160a01b031660008181527fb7db2dd08fcb62d0c9e08c51941cae53c267786a0b75803fb7960902fc8ef97d6020526040812054909190600080516020611c228339815191529060ff166119ac578280526020526040822081835260205260408220600160ff1982541617905533917f2f8788117e7eff1d82e926ec794901d17c78024a50270940304540a733656f0d8180a4600190565b505090565b6001600160a01b031660008181527fb16e88c42fd4e48df2dd6a2eabd6bc9aec654ec170056b470819f8892cc6431c60205260408120549091907fa49807205ce4d355092ef5a8a18f56e8913cf4a201fbe287825b095693c2177590600080516020611c228339815191529060ff16611a6d578184526020526040832082845260205260408320600160ff198254161790557f2f8788117e7eff1d82e926ec794901d17c78024a50270940304540a733656f0d339380a4600190565b50505090565b90600091808352600080516020611c2283398151915280602052604084209260018060a01b03169283855260205260ff60408520541615600014611a6d578184526020526040832082845260205260408320600160ff198254161790557f2f8788117e7eff1d82e926ec794901d17c78024a50270940304540a733656f0d339380a4600190565b90600091808352600080516020611c2283398151915280602052604084209260018060a01b03169283855260205260ff604085205416600014611a6d57818452602052604083208284526020526040832060ff1981541690557ff6391f5c32d9c69d2a47ea670b442974b53935d1edc7fd64eb21e047a839171b339380a4600190565b60ff7ff0c57e16840df040f15088dc2f81fe391c3923bec73e23a9662efc9c229c6a005460401c1615611bac57565b604051631afcd79f60e31b8152600490fd5b90611be55750805115611bd357602081519101fd5b60405163d6bda27560e01b8152600490fd5b81511580611c18575b611bf6575090565b604051639996b31560e01b81526001600160a01b039091166004820152602490fd5b50803b15611bee56fe02dd7bc7dec4dceedda775e58dd541e08a116c6c53815c0bd028192f7b626800a2646970667358221220b033ff7d97743cee8daef0908ee3bae9a5938a6f7060560e126078b4c1a330aa64736f6c63430008180033",
  "linkReferences": {},
  "deployedLinkReferences": {}
}