{
  "_format": "hh-sol-artifact-1",
  "contractName": "EmployerRegistry",
  "sourceName": "contracts/EmployerRegistry.sol",
  "abi": [
    {
      "inputs": [],
      "stateMutability": "nonpayable",
      "type": "constructor"
    },
    {
      "inputs": [],
      "name": "AccessControlBadConfirmation",
      "type": "error"
    },
    {
      "inputs": [
        {
          "internalType": "address",
          "name": "account",
          "type": "address"
        },
        {
          "internalType": "bytes32",
          "name": "neededRole",
          "type": "bytes32"
        }
      ],
      "name": "AccessControlUnauthorizedAccount",
      "type": "error"
    },
    {
      "inputs": [
        {
          "internalType": "address",
          "name": "target",
          "type": "address"
        }
      ],
      "name": "AddressEmptyCode",
      "type": "error"
    },
    {
      "inputs": [
        {
          "internalType": "address",
          "name": "implementation",
          "type": "address"
        }
      ],
      "name": "ERC1967InvalidImplementation",
      "type": "error"
    },
    {
      "inputs": [],
      "name": "ERC1967NonPayable",
      "type": "error"
    },
    {
      "inputs": [],
      "name": "FailedCall",
      "type": "error"
    },
    {
      "inputs": [],
      "name": "InvalidInitialization",
      "type": "error"
    },
    {
      "inputs": [],
      "name": "NotInitializing",
      "type": "error"
    },
    {
      "inputs": [],
      "name": "UUPSUnauthorizedCallContext",
      "type": "error"
    },
    {
      "inputs": [
        {
          "internalType": "bytes32",
          "name": "slot",
          "type": "bytes32"
        }
      ],
      "name": "UUPSUnsupportedProxiableUUID",
      "type": "error"
    },
    {
      "anonymous": false,
      "inputs": [
        {
          "indexed": true,
          "internalType": "address",
          "name": "walletAddress",
          "type": "address"
        },
        {
          "indexed": false,
          "internalType": "uint256",
          "name": "timestamp",
          "type": "uint256"
        }
      ],
      "name": "EmployerDeactivated",
      "type": "event"
    },
    {
      "anonymous": false,
      "inputs": [
        {
          "indexed": true,
          "internalType": "address",
          "name": "walletAddress",
          "type": "address"
        },
        {
          "indexed": false,
          "internalType": "uint256",
          "name": "timestamp",
          "type": "uint256"
        }
      ],
      "name": "EmployerReactivated",
      "type": "event"
    },
    {
      "anonymous": false,
      "inputs": [
        {
          "indexed": true,
          "internalType": "address",
          "name": "walletAddress",
          "type": "address"
        },
        {
          "indexed": false,
          "internalType": "string",
          "name": "companyName",
          "type": "string"
        },
        {
          "indexed": false,
          "internalType": "string",
          "name": "vatNumber",
          "type": "string"
        },
        {
          "indexed": false,
          "internalType": "uint256",
          "name": "timestamp",
          "type": "uint256"
        }
      ],
      "name": "EmployerRegistered",
      "type": "event"
    },
    {
      "anonymous": false,
      "inputs": [
        {
          "indexed": true,
          "internalType": "address",
          "name": "walletAddress",
          "type": "address"
        },
        {
          "indexed": false,
          "internalType": "string",
          "name": "companyName",
          "type": "string"
        },
        {
          "indexed": false,
          "internalType": "string",
          "name": "vatNumber",
          "type": "string"
        },
        {
          "indexed": false,
          "internalType": "uint256",
          "name": "timestamp",
          "type": "uint256"
        }
      ],
      "name": "EmployerUpdated",
      "type": "event"
    },
    {
      "anonymous": false,
      "inputs": [
        {
          "indexed": false,
          "internalType": "uint64",
          "name": "version",
          "type": "uint64"
        }
      ],
      "name": "Initialized",
      "type": "event"
    },
    {
      "anonymous": false,
      "inputs": [
        {
          "indexed": true,
          "internalType": "bytes32",
          "name": "role",
          "type": "bytes32"
        },
        {
          "indexed": true,
          "internalType": "bytes32",
          "name": "previousAdminRole",
          "type": "bytes32"
        },
        {
          "indexed": true,
          "internalType": "bytes32",
          "name": "newAdminRole",
          "type": "bytes32"
        }
      ],
      "name": "RoleAdminChanged",
      "type": "event"
    },
    {
      "anonymous": false,
      "inputs": [
        {
          "indexed": true,
          "internalType": "bytes32",
          "name": "role",
          "type": "bytes32"
        },
        {
          "indexed": true,
          "internalType": "address",
          "name": "account",
          "type": "address"
        },
        {
          "indexed": true,
          "internalType": "address",
          "name": "sender",
          "type": "address"
        }
      ],
      "name": "RoleGranted",
      "type": "event"
    },
    {
      "anonymous": false,
      "inputs": [
        {
          "indexed": true,
          "internalType": "bytes32",
          "name": "role",
          "type": "bytes32"
        },
        {
          "indexed": true,
          "internalType": "address",
          "name": "account",
          "type": "address"
        },
        {
          "indexed": true,
          "internalType": "address",
          "name": "sender",
          "type": "address"
        }
      ],
      "name": "RoleRevoked",
      "type": "event"
    },
    {
      "anonymous": false,
      "inputs": [
        {
          "indexed": true,
          "internalType": "address",
          "name": "implementation",
          "type": "address"
        }
      ],
      "name": "Upgraded",
      "type": "event"
    },
    {
      "inputs": [],
      "name": "ADMIN_ROLE",
      "outputs": [
        {
          "internalType": "bytes32",
          "name": "",
          "type": "bytes32"
        }
      ],
      "stateMutability": "view",
      "type": "function"
    },
    {
      "inputs": [],
      "name": "DEFAULT_ADMIN_ROLE",
      "outputs": [
        {
          "internalType": "bytes32",
          "name": "",
          "type": "bytes32"
        }
      ],
      "stateMutability": "view",
      "type": "function"
    },
    {
      "inputs": [],
      "name": "UPGRADE_INTERFACE_VERSION",
      "outputs": [
        {
          "internalType": "string",
          "name": "",
          "type": "string"
        }
      ],
      "stateMutability": "view",
      "type": "function"
    },
    {
      "inputs": [],
      "name": "certificateRegistry",
      "outputs": [
        {
          "internalType": "contract ICertificateRegistry",
          "name": "",
          "type": "address"
        }
      ],
      "stateMutability": "view",
      "type": "function"
    },
    {
      "inputs": [
        {
          "internalType": "address",
          "name": "employerAddress",
          "type": "address"
        }
      ],
      "name": "deactivateEmployer",
      "outputs": [],
      "stateMutability": "nonpayable",
      "type": "function"
    },
    {
      "inputs": [
        {
          "internalType": "uint256",
          "name": "",
          "type": "uint256"
        }
      ],
      "name": "employerAddresses",
      "outputs": [
        {
          "internalType": "address",
          "name": "",
          "type": "address"
        }
      ],
      "stateMutability": "view",
      "type": "function"
    },
    {
      "inputs": [
        {
          "internalType": "address",
          "name": "",
          "type": "address"
        }
      ],
      "name": "employers",
      "outputs": [
        {
          "internalType": "address",
          "name": "walletAddress",
          "type": "address"
        },
        {
          "internalType": "string",
          "name": "companyName",
          "type": "string"
        },
        {
          "internalType": "string",
          "name": "vatNumber",
          "type": "string"
        },
        {
          "internalType": "uint256",
          "name": "registrationDate",
          "type": "uint256"
        },
        {
          "internalType": "bool",
          "name": "isActive",
          "type": "bool"
        }
      ],
      "stateMutability": "view",
      "type": "function"
    },
    {
      "inputs": [],
      "name": "getAllEmployers",
      "outputs": [
        {
          "internalType": "address[]",
          "name": "",
          "type": "address[]"
        }
      ],
      "stateMutability": "view",
      "type": "function"
    },
    {
      "inputs": [
        {
          "internalType": "address",
          "name": "employerAddress",
          "type": "address"
        }
      ],
      "name": "getEmployer",
      "outputs": [
        {
          "components": [
            {
              "internalType": "address",
              "name": "walletAddress",
              "type": "address"
            },
            {
              "internalType": "string",
              "name": "companyName",
              "type": "string"
            },
            {
              "internalType": "string",
              "name": "vatNumber",
              "type": "string"
            },
            {
              "internalType": "uint256",
              "name": "registrationDate",
              "type": "uint256"
            },
            {
              "internalType": "bool",
              "name": "isActive",
              "type": "bool"
            }
          ],
          "internalType": "struct EmployerRegistry.Employer",
          "name": "",
          "type": "tuple"
        }
      ],
      "stateMutability": "view",
      "type": "function"
    },
    {
      "inputs": [
        {
          "internalType": "string",
          "name": "_vatNumber",
          "type": "string"
        }
      ],
      "name": "getEmployerByVat",
      "outputs": [
        {
          "internalType": "address",
          "name": "",
          "type": "address"
        }
      ],
      "stateMutability": "view",
      "type": "function"
    },
    {
      "inputs": [
        {
          "internalType": "uint256",
          "name": "offset",
          "type": "uint256"
        },
        {
          "internalType": "uint256",
          "name": "limit",
          "type": "uint256"
        }
      ],
      "name": "getEmployersPaginated",
      "outputs": [
        {
          "internalType": "address[]",
          "name": "",
          "type": "address[]"
        }
      ],
      "stateMutability": "view",
      "type": "function"
    },
    {
      "inputs": [
        {
          "internalType": "bytes32",
          "name": "role",
          "type": "bytes32"
        }
      ],
      "name": "getRoleAdmin",
      "outputs": [
        {
          "internalType": "bytes32",
          "name": "",
          "type": "bytes32"
        }
      ],
      "stateMutability": "view",
      "type": "function"
    },
    {
      "inputs": [
        {
          "internalType": "bytes32",
          "name": "role",
          "type": "bytes32"
        },
        {
          "internalType": "address",
          "name": "account",
          "type": "address"
        }
      ],
      "name": "grantRole",
      "outputs": [],
      "stateMutability": "nonpayable",
      "type": "function"
    },
    {
      "inputs": [
        {
          "internalType": "bytes32",
          "name": "role",
          "type": "bytes32"
        },
        {
          "internalType": "address",
          "name": "account",
          "type": "address"
        }
      ],
      "name": "hasRole",
      "outputs": [
        {
          "internalType": "bool",
          "name": "",
          "type": "bool"
        }
      ],
      "stateMutability": "view",
      "type": "function"
    },
    {
      "inputs": [
        {
          "internalType": "address",
          "name": "admin",
          "type": "address"
        }
      ],
      "name": "initialize",
      "outputs": [],
      "stateMutability": "nonpayable",
      "type": "function"
    },
    {
      "inputs": [],
      "name": "institutionRegistry",
      "outputs": [
        {
          "internalType": "contract IInstitutionRegistry",
          "name": "",
          "type": "address"
        }
      ],
      "stateMutability": "view",
      "type": "function"
    },
    {
      "inputs": [
        {
          "internalType": "address",
          "name": "employerAddress",
          "type": "address"
        }
      ],
      "name": "isEmployer",
      "outputs": [
        {
          "internalType": "bool",
          "name": "",
          "type": "bool"
        }
      ],
      "stateMutability": "view",
      "type": "function"
    },
    {
      "inputs": [
        {
          "internalType": "string",
          "name": "_vatNumber",
          "type": "string"
        }
      ],
      "name": "isVatAvailable",
      "outputs": [
        {
          "internalType": "bool",
          "name": "",
          "type": "bool"
        }
      ],
      "stateMutability": "view",
      "type": "function"
    },
    {
      "inputs": [],
      "name": "proxiableUUID",
      "outputs": [
        {
          "internalType": "bytes32",
          "name": "",
          "type": "bytes32"
        }
      ],
      "stateMutability": "view",
      "type": "function"
    },
    {
      "inputs": [
        {
          "internalType": "address",
          "name": "employerAddress",
          "type": "address"
        }
      ],
      "name": "reactivateEmployer",
      "outputs": [],
      "stateMutability": "nonpayable",
      "type": "function"
    },
    {
      "inputs": [
        {
          "internalType": "string",
          "name": "_companyName",
          "type": "string"
        },
        {
          "internalType": "string",
          "name": "_vatNumber",
          "type": "string"
        }
      ],
      "name": "registerEmployer",
      "outputs": [],
      "stateMutability": "nonpayable",
      "type": "function"
    },
    {
      "inputs": [
        {
          "internalType": "bytes32",
          "name": "role",
          "type": "bytes32"
        },
        {
          "internalType": "address",
          "name": "callerConfirmation",
          "type": "address"
        }
      ],
      "name": "renounceRole",
      "outputs": [],
      "stateMutability": "nonpayable",
      "type": "function"
    },
    {
      "inputs": [
        {
          "internalType": "bytes32",
          "name": "role",
          "type": "bytes32"
        },
        {
          "internalType": "address",
          "name": "account",
          "type": "address"
        }
      ],
      "name": "revokeRole",
      "outputs": [],
      "stateMutability": "nonpayable",
      "type": "function"
    },
    {
      "inputs": [
        {
          "internalType": "address",
          "name": "_institutionRegistry",
          "type": "address"
        },
        {
          "internalType": "address",
          "name": "_certificateRegistry",
          "type": "address"
        }
      ],
      "name": "setRegistries",
      "outputs": [],
      "stateMutability": "nonpayable",
      "type": "function"
    },
    {
      "inputs": [
        {
          "internalType": "bytes4",
          "name": "interfaceId",
          "type": "bytes4"
        }
      ],
      "name": "supportsInterface",
      "outputs": [
        {
          "internalType": "bool",
          "name": "",
          "type": "bool"
        }
      ],
      "stateMutability": "view",
      "type": "function"
    },
    {
      "inputs": [],
      "name": "totalEmployers",
      "outputs": [
        {
          "internalType": "uint256",
          "name": "",
          "type": "uint256"
        }
      ],
      "stateMutability": "view",
      "type": "function"
    },
    {
      "inputs": [
        {
          "internalType": "string",
          "name": "_companyName",
          "type": "string"
        },
        {
          "internalType": "string",
          "name": "_vatNumber",
          "type": "string"
        }
      ],
      "name": "updateEmployer",
      "outputs": [],
      "stateMutability": "nonpayable",
      "type": "function"
    },
    {
      "inputs": [
        {
          "internalType": "address",
          "name": "newImplementation",
          "type": "address"
        },
        {
          "internalType": "bytes",
          "name": "data",
          "type": "bytes"
        }
      ],
      "name": "upgradeToAndCall",
      "outputs": [],
      "stateMutability": "payable",
      "type": "function"
    },
    {
      "inputs": [
        {
          "internalType": "string",
          "name": "",
          "type": "string"
        }
      ],
      "name": "vatToWallet",
      "outputs": [
        {
          "internalType": "address",
          "name": "",
          "type": "address"
        }
      ],
      "stateMutability": "view",
      "type": "function"
    }
  ],
  "bytecode": "0x60a080604052346100cc57306080527ff0c57e16840df040f15088dc2f81fe391c3923bec73e23a9662efc9c229c6a009081549060ff8260401c166100bd57506001600160401b036002600160401b031982821601610078575b60405161234690816100d2823960805181818161118c01526112450152f35b6001600160401b031990911681179091556040519081527fc7f505b2f371ae2175ee4913f4499e1f2633a7b5936321eed1cdaeb6115181d290602090a1388080610059565b63f92ee8a960e01b8152600490fd5b600080fdfe608080604052600436101561001357600080fd5b60003560e01c90816301608344146119935750806301ffc9a71461193e57806309c91e42146118605780630be435bd146117c757806314c671d6146117375780631906b4ce146117195780631b1fcb04146116f05780631e096e1a146116ae578063248a9ca31461167257806324adb799146116385780632f2ff15d146115ec57806336568abe146115a5578063367bb6a21461156c578063399bdf2a1461147c578063417d6c99146114245780634f1ef286146111f657806352d1902d146111795780637560d4ce1461106257806375b238fc1461102757806391d1485414610fcd5780639d4dd4dd14610808578063a217fddf146107ec578063a9ac08f614610710578063ad3cb1cc146106b4578063c4d66de814610579578063ce2be83514610511578063ced7f449146104e8578063d44b90c1146101b15763d547741f1461015e57600080fd5b346101ac5760403660031901126101ac576101aa60043561017d611b0d565b90806000526000805160206122f18339815191526020526101a5600160406000200154611fad565b6121c9565b005b600080fd5b346101ac576101bf36611d8c565b90336000526020600081526101e260018060a01b03604060002054161515611df3565b336000526000815260ff60046040600020015416156104ae5761020782511515611e30565b61021383511515611e74565b33600052600081526001806040600020019083516001600160401b03928382116103e5576102418154611b23565b91601f92838111610468575b508086848211600114610406576000916103fb575b50600019600383901b1c191690841b1790555b336000526000845260026040600020019386519384116103e5576102998554611b23565b82811161039f575b5080918411600114610312575091808061030295937f01674e86b11a902e93c4099786f16ce0b38f5eddd72803e51444d4bf93621c7b9795600093610307575b501b916000199060031b1c19161790555b6040519182913395429184611f05565b0390a2005b8901519250896102e1565b90601f9392931983168560005282600020926000905b82821061038857505091839161030296947f01674e86b11a902e93c4099786f16ce0b38f5eddd72803e51444d4bf93621c7b9896941061036f575b5050811b0190556102f2565b88015160001960f88460031b161c191690558780610363565b808785968294968d01518155019501930190610328565b85600052816000208380870160051c8201928488106103dc575b0160051c019084905b8281106103d05750506102a1565b600081550184906103c2565b925081926103b9565b634e487b7160e01b600052604160045260246000fd5b905087015189610262565b859250601f1982169084600052886000209160005b8a8c83831061045357505050831161043a575b5050811b019055610275565b89015160001960f88460031b161c19169055898061042e565b8401518555899690940193928301920161041b565b82600052866000208480840160051c8201928985106104a5575b0160051c019085905b82811061049957505061024d565b6000815501859061048b565b92508192610482565b6064906040519062461bcd60e51b8252600482015260136024820152721058d8dbdd5b9d0819195858dd1a5d985d1959606a1b6044820152fd5b346101ac5760003660031901126101ac576005546040516001600160a01b039091168152602090f35b346101ac5760203660031901126101ac576004356001600160401b0381116101ac576105436020913690600401611d6e565b816105576040519283815193849201611c3e565b600190820190815281900382019020546040516001600160a01b039091168152f35b346101ac5760203660031901126101ac57610592611af7565b7ff0c57e16840df040f15088dc2f81fe391c3923bec73e23a9662efc9c229c6a0090815460ff8160401c1615916001600160401b038216801590816106ac575b60011490816106a2575b159081610699575b506106875767ffffffffffffffff19821660011784556106249183610668575b5061060d61224c565b61061561224c565b61061e81611fe0565b50612080565b5061062b57005b68ff00000000000000001981541690557fc7f505b2f371ae2175ee4913f4499e1f2633a7b5936321eed1cdaeb6115181d2602060405160018152a1005b68ffffffffffffffffff19166801000000000000000117845584610604565b60405163f92ee8a960e01b8152600490fd5b905015856105e4565b303b1591506105dc565b8491506105d2565b346101ac5760003660031901126101ac5760405160408101908082106001600160401b038311176103e55761070c9160405260058152640352e302e360dc1b6020820152604051918291602083526020830190611c61565b0390f35b346101ac576020806003193601126101ac5761072a611af7565b90610733611f33565b6001600160a01b0391821660008181528083526040902054909261075991161515611df3565b816000526000815260ff600460406000200154166107b7577fd25839af87e0a4b08525e2e30380d66a2bb54c1a59f5d7f394282c54fc3890549082600052600081526004604060002001600160ff19825416179055604051428152a2005b6064906040519062461bcd60e51b82526004820152600e60248201526d416c72656164792061637469766560901b6044820152fd5b346101ac5760003660031901126101ac57602060405160008152f35b346101ac5761081636611d8c565b9061082381511515611e30565b61082f82511515611e74565b336000908152602081905260409020546001600160a01b0316610f93573360009081527fb16e88c42fd4e48df2dd6a2eabd6bc9aec654ec170056b470819f8892cc6431c602052604090205460ff16610f44576004546001600160a01b031680610dce575b506005546001600160a01b031680610ca7575b5060405182516108bb818360208701611c3e565b60019082019081528190036020019020546001600160a01b0316610c69576040516108e581611b5d565b338152602081018281528360408301524260608301526001608083015233600052600060205260406000209060018060a01b038351166001600160601b0360a01b835416178255518051906001600160401b0382116103e557819061094d6001850154611b23565b601f8111610c16575b50602090601f8311600114610ba457600092610b99575b50508160011b916000199060031b1c19161760018201555b60408201518051906001600160401b0382116103e5576109a86002840154611b23565b601f8111610b52575b50602090601f8311600114610adf57918060809492600494600092610ad4575b50508160011b916000199060031b1c19161760028201555b6060840151600382015501910151151560ff801983541691161790556040516020818451610a1a8183858901611c3e565b81016001815203019020336001600160601b0360a01b825416179055600254680100000000000000008110156103e557806001610a5a9201600255611c86565b81546001600160a01b03600392831b90811b199091163390911b17909155546000198114610abe577f7104b95a65267023d0be4f0b339405176091006cae7db6422131a063c91eabea91600161030292016003556040519182913395429184611f05565b634e487b7160e01b600052601160045260246000fd5b0151905088806109d1565b90601f198316916002850160005260206000209260005b818110610b3a57509260019285926004966080989610610b21575b505050811b0160028201556109e9565b015160001960f88460031b161c19169055888080610b11565b92936020600181928786015181550195019301610af6565b600284016000526020600020601f840160051c810160208510610b92575b601f830160051c82018110610b865750506109b1565b60008155600101610b70565b5080610b70565b01519050868061096d565b9250600184016000526020600020906000935b601f1984168510610bfb576001945083601f19811610610be2575b505050811b016001820155610985565b015160001960f88460031b161c19169055868080610bd2565b81810151835560209485019460019093019290910190610bb7565b909150600184016000526020600020601f840160051c810160208510610c62575b90849392915b601f830160051c82018110610c53575050610956565b60008155859450600101610c3d565b5080610c37565b60405162461bcd60e51b815260206004820152601660248201527515905508185b1c9958591e481c9959da5cdd195c995960521b6044820152606490fd5b600060249160405192838092631d4124a360e31b82523360048301525afa908115610dc257600091610d31575b5051610ce057826108a7565b60405162461bcd60e51b815260206004820152602360248201527f53747564656e742063616e6e6f7420726567697374657220617320656d706c6f6044820152623cb2b960e91b6064820152608490fd5b90503d806000833e610d438183611b78565b8101906020818303126101ac578051906001600160401b0382116101ac57019080601f830112156101ac578151610d7981611ddc565b92610d876040519485611b78565b81845260208085019260051b8201019283116101ac57602001905b828210610db25750505083610cd4565b8151815260209182019101610da2565b6040513d6000823e3d90fd5b60006024916040519283809263388cc91b60e11b82523360048301525afa908115610dc257600091610e67575b50604001516001600160a01b0316610e135782610894565b60405162461bcd60e51b815260206004820152602660248201527f556e69766572736974792063616e6e6f7420726567697374657220617320656d604482015265383637bcb2b960d11b6064820152608490fd5b90503d806000833e610e798183611b78565b8101906020818303126101ac5780516001600160401b03918282116101ac57019060e0828403126101ac576040519260e08401848110838211176103e55760405282518281116101ac5781610ecf918501611eb6565b845260208301519182116101ac57610ee8918301611eb6565b60208301526040810151906001600160a01b03821682036101ac5760c0916040840152610f1760608201611ef8565b6060840152610f2860808201611ef8565b608084015260a081015160a0840152015160c082015283610dfb565b60405162461bcd60e51b815260206004820152602160248201527f41646d696e2063616e6e6f7420726567697374657220617320656d706c6f79656044820152603960f91b6064820152608490fd5b60405162461bcd60e51b8152602060048201526012602482015271105b1c9958591e481c9959da5cdd195c995960721b6044820152606490fd5b346101ac5760403660031901126101ac57610fe6611b0d565b6004356000526000805160206122f183398151915260205260406000209060018060a01b0316600052602052602060ff604060002054166040519015158152f35b346101ac5760003660031901126101ac5760206040517fa49807205ce4d355092ef5a8a18f56e8913cf4a201fbe287825b095693c217758152f35b346101ac576020806003193601126101ac5761107c611af7565b906000608060405161108d81611b5d565b82815260608482015260606040820152826060820152015260018060a01b0380921680600052600082526110c983604060002054161515611df3565b600052600081526040600020604051916110e283611b5d565b8382541683526111666110f760018401611b99565b82850190815261115361110c60028601611b99565b916040870192835260ff600460038801549760608a0198895201541694608088019515158652604051988998828a525116908801525160a0604088015260c0870190611c61565b9051858203601f19016060870152611c61565b9151608084015251151560a08301520390f35b346101ac5760003660031901126101ac577f00000000000000000000000000000000000000000000000000000000000000006001600160a01b031630036111e45760206040517f360894a13ba1a3210667c828492db98dca3e2076cc3735a920a3ca505d382bbc8152f35b60405163703e46dd60e11b8152600490fd5b60403660031901126101ac5761120a611af7565b6024356001600160401b0381116101ac57366023820112156101ac5761123a903690602481600401359101611d37565b906001600160a01b037f000000000000000000000000000000000000000000000000000000000000000081163081149081156113f6575b506111e45761127e611f33565b6040516352d1902d60e01b8152908216916020918281600481875afa600091816113c7575b506112c157604051634c9c8ce360e01b815260048101859052602490fd5b9284937f360894a13ba1a3210667c828492db98dca3e2076cc3735a920a3ca505d382bbc908181036113af5750823b156113965780546001600160a01b03191682179055604051907fbc7cd75a20ee27fd9adebab32041f755214dbc6bffa90cc0225b39da2e5c2d3b600080a283511561137c575060008084846101aa96519101845af4903d15611373573d61135681611d1c565b906113646040519283611b78565b8152600081943d92013e61228d565b6060925061228d565b925050503461138757005b63b398979f60e01b8152600490fd5b604051634c9c8ce360e01b815260048101839052602490fd5b60249060405190632a87526960e21b82526004820152fd5b9091508381813d83116113ef575b6113df8183611b78565b810103126101ac575190866112a3565b503d6113d5565b9050817f360894a13ba1a3210667c828492db98dca3e2076cc3735a920a3ca505d382bbc5416141584611271565b346101ac5760203660031901126101ac5760206001600160a01b0380611448611af7565b16600052600082526040600020908154161515908161146d575b506040519015158152f35b60ff9150600401541682611462565b346101ac5760403660031901126101ac57611495611af7565b61149d611b0d565b906114a6611f33565b6001600160a01b0390811691821561152757169081156114e2576001600160601b0360a01b908160045416176004556005541617600555600080f35b60405162461bcd60e51b815260206004820152601c60248201527f496e76616c6964206365727469666963617465207265676973747279000000006044820152606490fd5b60405162461bcd60e51b815260206004820152601c60248201527f496e76616c696420696e737469747574696f6e207265676973747279000000006044820152606490fd5b346101ac57602061157c36611cd3565b80604051928337600190820190815281900382019020546040516001600160a01b039091168152f35b346101ac5760403660031901126101ac576115be611b0d565b336001600160a01b038216036115da576101aa906004356121c9565b60405163334bd91960e11b8152600490fd5b346101ac5760403660031901126101ac576101aa60043561160b611b0d565b90806000526000805160206122f1833981519152602052611633600160406000200154611fad565b612142565b346101ac57602061164836611cd3565b80604051928337600190820190815281900382019020546040516001600160a01b03909116158152f35b346101ac5760203660031901126101ac576004356000526000805160206122f18339815191526020526020600160406000200154604051908152f35b346101ac5760203660031901126101ac576004356002548110156101ac576116d7602091611c86565b905460405160039290921b1c6001600160a01b03168152f35b346101ac5760003660031901126101ac576004546040516001600160a01b039091168152602090f35b346101ac5760003660031901126101ac576020600354604051908152f35b346101ac5760003660031901126101ac57604051806002549182815260208091019260026000527f405787fa12a823e0f2b7631cc41b3ba8828b3321ca811111fa75cd3aa3bb5ace916000905b8282106117a75761070c8561179b81890382611b78565b60405191829182611ab2565b83546001600160a01b031686529485019460019384019390910190611784565b346101ac5760203660031901126101ac576001600160a01b03806117e9611af7565b16600052600060205260406000209081541661180760018301611b99565b9161181460028201611b99565b61184f60ff600460038501549401541691611841604051968796875260a0602088015260a0870190611c61565b908582036040870152611c61565b916060840152151560808301520390f35b346101ac576020806003193601126101ac5761187a611af7565b90611883611f33565b6001600160a01b039182166000818152808352604090205490926118a991161515611df3565b816000526000815260ff6004604060002001541615611904577e41a6cafbbc529a88f0ee334249b6fdbbce88837bd4f5df654a70fbd412b972908260005260008152600460406000200160ff198154169055604051428152a2005b6064906040519062461bcd60e51b825260048201526013602482015272105b1c9958591e4819195858dd1a5d985d1959606a1b6044820152fd5b346101ac5760203660031901126101ac5760043563ffffffff60e01b81168091036101ac57602090637965db0b60e01b811490811561198257506040519015158152f35b6301ffc9a760e01b14905082611462565b346101ac5760403660031901126101ac576004356024916002549081831015611a795750602435820190818311610abe57808211611a71575b506119d78282611dcf565b916119fa6119e484611ddc565b936119f26040519586611b78565b808552611ddc565b602090601f19013685830137815b838110611a1d576040518061070c8782611ab2565b611a2681611c86565b919054611a338583611dcf565b908751821015611a5c576001938591858060a01b039160031b1c169160051b8801015201611a08565b88634e487b7160e01b60005260326004526000fd5b9050836119cc565b62461bcd60e51b81526020600482015260146024820152734f6666736574206f7574206f6620626f756e647360601b6044820152606490fd5b602090602060408183019282815285518094520193019160005b828110611ada575050505090565b83516001600160a01b031685529381019392810192600101611acc565b600435906001600160a01b03821682036101ac57565b602435906001600160a01b03821682036101ac57565b90600182811c92168015611b53575b6020831014611b3d57565b634e487b7160e01b600052602260045260246000fd5b91607f1691611b32565b60a081019081106001600160401b038211176103e557604052565b90601f801991011681019081106001600160401b038211176103e557604052565b90604051918260008254611bac81611b23565b90818452602094600191600181169081600014611c1c5750600114611bdd575b505050611bdb92500383611b78565b565b600090815285812095935091905b818310611c04575050611bdb9350820101388080611bcc565b85548884018501529485019487945091830191611beb565b92505050611bdb94925060ff191682840152151560051b820101388080611bcc565b60005b838110611c515750506000910152565b8181015183820152602001611c41565b90602091611c7a81518092818552858086019101611c3e565b601f01601f1916010190565b600254811015611cbd5760026000527f405787fa12a823e0f2b7631cc41b3ba8828b3321ca811111fa75cd3aa3bb5ace0190600090565b634e487b7160e01b600052603260045260246000fd5b9060206003198301126101ac576004356001600160401b03928382116101ac57806023830112156101ac5781600401359384116101ac57602484830101116101ac576024019190565b6001600160401b0381116103e557601f01601f191660200190565b929192611d4382611d1c565b91611d516040519384611b78565b8294818452818301116101ac578281602093846000960137010152565b9080601f830112156101ac57816020611d8993359101611d37565b90565b9060406003198301126101ac576001600160401b036004358181116101ac5783611db891600401611d6e565b926024359182116101ac57611d8991600401611d6e565b91908203918211610abe57565b6001600160401b0381116103e55760051b60200190565b15611dfa57565b60405162461bcd60e51b815260206004820152600e60248201526d139bdd081c9959da5cdd195c995960921b6044820152606490fd5b15611e3757565b60405162461bcd60e51b815260206004820152601560248201527410dbdb5c185b9e481b985b59481c995c5d5a5c9959605a1b6044820152606490fd5b15611e7b57565b60405162461bcd60e51b8152602060048201526013602482015272159055081b9d5b58995c881c995c5d5a5c9959606a1b6044820152606490fd5b81601f820112156101ac578051611ecc81611d1c565b92611eda6040519485611b78565b818452602082840101116101ac57611d899160208085019101611c3e565b519081151582036101ac57565b939291611f2e90611f20604093606088526060880190611c61565b908682036020880152611c61565b930152565b3360009081527fb16e88c42fd4e48df2dd6a2eabd6bc9aec654ec170056b470819f8892cc6431c60205260409020547fa49807205ce4d355092ef5a8a18f56e8913cf4a201fbe287825b095693c217759060ff1615611f8f5750565b6044906040519063e2517d3f60e01b82523360048301526024820152fd5b806000526000805160206122f183398151915260205260406000203360005260205260ff6040600020541615611f8f5750565b6001600160a01b031660008181527fb7db2dd08fcb62d0c9e08c51941cae53c267786a0b75803fb7960902fc8ef97d60205260408120549091906000805160206122f18339815191529060ff1661207b578280526020526040822081835260205260408220600160ff1982541617905533917f2f8788117e7eff1d82e926ec794901d17c78024a50270940304540a733656f0d8180a4600190565b505090565b6001600160a01b031660008181527fb16e88c42fd4e48df2dd6a2eabd6bc9aec654ec170056b470819f8892cc6431c60205260408120549091907fa49807205ce4d355092ef5a8a18f56e8913cf4a201fbe287825b095693c21775906000805160206122f18339815191529060ff1661213c578184526020526040832082845260205260408320600160ff198254161790557f2f8788117e7eff1d82e926ec794901d17c78024a50270940304540a733656f0d339380a4600190565b50505090565b906000918083526000805160206122f183398151915280602052604084209260018060a01b03169283855260205260ff6040852054161560001461213c578184526020526040832082845260205260408320600160ff198254161790557f2f8788117e7eff1d82e926ec794901d17c78024a50270940304540a733656f0d339380a4600190565b906000918083526000805160206122f183398151915280602052604084209260018060a01b03169283855260205260ff60408520541660001461213c57818452602052604083208284526020526040832060ff1981541690557ff6391f5c32d9c69d2a47ea670b442974b53935d1edc7fd64eb21e047a839171b339380a4600190565b60ff7ff0c57e16840df040f15088dc2f81fe391c3923bec73e23a9662efc9c229c6a005460401c161561227b57565b604051631afcd79f60e31b8152600490fd5b906122b457508051156122a257602081519101fd5b60405163d6bda27560e01b8152600490fd5b815115806122e7575b6122c5575090565b604051639996b31560e01b81526001600160a01b039091166004820152602490fd5b50803b156122bd56fe02dd7bc7dec4dceedda775e58dd541e08a116c6c53815c0bd028192f7b626800a2646970667358221220bb19168938941cd15fd5530920d365d570882eb1831f98c2c4fd5a133336088564736f6c63430008180033",
  "linkReferences": {},
  "deployedLinkReferences": {}
}