{
  "_format": "hh-sol-artifact-1",
  "contractName": "EmployerRegistry",
  "sourceName": "contracts/EmployerRegistry.sol",
  "abi": [
    {
      "inputs": [],
      "stateMutability": "nonpayable",
      "type": "constructor"
    },
    {
      "inputs": [],
      "name": "AccessControlBadConfirmation",
      "type": "error"
    },
    {
      "inputs": [
        {
          "internalType": "address",
          "name": "account",
          "type": "address"
        },
        {
          "internalType": "bytes32",
          "name": "neededRole",
          "type": "bytes32"
        }
      ],
      "name": "AccessControlUnauthorizedAccount",
      "type": "error"
    },
    {
      "inputs": [
        {
          "internalType": "address",
          "name": "target",
          "type": "address"
        }
      ],
      "name": "AddressEmptyCode",
      "type": "error"
    },
    {
      "inputs": [
        {
          "internalType": "address",
          "name": "implementation",
          "type": "address"
        }
      ],
      "name": "ERC1967InvalidImplementation",
      "type": "error"
    },
    {
      "inputs": [],
      "name": "ERC1967NonPayable",
      "type": "error"
    },
    {
      "inputs": [],
      "name": "FailedCall",
      "type": "error"
    },
    {
      "inputs": [],
      "name": "InvalidInitialization",
      "type": "error"
    },
    {
      "inputs": [],
      "name": "NotInitializing",
      "type": "error"
    },
    {
      "inputs": [],
      "name": "UUPSUnauthorizedCallContext",
      "type": "error"
    },
    {
      "inputs": [
        {
          "internalType": "bytes32",
          "name": "slot",
          "type": "bytes32"
        }
      ],
      "name": "UUPSUnsupportedProxiableUUID",
      "type": "error"
    },
    {
      "anonymous": false,
      "inputs": [
        {
          "indexed": true,
          "internalType": "address",
          "name": "walletAddress",
          "type": "address"
        },
        {
          "indexed": false,
          "internalType": "uint256",
          "name": "timestamp",
          "type": "uint256"
        }
      ],
      "name": "EmployerDeactivated",
      "type": "event"
    },
    {
      "anonymous": false,
      "inputs": [
        {
          "indexed": true,
          "internalType": "address",
          "name": "walletAddress",
          "type": "address"
        },
        {
          "indexed": false,
          "internalType": "uint256",
          "name": "timestamp",
          "type": "uint256"
        }
      ],
      "name": "EmployerReactivated",
      "type": "event"
    },
    {
      "anonymous": false,
      "inputs": [
        {
          "indexed": true,
          "internalType": "address",
          "name": "walletAddress",
          "type": "address"
        },
        {
          "indexed": false,
          "internalType": "string",
          "name": "companyName",
          "type": "string"
        },
        {
          "indexed": false,
          "internalType": "string",
          "name": "vatNumber",
          "type": "string"
        },
        {
          "indexed": false,
          "internalType": "uint256",
          "name": "timestamp",
          "type": "uint256"
        }
      ],
      "name": "EmployerRegistered",
      "type": "event"
    },
    {
      "anonymous": false,
      "inputs": [
        {
          "indexed": true,
          "internalType": "address",
          "name": "walletAddress",
          "type": "address"
        },
        {
          "indexed": false,
          "internalType": "string",
          "name": "companyName",
          "type": "string"
        },
        {
          "indexed": false,
          "internalType": "string",
          "name": "vatNumber",
          "type": "string"
        },
        {
          "indexed": false,
          "internalType": "uint256",
          "name": "timestamp",
          "type": "uint256"
        }
      ],
      "name": "EmployerUpdated",
      "type": "event"
    },
    {
      "anonymous": false,
      "inputs": [
        {
          "indexed": false,
          "internalType": "uint64",
          "name": "version",
          "type": "uint64"
        }
      ],
      "name": "Initialized",
      "type": "event"
    },
    {
      "anonymous": false,
      "inputs": [
        {
          "indexed": true,
          "internalType": "bytes32",
          "name": "role",
          "type": "bytes32"
        },
        {
          "indexed": true,
          "internalType": "bytes32",
          "name": "previousAdminRole",
          "type": "bytes32"
        },
        {
          "indexed": true,
          "internalType": "bytes32",
          "name": "newAdminRole",
          "type": "bytes32"
        }
      ],
      "name": "RoleAdminChanged",
      "type": "event"
    },
    {
      "anonymous": false,
      "inputs": [
        {
          "indexed": true,
          "internalType": "bytes32",
          "name": "role",
          "type": "bytes32"
        },
        {
          "indexed": true,
          "internalType": "address",
          "name": "account",
          "type": "address"
        },
        {
          "indexed": true,
          "internalType": "address",
          "name": "sender",
          "type": "address"
        }
      ],
      "name": "RoleGranted",
      "type": "event"
    },
    {
      "anonymous": false,
      "inputs": [
        {
          "indexed": true,
          "internalType": "bytes32",
          "name": "role",
          "type": "bytes32"
        },
        {
          "indexed": true,
          "internalType": "address",
          "name": "account",
          "type": "address"
        },
        {
          "indexed": true,
          "internalType": "address",
          "name": "sender",
          "type": "address"
        }
      ],
      "name": "RoleRevoked",
      "type": "event"
    },
    {
      "anonymous": false,
      "inputs": [
        {
          "indexed": true,
          "internalType": "address",
          "name": "implementation",
          "type": "address"
        }
      ],
      "name": "Upgraded",
      "type": "event"
    },
    {
      "inputs": [],
      "name": "ADMIN_ROLE",
      "outputs": [
        {
          "internalType": "bytes32",
          "name": "",
          "type": "bytes32"
        }
      ],
      "stateMutability": "view",
      "type": "function"
    },
    {
      "inputs": [],
      "name": "DEFAULT_ADMIN_ROLE",
      "outputs": [
        {
          "internalType": "bytes32",
          "name": "",
          "type": "bytes32"
        }
      ],
      "stateMutability": "view",
      "type": "function"
    },
    {
      "inputs": [],
      "name": "UPGRADE_INTERFACE_VERSION",
      "outputs": [
        {
          "internalType": "string",
          "name": "",
          "type": "string"
        }
      ],
      "stateMutability": "view",
      "type": "function"
    },
    {
      "inputs": [],
      "name": "certificateRegistry",
      "outputs": [
        {
          "internalType": "contract ICertificateRegistry",
          "name": "",
          "type": "address"
        }
      ],
      "stateMutability": "view",
      "type": "function"
    },
    {
      "inputs": [
        {
          "internalType": "address",
          "name": "employerAddress",
          "type": "address"
        }
      ],
      "name": "deactivateEmployer",
      "outputs": [],
      "stateMutability": "nonpayable",
      "type": "function"
    },
    {
      "inputs": [
        {
          "internalType": "uint256",
          "name": "",
          "type": "uint256"
        }
      ],
      "name": "employerAddresses",
      "outputs": [
        {
          "internalType": "address",
          "name": "",
          "type": "address"
        }
      ],
      "stateMutability": "view",
      "type": "function"
    },
    {
      "inputs": [
        {
          "internalType": "address",
          "name": "",
          "type": "address"
        }
      ],
      "name": "employers",
      "outputs": [
        {
          "internalType": "address",
          "name": "walletAddress",
          "type": "address"
        },
        {
          "internalType": "string",
          "name": "companyName",
          "type": "string"
        },
        {
          "internalType": "string",
          "name": "vatNumber",
          "type": "string"
        },
        {
          "internalType": "uint256",
          "name": "registrationDate",
          "type": "uint256"
        },
        {
          "internalType": "bool",
          "name": "isActive",
          "type": "bool"
        }
      ],
      "stateMutability": "view",
      "type": "function"
    },
    {
      "inputs": [],
      "name": "getAllEmployers",
      "outputs": [
        {
          "internalType": "address[]",
          "name": "",
          "type": "address[]"
        }
      ],
      "stateMutability": "view",
      "type": "function"
    },
    {
      "inputs": [
        {
          "internalType": "address",
          "name": "employerAddress",
          "type": "address"
        }
      ],
      "name": "getEmployer",
      "outputs": [
        {
          "components": [
            {
              "internalType": "address",
              "name": "walletAddress",
              "type": "address"
            },
            {
              "internalType": "string",
              "name": "companyName",
              "type": "string"
            },
            {
              "internalType": "string",
              "name": "vatNumber",
              "type": "string"
            },
            {
              "internalType": "uint256",
              "name": "registrationDate",
              "type": "uint256"
            },
            {
              "internalType": "bool",
              "name": "isActive",
              "type": "bool"
            }
          ],
          "internalType": "struct EmployerRegistry.Employer",
          "name": "",
          "type": "tuple"
        }
      ],
      "stateMutability": "view",
      "type": "function"
    },
    {
      "inputs": [
        {
          "internalType": "uint256",
          "name": "offset",
          "type": "uint256"
        },
        {
          "internalType": "uint256",
          "name": "limit",
          "type": "uint256"
        }
      ],
      "name": "getEmployersPaginated",
      "outputs": [
        {
          "internalType": "address[]",
          "name": "",
          "type": "address[]"
        }
      ],
      "stateMutability": "view",
      "type": "function"
    },
    {
      "inputs": [
        {
          "internalType": "bytes32",
          "name": "role",
          "type": "bytes32"
        }
      ],
      "name": "getRoleAdmin",
      "outputs": [
        {
          "internalType": "bytes32",
          "name": "",
          "type": "bytes32"
        }
      ],
      "stateMutability": "view",
      "type": "function"
    },
    {
      "inputs": [
        {
          "internalType": "bytes32",
          "name": "role",
          "type": "bytes32"
        },
        {
          "internalType": "address",
          "name": "account",
          "type": "address"
        }
      ],
      "name": "grantRole",
      "outputs": [],
      "stateMutability": "nonpayable",
      "type": "function"
    },
    {
      "inputs": [
        {
          "internalType": "bytes32",
          "name": "role",
          "type": "bytes32"
        },
        {
          "internalType": "address",
          "name": "account",
          "type": "address"
        }
      ],
      "name": "hasRole",
      "outputs": [
        {
          "internalType": "bool",
          "name": "",
          "type": "bool"
        }
      ],
      "stateMutability": "view",
      "type": "function"
    },
    {
      "inputs": [
        {
          "internalType": "address",
          "name": "admin",
          "type": "address"
        }
      ],
      "name": "initialize",
      "outputs": [],
      "stateMutability": "nonpayable",
      "type": "function"
    },
    {
      "inputs": [],
      "name": "institutionRegistry",
      "outputs": [
        {
          "internalType": "contract IInstitutionRegistry",
          "name": "",
          "type": "address"
        }
      ],
      "stateMutability": "view",
      "type": "function"
    },
    {
      "inputs": [
        {
          "internalType": "address",
          "name": "employerAddress",
          "type": "address"
        }
      ],
      "name": "isEmployer",
      "outputs": [
        {
          "internalType": "bool",
          "name": "",
          "type": "bool"
        }
      ],
      "stateMutability": "view",
      "type": "function"
    },
    {
      "inputs": [],
      "name": "proxiableUUID",
      "outputs": [
        {
          "internalType": "bytes32",
          "name": "",
          "type": "bytes32"
        }
      ],
      "stateMutability": "view",
      "type": "function"
    },
    {
      "inputs": [
        {
          "internalType": "address",
          "name": "employerAddress",
          "type": "address"
        }
      ],
      "name": "reactivateEmployer",
      "outputs": [],
      "stateMutability": "nonpayable",
      "type": "function"
    },
    {
      "inputs": [
        {
          "internalType": "string",
          "name": "_companyName",
          "type": "string"
        },
        {
          "internalType": "string",
          "name": "_vatNumber",
          "type": "string"
        }
      ],
      "name": "registerEmployer",
      "outputs": [],
      "stateMutability": "nonpayable",
      "type": "function"
    },
    {
      "inputs": [
        {
          "internalType": "bytes32",
          "name": "role",
          "type": "bytes32"
        },
        {
          "internalType": "address",
          "name": "callerConfirmation",
          "type": "address"
        }
      ],
      "name": "renounceRole",
      "outputs": [],
      "stateMutability": "nonpayable",
      "type": "function"
    },
    {
      "inputs": [
        {
          "internalType": "bytes32",
          "name": "role",
          "type": "bytes32"
        },
        {
          "internalType": "address",
          "name": "account",
          "type": "address"
        }
      ],
      "name": "revokeRole",
      "outputs": [],
      "stateMutability": "nonpayable",
      "type": "function"
    },
    {
      "inputs": [
        {
          "internalType": "address",
          "name": "_institutionRegistry",
          "type": "address"
        },
        {
          "internalType": "address",
          "name": "_certificateRegistry",
          "type": "address"
        }
      ],
      "name": "setRegistries",
      "outputs": [],
      "stateMutability": "nonpayable",
      "type": "function"
    },
    {
      "inputs": [
        {
          "internalType": "bytes4",
          "name": "interfaceId",
          "type": "bytes4"
        }
      ],
      "name": "supportsInterface",
      "outputs": [
        {
          "internalType": "bool",
          "name": "",
          "type": "bool"
        }
      ],
      "stateMutability": "view",
      "type": "function"
    },
    {
      "inputs": [],
      "name": "totalEmployers",
      "outputs": [
        {
          "internalType": "uint256",
          "name": "",
          "type": "uint256"
        }
      ],
      "stateMutability": "view",
      "type": "function"
    },
    {
      "inputs": [
        {
          "internalType": "string",
          "name": "_companyName",
          "type": "string"
        },
        {
          "internalType": "string",
          "name": "_vatNumber",
          "type": "string"
        }
      ],
      "name": "updateEmployer",
      "outputs": [],
      "stateMutability": "nonpayable",
      "type": "function"
    },
    {
      "inputs": [
        {
          "internalType": "address",
          "name": "newImplementation",
          "type": "address"
        },
        {
          "internalType": "bytes",
          "name": "data",
          "type": "bytes"
        }
      ],
      "name": "upgradeToAndCall",
      "outputs": [],
      "stateMutability": "payable",
      "type": "function"
    }
  ],
  "bytecode": "0x60a080604052346100cc57306080527ff0c57e16840df040f15088dc2f81fe391c3923bec73e23a9662efc9c229c6a009081549060ff8260401c166100bd57506001600160401b036002600160401b031982821601610078575b60405161217390816100d2823960805181818161106801526111210152f35b6001600160401b031990911681179091556040519081527fc7f505b2f371ae2175ee4913f4499e1f2633a7b5936321eed1cdaeb6115181d290602090a1388080610059565b63f92ee8a960e01b8152600490fd5b600080fdfe608080604052600436101561001357600080fd5b60003560e01c90816301608344146118025750806301ffc9a7146117ad57806309c91e42146116cf5780630be435bd1461163657806314c671d6146115a55780631906b4ce146115875780631b1fcb041461155e5780631e096e1a1461151c578063248a9ca3146114e05780632f2ff15d1461149457806336568abe1461144d578063399bdf2a14611358578063417d6c99146113005780634f1ef286146110d257806352d1902d146110555780637560d4ce14610f3e57806375b238fc14610f0357806391d1485414610ea95780639d4dd4dd1461077f578063a217fddf14610763578063a9ac08f614610687578063ad3cb1cc1461062b578063c4d66de8146104f0578063ced7f449146104c7578063d44b90c1146101905763d547741f1461013d57600080fd5b3461018b57604036600319011261018b5761018960043561015c611983565b908060005260008051602061211e833981519152602052610184600160406000200154611dda565b611ff6565b005b600080fd5b3461018b5761019e36611bb9565b90336000526020600081526101c160018060a01b03604060002054161515611c20565b336000526000815260ff600460406000200154161561048d576101e682511515611c5d565b6101f283511515611ca1565b33600052600081526001806040600020019083516001600160401b03928382116103c4576102208154611999565b91601f92838111610447575b5080868482116001146103e5576000916103da575b50600019600383901b1c191690841b1790555b336000526000845260026040600020019386519384116103c4576102788554611999565b82811161037e575b50809184116001146102f157509180806102e195937f01674e86b11a902e93c4099786f16ce0b38f5eddd72803e51444d4bf93621c7b97956000936102e6575b501b916000199060031b1c19161790555b6040519182913395429184611d32565b0390a2005b8901519250896102c0565b90601f9392931983168560005282600020926000905b8282106103675750509183916102e196947f01674e86b11a902e93c4099786f16ce0b38f5eddd72803e51444d4bf93621c7b9896941061034e575b5050811b0190556102d1565b88015160001960f88460031b161c191690558780610342565b808785968294968d01518155019501930190610307565b85600052816000208380870160051c8201928488106103bb575b0160051c019084905b8281106103af575050610280565b600081550184906103a1565b92508192610398565b634e487b7160e01b600052604160045260246000fd5b905087015189610241565b859250601f1982169084600052886000209160005b8a8c838310610432575050508311610419575b5050811b019055610254565b89015160001960f88460031b161c19169055898061040d565b840151855589969094019392830192016103fa565b82600052866000208480840160051c820192898510610484575b0160051c019085905b82811061047857505061022c565b6000815501859061046a565b92508192610461565b6064906040519062461bcd60e51b8252600482015260136024820152721058d8dbdd5b9d0819195858dd1a5d985d1959606a1b6044820152fd5b3461018b57600036600319011261018b576004546040516001600160a01b039091168152602090f35b3461018b57602036600319011261018b5761050961196d565b7ff0c57e16840df040f15088dc2f81fe391c3923bec73e23a9662efc9c229c6a0090815460ff8160401c1615916001600160401b03821680159081610623575b6001149081610619575b159081610610575b506105fe5767ffffffffffffffff198216600117845561059b91836105df575b50610584612079565b61058c612079565b61059581611e0d565b50611ead565b506105a257005b68ff00000000000000001981541690557fc7f505b2f371ae2175ee4913f4499e1f2633a7b5936321eed1cdaeb6115181d2602060405160018152a1005b68ffffffffffffffffff1916680100000000000000011784558461057b565b60405163f92ee8a960e01b8152600490fd5b9050158561055b565b303b159150610553565b849150610549565b3461018b57600036600319011261018b5760405160408101908082106001600160401b038311176103c4576106839160405260058152640352e302e360dc1b6020820152604051918291602083526020830190611ad7565b0390f35b3461018b5760208060031936011261018b576106a161196d565b906106aa611d60565b6001600160a01b039182166000818152808352604090205490926106d091161515611c20565b816000526000815260ff6004604060002001541661072e577fd25839af87e0a4b08525e2e30380d66a2bb54c1a59f5d7f394282c54fc3890549082600052600081526004604060002001600160ff19825416179055604051428152a2005b6064906040519062461bcd60e51b82526004820152600e60248201526d416c72656164792061637469766560901b6044820152fd5b3461018b57600036600319011261018b57602060405160008152f35b3461018b5761078d36611bb9565b9061079a81511515611c5d565b6107a682511515611ca1565b336000908152602081905260409020546001600160a01b0316610e6f573360009081527fb16e88c42fd4e48df2dd6a2eabd6bc9aec654ec170056b470819f8892cc6431c602052604090205460ff16610e20576003546001600160a01b031680610caa575b506004546001600160a01b031680610b83575b5060405161082b816119d3565b338152602081018281528360408301524260608301526001608083015233600052600060205260406000209060018060a01b038351166bffffffffffffffffffffffff60a01b835416178255518051906001600160401b0382116103c45781906108986001850154611999565b601f8111610b30575b50602090601f8311600114610abe57600092610ab3575b50508160011b916000199060031b1c19161760018201555b60408201518051906001600160401b0382116103c4576108f36002840154611999565b601f8111610a6c575b50602090601f83116001146109f9579180608094926004946000926109ee575b50508160011b916000199060031b1c19161760028201555b6060840151600382015501910151151560ff80198354169116179055600154680100000000000000008110156103c4578060016109749201600155611afc565b81546001600160a01b0360039290921b91821b19163390911b17905560025460001981146109d8577f7104b95a65267023d0be4f0b339405176091006cae7db6422131a063c91eabea9160016102e192016002556040519182913395429184611d32565b634e487b7160e01b600052601160045260246000fd5b01519050888061091c565b90601f198316916002850160005260206000209260005b818110610a5457509260019285926004966080989610610a3b575b505050811b016002820155610934565b015160001960f88460031b161c19169055888080610a2b565b92936020600181928786015181550195019301610a10565b600284016000526020600020601f840160051c810160208510610aac575b601f830160051c82018110610aa05750506108fc565b60008155600101610a8a565b5080610a8a565b0151905086806108b8565b9250600184016000526020600020906000935b601f1984168510610b15576001945083601f19811610610afc575b505050811b0160018201556108d0565b015160001960f88460031b161c19169055868080610aec565b81810151835560209485019460019093019290910190610ad1565b909150600184016000526020600020601f840160051c810160208510610b7c575b90849392915b601f830160051c82018110610b6d5750506108a1565b60008155859450600101610b57565b5080610b51565b600060249160405192838092631d4124a360e31b82523360048301525afa908115610c9e57600091610c0d575b5051610bbc578261081e565b60405162461bcd60e51b815260206004820152602360248201527f53747564656e742063616e6e6f7420726567697374657220617320656d706c6f6044820152623cb2b960e91b6064820152608490fd5b90503d806000833e610c1f81836119ee565b81019060208183031261018b578051906001600160401b03821161018b57019080601f8301121561018b578151610c5581611c09565b92610c6360405194856119ee565b81845260208085019260051b82010192831161018b57602001905b828210610c8e5750505083610bb0565b8151815260209182019101610c7e565b6040513d6000823e3d90fd5b60006024916040519283809263388cc91b60e11b82523360048301525afa908115610c9e57600091610d43575b50604001516001600160a01b0316610cef578261080b565b60405162461bcd60e51b815260206004820152602660248201527f556e69766572736974792063616e6e6f7420726567697374657220617320656d604482015265383637bcb2b960d11b6064820152608490fd5b90503d806000833e610d5581836119ee565b81019060208183031261018b5780516001600160401b039182821161018b57019060e08284031261018b576040519260e08401848110838211176103c457604052825182811161018b5781610dab918501611ce3565b8452602083015191821161018b57610dc4918301611ce3565b60208301526040810151906001600160a01b038216820361018b5760c0916040840152610df360608201611d25565b6060840152610e0460808201611d25565b608084015260a081015160a0840152015160c082015283610cd7565b60405162461bcd60e51b815260206004820152602160248201527f41646d696e2063616e6e6f7420726567697374657220617320656d706c6f79656044820152603960f91b6064820152608490fd5b60405162461bcd60e51b8152602060048201526012602482015271105b1c9958591e481c9959da5cdd195c995960721b6044820152606490fd5b3461018b57604036600319011261018b57610ec2611983565b60043560005260008051602061211e83398151915260205260406000209060018060a01b0316600052602052602060ff604060002054166040519015158152f35b3461018b57600036600319011261018b5760206040517fa49807205ce4d355092ef5a8a18f56e8913cf4a201fbe287825b095693c217758152f35b3461018b5760208060031936011261018b57610f5861196d565b9060006080604051610f69816119d3565b82815260608482015260606040820152826060820152015260018060a01b038092168060005260008252610fa583604060002054161515611c20565b60005260008152604060002060405191610fbe836119d3565b838254168352611042610fd360018401611a0f565b82850190815261102f610fe860028601611a0f565b916040870192835260ff600460038801549760608a0198895201541694608088019515158652604051988998828a525116908801525160a0604088015260c0870190611ad7565b9051858203601f19016060870152611ad7565b9151608084015251151560a08301520390f35b3461018b57600036600319011261018b577f00000000000000000000000000000000000000000000000000000000000000006001600160a01b031630036110c05760206040517f360894a13ba1a3210667c828492db98dca3e2076cc3735a920a3ca505d382bbc8152f35b60405163703e46dd60e11b8152600490fd5b604036600319011261018b576110e661196d565b6024356001600160401b03811161018b573660238201121561018b57611116903690602481600401359101611b64565b906001600160a01b037f000000000000000000000000000000000000000000000000000000000000000081163081149081156112d2575b506110c05761115a611d60565b6040516352d1902d60e01b8152908216916020918281600481875afa600091816112a3575b5061119d57604051634c9c8ce360e01b815260048101859052602490fd5b9284937f360894a13ba1a3210667c828492db98dca3e2076cc3735a920a3ca505d382bbc9081810361128b5750823b156112725780546001600160a01b03191682179055604051907fbc7cd75a20ee27fd9adebab32041f755214dbc6bffa90cc0225b39da2e5c2d3b600080a28351156112585750600080848461018996519101845af4903d1561124f573d61123281611b49565b9061124060405192836119ee565b8152600081943d92013e6120ba565b606092506120ba565b925050503461126357005b63b398979f60e01b8152600490fd5b604051634c9c8ce360e01b815260048101839052602490fd5b60249060405190632a87526960e21b82526004820152fd5b9091508381813d83116112cb575b6112bb81836119ee565b8101031261018b5751908661117f565b503d6112b1565b9050817f360894a13ba1a3210667c828492db98dca3e2076cc3735a920a3ca505d382bbc541614158461114d565b3461018b57602036600319011261018b5760206001600160a01b038061132461196d565b166000526000825260406000209081541615159081611349575b506040519015158152f35b60ff915060040154168261133e565b3461018b57604036600319011261018b5761137161196d565b611379611983565b90611382611d60565b6001600160a01b0390811691821561140857169081156113c3576bffffffffffffffffffffffff60a01b908160035416176003556004541617600455600080f35b60405162461bcd60e51b815260206004820152601c60248201527f496e76616c6964206365727469666963617465207265676973747279000000006044820152606490fd5b60405162461bcd60e51b815260206004820152601c60248201527f496e76616c696420696e737469747574696f6e207265676973747279000000006044820152606490fd5b3461018b57604036600319011261018b57611466611983565b336001600160a01b038216036114825761018990600435611ff6565b60405163334bd91960e11b8152600490fd5b3461018b57604036600319011261018b576101896004356114b3611983565b908060005260008051602061211e8339815191526020526114db600160406000200154611dda565b611f6f565b3461018b57602036600319011261018b5760043560005260008051602061211e8339815191526020526020600160406000200154604051908152f35b3461018b57602036600319011261018b5760043560015481101561018b57611545602091611afc565b905460405160039290921b1c6001600160a01b03168152f35b3461018b57600036600319011261018b576003546040516001600160a01b039091168152602090f35b3461018b57600036600319011261018b576020600254604051908152f35b3461018b57600036600319011261018b57604051806001916001549283825260208092019360016000527fb10e2d527612073b26eecdfd717e6a320cf44b4afac2b0732d9fcbe2b7fa0cf6926000905b828210611618576106838661160c818a03826119ee565b60405191829182611928565b84546001600160a01b031687529586019593830193908301906115f5565b3461018b57602036600319011261018b576001600160a01b038061165861196d565b16600052600060205260406000209081541661167660018301611a0f565b9161168360028201611a0f565b6116be60ff6004600385015494015416916116b0604051968796875260a0602088015260a0870190611ad7565b908582036040870152611ad7565b916060840152151560808301520390f35b3461018b5760208060031936011261018b576116e961196d565b906116f2611d60565b6001600160a01b0391821660008181528083526040902054909261171891161515611c20565b816000526000815260ff6004604060002001541615611773577e41a6cafbbc529a88f0ee334249b6fdbbce88837bd4f5df654a70fbd412b972908260005260008152600460406000200160ff198154169055604051428152a2005b6064906040519062461bcd60e51b825260048201526013602482015272105b1c9958591e4819195858dd1a5d985d1959606a1b6044820152fd5b3461018b57602036600319011261018b5760043563ffffffff60e01b811680910361018b57602090637965db0b60e01b81149081156117f157506040519015158152f35b6301ffc9a760e01b1490508261133e565b3461018b57604036600319011261018b5760043560249160019260015491828410156118ef57506024358301918284116109d8578083116118e7575b506118498383611bfc565b9261186c61185685611c09565b9461186460405196876119ee565b808652611c09565b60209190601f19013686840137805b84811061189057604051806106838882611928565b61189981611afc565b9054906118a68484611bfc565b9188518310156118d25760039190911b1c6001600160a01b031660059190911b8701840152860161187b565b86634e487b7160e01b60005260326004526000fd5b91508461183e565b62461bcd60e51b81526020600482015260146024820152734f6666736574206f7574206f6620626f756e647360601b6044820152606490fd5b602090602060408183019282815285518094520193019160005b828110611950575050505090565b83516001600160a01b031685529381019392810192600101611942565b600435906001600160a01b038216820361018b57565b602435906001600160a01b038216820361018b57565b90600182811c921680156119c9575b60208310146119b357565b634e487b7160e01b600052602260045260246000fd5b91607f16916119a8565b60a081019081106001600160401b038211176103c457604052565b90601f801991011681019081106001600160401b038211176103c457604052565b90604051918260008254611a2281611999565b90818452602094600191600181169081600014611a925750600114611a53575b505050611a51925003836119ee565b565b600090815285812095935091905b818310611a7a575050611a519350820101388080611a42565b85548884018501529485019487945091830191611a61565b92505050611a5194925060ff191682840152151560051b820101388080611a42565b60005b838110611ac75750506000910152565b8181015183820152602001611ab7565b90602091611af081518092818552858086019101611ab4565b601f01601f1916010190565b600154811015611b335760016000527fb10e2d527612073b26eecdfd717e6a320cf44b4afac2b0732d9fcbe2b7fa0cf60190600090565b634e487b7160e01b600052603260045260246000fd5b6001600160401b0381116103c457601f01601f191660200190565b929192611b7082611b49565b91611b7e60405193846119ee565b82948184528183011161018b578281602093846000960137010152565b9080601f8301121561018b57816020611bb693359101611b64565b90565b90604060031983011261018b576001600160401b0360043581811161018b5783611be591600401611b9b565b9260243591821161018b57611bb691600401611b9b565b919082039182116109d857565b6001600160401b0381116103c45760051b60200190565b15611c2757565b60405162461bcd60e51b815260206004820152600e60248201526d139bdd081c9959da5cdd195c995960921b6044820152606490fd5b15611c6457565b60405162461bcd60e51b815260206004820152601560248201527410dbdb5c185b9e481b985b59481c995c5d5a5c9959605a1b6044820152606490fd5b15611ca857565b60405162461bcd60e51b8152602060048201526013602482015272159055081b9d5b58995c881c995c5d5a5c9959606a1b6044820152606490fd5b81601f8201121561018b578051611cf981611b49565b92611d0760405194856119ee565b8184526020828401011161018b57611bb69160208085019101611ab4565b5190811515820361018b57565b939291611d5b90611d4d604093606088526060880190611ad7565b908682036020880152611ad7565b930152565b3360009081527fb16e88c42fd4e48df2dd6a2eabd6bc9aec654ec170056b470819f8892cc6431c60205260409020547fa49807205ce4d355092ef5a8a18f56e8913cf4a201fbe287825b095693c217759060ff1615611dbc5750565b6044906040519063e2517d3f60e01b82523360048301526024820152fd5b8060005260008051602061211e83398151915260205260406000203360005260205260ff6040600020541615611dbc5750565b6001600160a01b031660008181527fb7db2dd08fcb62d0c9e08c51941cae53c267786a0b75803fb7960902fc8ef97d602052604081205490919060008051602061211e8339815191529060ff16611ea8578280526020526040822081835260205260408220600160ff1982541617905533917f2f8788117e7eff1d82e926ec794901d17c78024a50270940304540a733656f0d8180a4600190565b505090565b6001600160a01b031660008181527fb16e88c42fd4e48df2dd6a2eabd6bc9aec654ec170056b470819f8892cc6431c60205260408120549091907fa49807205ce4d355092ef5a8a18f56e8913cf4a201fbe287825b095693c217759060008051602061211e8339815191529060ff16611f69578184526020526040832082845260205260408320600160ff198254161790557f2f8788117e7eff1d82e926ec794901d17c78024a50270940304540a733656f0d339380a4600190565b50505090565b9060009180835260008051602061211e83398151915280602052604084209260018060a01b03169283855260205260ff60408520541615600014611f69578184526020526040832082845260205260408320600160ff198254161790557f2f8788117e7eff1d82e926ec794901d17c78024a50270940304540a733656f0d339380a4600190565b9060009180835260008051602061211e83398151915280602052604084209260018060a01b03169283855260205260ff604085205416600014611f6957818452602052604083208284526020526040832060ff1981541690557ff6391f5c32d9c69d2a47ea670b442974b53935d1edc7fd64eb21e047a839171b339380a4600190565b60ff7ff0c57e16840df040f15088dc2f81fe391c3923bec73e23a9662efc9c229c6a005460401c16156120a857565b604051631afcd79f60e31b8152600490fd5b906120e157508051156120cf57602081519101fd5b60405163d6bda27560e01b8152600490fd5b81511580612114575b6120f2575090565b604051639996b31560e01b81526001600160a01b039091166004820152602490fd5b50803b156120ea56fe02dd7bc7dec4dceedda775e58dd541e08a116c6c53815c0bd028192f7b626800a264697066735822122041f552cf03defbf913248f51d8bd4aa2dba30b696af11b64019b71720e5e6a5664736f6c63430008180033",
  "linkReferences": {},
  "deployedLinkReferences": {}
}