{
  "_format": "hh-sol-artifact-1",
  "contractName": "InstitutionRegistry",
  "sourceName": "contracts/InstitutionRegistry.sol",
  "abi": [
    {
      "inputs": [],
      "stateMutability": "nonpayable",
      "type": "constructor"
    },
    {
      "inputs": [],
      "name": "AccessControlBadConfirmation",
      "type": "error"
    },
    {
      "inputs": [
        {
          "internalType": "address",
          "name": "account",
          "type": "address"
        },
        {
          "internalType": "bytes32",
          "name": "neededRole",
          "type": "bytes32"
        }
      ],
      "name": "AccessControlUnauthorizedAccount",
      "type": "error"
    },
    {
      "inputs": [
        {
          "internalType": "address",
          "name": "target",
          "type": "address"
        }
      ],
      "name": "AddressEmptyCode",
      "type": "error"
    },
    {
      "inputs": [],
      "name": "AdminCannotRegisterAsInstitution",
      "type": "error"
    },
    {
      "inputs": [
        {
          "internalType": "address",
          "name": "implementation",
          "type": "address"
        }
      ],
      "name": "ERC1967InvalidImplementation",
      "type": "error"
    },
    {
      "inputs": [],
      "name": "ERC1967NonPayable",
      "type": "error"
    },
    {
      "inputs": [],
      "name": "EmailDomainAlreadyRegistered",
      "type": "error"
    },
    {
      "inputs": [],
      "name": "FailedCall",
      "type": "error"
    },
    {
      "inputs": [],
      "name": "InstitutionAlreadyActive",
      "type": "error"
    },
    {
      "inputs": [],
      "name": "InstitutionAlreadyExists",
      "type": "error"
    },
    {
      "inputs": [],
      "name": "InstitutionAlreadyVerified",
      "type": "error"
    },
    {
      "inputs": [],
      "name": "InstitutionNotActive",
      "type": "error"
    },
    {
      "inputs": [],
      "name": "InstitutionNotFound",
      "type": "error"
    },
    {
      "inputs": [],
      "name": "InstitutionNotVerified",
      "type": "error"
    },
    {
      "inputs": [],
      "name": "InvalidAddress",
      "type": "error"
    },
    {
      "inputs": [],
      "name": "InvalidEmailDomain",
      "type": "error"
    },
    {
      "inputs": [],
      "name": "InvalidInitialization",
      "type": "error"
    },
    {
      "inputs": [],
      "name": "InvalidName",
      "type": "error"
    },
    {
      "inputs": [],
      "name": "NotInitializing",
      "type": "error"
    },
    {
      "inputs": [],
      "name": "ReentrancyGuardReentrantCall",
      "type": "error"
    },
    {
      "inputs": [],
      "name": "UUPSUnauthorizedCallContext",
      "type": "error"
    },
    {
      "inputs": [
        {
          "internalType": "bytes32",
          "name": "slot",
          "type": "bytes32"
        }
      ],
      "name": "UUPSUnsupportedProxiableUUID",
      "type": "error"
    },
    {
      "anonymous": false,
      "inputs": [
        {
          "indexed": false,
          "internalType": "uint64",
          "name": "version",
          "type": "uint64"
        }
      ],
      "name": "Initialized",
      "type": "event"
    },
    {
      "anonymous": false,
      "inputs": [
        {
          "indexed": true,
          "internalType": "address",
          "name": "wallet",
          "type": "address"
        },
        {
          "indexed": false,
          "internalType": "uint256",
          "name": "timestamp",
          "type": "uint256"
        }
      ],
      "name": "InstitutionApproved",
      "type": "event"
    },
    {
      "anonymous": false,
      "inputs": [
        {
          "indexed": true,
          "internalType": "address",
          "name": "wallet",
          "type": "address"
        },
        {
          "indexed": false,
          "internalType": "uint256",
          "name": "timestamp",
          "type": "uint256"
        }
      ],
      "name": "InstitutionReactivated",
      "type": "event"
    },
    {
      "anonymous": false,
      "inputs": [
        {
          "indexed": true,
          "internalType": "address",
          "name": "wallet",
          "type": "address"
        },
        {
          "indexed": false,
          "internalType": "string",
          "name": "name",
          "type": "string"
        },
        {
          "indexed": false,
          "internalType": "string",
          "name": "emailDomain",
          "type": "string"
        }
      ],
      "name": "InstitutionRegistered",
      "type": "event"
    },
    {
      "anonymous": false,
      "inputs": [
        {
          "indexed": true,
          "internalType": "address",
          "name": "wallet",
          "type": "address"
        },
        {
          "indexed": false,
          "internalType": "uint256",
          "name": "timestamp",
          "type": "uint256"
        }
      ],
      "name": "InstitutionSuspended",
      "type": "event"
    },
    {
      "anonymous": false,
      "inputs": [
        {
          "indexed": true,
          "internalType": "bytes32",
          "name": "role",
          "type": "bytes32"
        },
        {
          "indexed": true,
          "internalType": "bytes32",
          "name": "previousAdminRole",
          "type": "bytes32"
        },
        {
          "indexed": true,
          "internalType": "bytes32",
          "name": "newAdminRole",
          "type": "bytes32"
        }
      ],
      "name": "RoleAdminChanged",
      "type": "event"
    },
    {
      "anonymous": false,
      "inputs": [
        {
          "indexed": true,
          "internalType": "bytes32",
          "name": "role",
          "type": "bytes32"
        },
        {
          "indexed": true,
          "internalType": "address",
          "name": "account",
          "type": "address"
        },
        {
          "indexed": true,
          "internalType": "address",
          "name": "sender",
          "type": "address"
        }
      ],
      "name": "RoleGranted",
      "type": "event"
    },
    {
      "anonymous": false,
      "inputs": [
        {
          "indexed": true,
          "internalType": "bytes32",
          "name": "role",
          "type": "bytes32"
        },
        {
          "indexed": true,
          "internalType": "address",
          "name": "account",
          "type": "address"
        },
        {
          "indexed": true,
          "internalType": "address",
          "name": "sender",
          "type": "address"
        }
      ],
      "name": "RoleRevoked",
      "type": "event"
    },
    {
      "anonymous": false,
      "inputs": [
        {
          "indexed": true,
          "internalType": "address",
          "name": "implementation",
          "type": "address"
        }
      ],
      "name": "Upgraded",
      "type": "event"
    },
    {
      "inputs": [],
      "name": "ADMIN_ROLE",
      "outputs": [
        {
          "internalType": "bytes32",
          "name": "",
          "type": "bytes32"
        }
      ],
      "stateMutability": "view",
      "type": "function"
    },
    {
      "inputs": [],
      "name": "CERTIFICATE_REGISTRY_ROLE",
      "outputs": [
        {
          "internalType": "bytes32",
          "name": "",
          "type": "bytes32"
        }
      ],
      "stateMutability": "view",
      "type": "function"
    },
    {
      "inputs": [],
      "name": "DEFAULT_ADMIN_ROLE",
      "outputs": [
        {
          "internalType": "bytes32",
          "name": "",
          "type": "bytes32"
        }
      ],
      "stateMutability": "view",
      "type": "function"
    },
    {
      "inputs": [],
      "name": "UPGRADE_INTERFACE_VERSION",
      "outputs": [
        {
          "internalType": "string",
          "name": "",
          "type": "string"
        }
      ],
      "stateMutability": "view",
      "type": "function"
    },
    {
      "inputs": [],
      "name": "VERSION",
      "outputs": [
        {
          "internalType": "string",
          "name": "",
          "type": "string"
        }
      ],
      "stateMutability": "view",
      "type": "function"
    },
    {
      "inputs": [
        {
          "internalType": "address",
          "name": "wallet",
          "type": "address"
        }
      ],
      "name": "approveInstitution",
      "outputs": [],
      "stateMutability": "nonpayable",
      "type": "function"
    },
    {
      "inputs": [
        {
          "internalType": "address",
          "name": "wallet",
          "type": "address"
        }
      ],
      "name": "canIssueCertificates",
      "outputs": [
        {
          "internalType": "bool",
          "name": "",
          "type": "bool"
        }
      ],
      "stateMutability": "view",
      "type": "function"
    },
    {
      "inputs": [
        {
          "internalType": "string",
          "name": "",
          "type": "string"
        }
      ],
      "name": "emailDomainToAddress",
      "outputs": [
        {
          "internalType": "address",
          "name": "",
          "type": "address"
        }
      ],
      "stateMutability": "view",
      "type": "function"
    },
    {
      "inputs": [],
      "name": "getAllInstitutions",
      "outputs": [
        {
          "internalType": "address[]",
          "name": "",
          "type": "address[]"
        }
      ],
      "stateMutability": "view",
      "type": "function"
    },
    {
      "inputs": [
        {
          "internalType": "address",
          "name": "wallet",
          "type": "address"
        }
      ],
      "name": "getInstitution",
      "outputs": [
        {
          "components": [
            {
              "internalType": "string",
              "name": "name",
              "type": "string"
            },
            {
              "internalType": "string",
              "name": "emailDomain",
              "type": "string"
            },
            {
              "internalType": "address",
              "name": "walletAddress",
              "type": "address"
            },
            {
              "internalType": "bool",
              "name": "isVerified",
              "type": "bool"
            },
            {
              "internalType": "bool",
              "name": "isActive",
              "type": "bool"
            },
            {
              "internalType": "uint256",
              "name": "verificationDate",
              "type": "uint256"
            },
            {
              "internalType": "uint256",
              "name": "totalCertificatesIssued",
              "type": "uint256"
            }
          ],
          "internalType": "struct IInstitutionRegistry.Institution",
          "name": "",
          "type": "tuple"
        }
      ],
      "stateMutability": "view",
      "type": "function"
    },
    {
      "inputs": [
        {
          "internalType": "string",
          "name": "emailDomain",
          "type": "string"
        }
      ],
      "name": "getInstitutionByDomain",
      "outputs": [
        {
          "internalType": "address",
          "name": "wallet",
          "type": "address"
        }
      ],
      "stateMutability": "view",
      "type": "function"
    },
    {
      "inputs": [],
      "name": "getInstitutionCount",
      "outputs": [
        {
          "internalType": "uint256",
          "name": "",
          "type": "uint256"
        }
      ],
      "stateMutability": "view",
      "type": "function"
    },
    {
      "inputs": [],
      "name": "getInstitutionStats",
      "outputs": [
        {
          "internalType": "uint256",
          "name": "totalRegistered",
          "type": "uint256"
        },
        {
          "internalType": "uint256",
          "name": "totalVerified",
          "type": "uint256"
        },
        {
          "internalType": "uint256",
          "name": "totalActive",
          "type": "uint256"
        },
        {
          "internalType": "uint256",
          "name": "totalSuspended",
          "type": "uint256"
        }
      ],
      "stateMutability": "view",
      "type": "function"
    },
    {
      "inputs": [
        {
          "internalType": "uint256",
          "name": "offset",
          "type": "uint256"
        },
        {
          "internalType": "uint256",
          "name": "limit",
          "type": "uint256"
        }
      ],
      "name": "getInstitutionsPaginated",
      "outputs": [
        {
          "internalType": "address[]",
          "name": "institutionAddresses",
          "type": "address[]"
        },
        {
          "components": [
            {
              "internalType": "string",
              "name": "name",
              "type": "string"
            },
            {
              "internalType": "string",
              "name": "emailDomain",
              "type": "string"
            },
            {
              "internalType": "address",
              "name": "walletAddress",
              "type": "address"
            },
            {
              "internalType": "bool",
              "name": "isVerified",
              "type": "bool"
            },
            {
              "internalType": "bool",
              "name": "isActive",
              "type": "bool"
            },
            {
              "internalType": "uint256",
              "name": "verificationDate",
              "type": "uint256"
            },
            {
              "internalType": "uint256",
              "name": "totalCertificatesIssued",
              "type": "uint256"
            }
          ],
          "internalType": "struct IInstitutionRegistry.Institution[]",
          "name": "institutionData",
          "type": "tuple[]"
        },
        {
          "internalType": "uint256",
          "name": "total",
          "type": "uint256"
        }
      ],
      "stateMutability": "view",
      "type": "function"
    },
    {
      "inputs": [
        {
          "internalType": "bytes32",
          "name": "role",
          "type": "bytes32"
        }
      ],
      "name": "getRoleAdmin",
      "outputs": [
        {
          "internalType": "bytes32",
          "name": "",
          "type": "bytes32"
        }
      ],
      "stateMutability": "view",
      "type": "function"
    },
    {
      "inputs": [],
      "name": "getUpgradeHistory",
      "outputs": [
        {
          "components": [
            {
              "internalType": "string",
              "name": "version",
              "type": "string"
            },
            {
              "internalType": "uint256",
              "name": "timestamp",
              "type": "uint256"
            },
            {
              "internalType": "address",
              "name": "upgrader",
              "type": "address"
            },
            {
              "internalType": "string",
              "name": "notes",
              "type": "string"
            }
          ],
          "internalType": "struct InstitutionRegistry.UpgradeInfo[]",
          "name": "",
          "type": "tuple[]"
        }
      ],
      "stateMutability": "view",
      "type": "function"
    },
    {
      "inputs": [],
      "name": "getVersion",
      "outputs": [
        {
          "internalType": "string",
          "name": "",
          "type": "string"
        }
      ],
      "stateMutability": "pure",
      "type": "function"
    },
    {
      "inputs": [
        {
          "internalType": "bytes32",
          "name": "role",
          "type": "bytes32"
        },
        {
          "internalType": "address",
          "name": "account",
          "type": "address"
        }
      ],
      "name": "grantRole",
      "outputs": [],
      "stateMutability": "nonpayable",
      "type": "function"
    },
    {
      "inputs": [
        {
          "internalType": "bytes32",
          "name": "role",
          "type": "bytes32"
        },
        {
          "internalType": "address",
          "name": "account",
          "type": "address"
        }
      ],
      "name": "hasRole",
      "outputs": [
        {
          "internalType": "bool",
          "name": "",
          "type": "bool"
        }
      ],
      "stateMutability": "view",
      "type": "function"
    },
    {
      "inputs": [
        {
          "internalType": "address",
          "name": "wallet",
          "type": "address"
        }
      ],
      "name": "incrementCertificateCount",
      "outputs": [],
      "stateMutability": "nonpayable",
      "type": "function"
    },
    {
      "inputs": [
        {
          "internalType": "address",
          "name": "superAdmin",
          "type": "address"
        }
      ],
      "name": "initialize",
      "outputs": [],
      "stateMutability": "nonpayable",
      "type": "function"
    },
    {
      "inputs": [
        {
          "internalType": "uint256",
          "name": "",
          "type": "uint256"
        }
      ],
      "name": "institutionList",
      "outputs": [
        {
          "internalType": "address",
          "name": "",
          "type": "address"
        }
      ],
      "stateMutability": "view",
      "type": "function"
    },
    {
      "inputs": [
        {
          "internalType": "address",
          "name": "",
          "type": "address"
        }
      ],
      "name": "institutions",
      "outputs": [
        {
          "internalType": "string",
          "name": "name",
          "type": "string"
        },
        {
          "internalType": "string",
          "name": "emailDomain",
          "type": "string"
        },
        {
          "internalType": "address",
          "name": "walletAddress",
          "type": "address"
        },
        {
          "internalType": "bool",
          "name": "isVerified",
          "type": "bool"
        },
        {
          "internalType": "bool",
          "name": "isActive",
          "type": "bool"
        },
        {
          "internalType": "uint256",
          "name": "verificationDate",
          "type": "uint256"
        },
        {
          "internalType": "uint256",
          "name": "totalCertificatesIssued",
          "type": "uint256"
        }
      ],
      "stateMutability": "view",
      "type": "function"
    },
    {
      "inputs": [],
      "name": "proxiableUUID",
      "outputs": [
        {
          "internalType": "bytes32",
          "name": "",
          "type": "bytes32"
        }
      ],
      "stateMutability": "view",
      "type": "function"
    },
    {
      "inputs": [
        {
          "internalType": "address",
          "name": "wallet",
          "type": "address"
        }
      ],
      "name": "reactivateInstitution",
      "outputs": [],
      "stateMutability": "nonpayable",
      "type": "function"
    },
    {
      "inputs": [
        {
          "internalType": "string",
          "name": "newVersion",
          "type": "string"
        },
        {
          "internalType": "string",
          "name": "notes",
          "type": "string"
        }
      ],
      "name": "recordUpgrade",
      "outputs": [],
      "stateMutability": "nonpayable",
      "type": "function"
    },
    {
      "inputs": [
        {
          "internalType": "string",
          "name": "name",
          "type": "string"
        },
        {
          "internalType": "string",
          "name": "emailDomain",
          "type": "string"
        }
      ],
      "name": "registerInstitution",
      "outputs": [],
      "stateMutability": "nonpayable",
      "type": "function"
    },
    {
      "inputs": [
        {
          "internalType": "address",
          "name": "wallet",
          "type": "address"
        },
        {
          "internalType": "string",
          "name": "name",
          "type": "string"
        },
        {
          "internalType": "string",
          "name": "emailDomain",
          "type": "string"
        }
      ],
      "name": "registerInstitutionByAdmin",
      "outputs": [],
      "stateMutability": "nonpayable",
      "type": "function"
    },
    {
      "inputs": [
        {
          "internalType": "bytes32",
          "name": "role",
          "type": "bytes32"
        },
        {
          "internalType": "address",
          "name": "callerConfirmation",
          "type": "address"
        }
      ],
      "name": "renounceRole",
      "outputs": [],
      "stateMutability": "nonpayable",
      "type": "function"
    },
    {
      "inputs": [
        {
          "internalType": "bytes32",
          "name": "role",
          "type": "bytes32"
        },
        {
          "internalType": "address",
          "name": "account",
          "type": "address"
        }
      ],
      "name": "revokeRole",
      "outputs": [],
      "stateMutability": "nonpayable",
      "type": "function"
    },
    {
      "inputs": [
        {
          "internalType": "address",
          "name": "certificateRegistry",
          "type": "address"
        }
      ],
      "name": "setCertificateRegistry",
      "outputs": [],
      "stateMutability": "nonpayable",
      "type": "function"
    },
    {
      "inputs": [
        {
          "internalType": "bytes4",
          "name": "interfaceId",
          "type": "bytes4"
        }
      ],
      "name": "supportsInterface",
      "outputs": [
        {
          "internalType": "bool",
          "name": "",
          "type": "bool"
        }
      ],
      "stateMutability": "view",
      "type": "function"
    },
    {
      "inputs": [
        {
          "internalType": "address",
          "name": "wallet",
          "type": "address"
        }
      ],
      "name": "suspendInstitution",
      "outputs": [],
      "stateMutability": "nonpayable",
      "type": "function"
    },
    {
      "inputs": [
        {
          "internalType": "uint256",
          "name": "",
          "type": "uint256"
        }
      ],
      "name": "upgradeHistory",
      "outputs": [
        {
          "internalType": "string",
          "name": "version",
          "type": "string"
        },
        {
          "internalType": "uint256",
          "name": "timestamp",
          "type": "uint256"
        },
        {
          "internalType": "address",
          "name": "upgrader",
          "type": "address"
        },
        {
          "internalType": "string",
          "name": "notes",
          "type": "string"
        }
      ],
      "stateMutability": "view",
      "type": "function"
    },
    {
      "inputs": [
        {
          "internalType": "address",
          "name": "newImplementation",
          "type": "address"
        },
        {
          "internalType": "bytes",
          "name": "data",
          "type": "bytes"
        }
      ],
      "name": "upgradeToAndCall",
      "outputs": [],
      "stateMutability": "payable",
      "type": "function"
    }
  ],
  "bytecode": "0x60a080604052346100cd57306080527ff0c57e16840df040f15088dc2f81fe391c3923bec73e23a9662efc9c229c6a009081549060ff8260401c166100be57506001600160401b036002600160401b031982821601610079575b604051612daf9081620000d38239608051818181611c150152611cce0152f35b6001600160401b031990911681179091556040519081527fc7f505b2f371ae2175ee4913f4499e1f2633a7b5936321eed1cdaeb6115181d290602090a1388080610059565b63f92ee8a960e01b8152600490fd5b600080fdfe608080604052600436101561001357600080fd5b60003560e01c90816301ffc9a714612194575080630d8e6e2c146101a05780631934cccc1461211b578063248a9ca3146120df5780632f2ff15d146120935780632fd9b70214611fe857806336568abe14611fa15780634104180e14611f085780634217c7f814611ead5780634f1ef28614611c7f57806352d1902d14611c0257806352d30c981461174c578063579b6a4a1461172e5780636f0e1e48146116d25780636f47f5dd1461169957806371199236146115e657806375b238fc146115ab57806382c3fc031461157057806391d148541461151657806398f211dc1461124c578063a217fddf14611230578063a354e08e14611170578063ad3cb1cc1461112a578063b2d9767f1461107a578063bb569ca414610fdf578063bf6565d614610f12578063c4d66de814610a7a578063c6b5c5cc1461062e578063d547741f146105e0578063e1a37ea514610487578063ebc26ac814610445578063ed53649414610396578063f171d39714610290578063f466fe13146101d95763ffa1ad74146101a057600080fd5b346101d45760003660031901126101d4576101d06101bc6125bd565b60405191829160208352602083019061220a565b0390f35b600080fd5b346101d45760203660031901126101d4576101f2612324565b3360009081527f25bd5b05d04f0db909d6350656d04903d8638654547f44d5956314846d645bce60205260409020547f5e77d606cde660de6e89a084f347c557c5f3d8a234bff3f838a0a5f794279cce9060ff1615610272575060018060a01b03166000526000602052600460406000200161026e8154612899565b9055005b6044906040519063e2517d3f60e01b82523360048301526024820152fd5b346101d45760203660031901126101d4576004356003548110156101d45761037e90600360005260021b6101d06102e8827fc2575a0e9e593c00f959f8c92f12db2869c3395a3b0502d05e2516446f71f85b01612491565b7fc2575a0e9e593c00f959f8c92f12db2869c3395a3b0502d05e2516446f71f85c8301547fc2575a0e9e593c00f959f8c92f12db2869c3395a3b0502d05e2516446f71f85d840154919390916001600160a01b031690610369907fc2575a0e9e593c00f959f8c92f12db2869c3395a3b0502d05e2516446f71f85e01612491565b9060405195869560808752608087019061220a565b9260208601526040850152838203606085015261220a565b346101d45760203660031901126101d4576103af612324565b6103b76128a8565b60018060a01b03809116908160005260006020526002604060002001908154908116156104335760ff8160a81c16156104215760ff60a81b191690556040514281527f35a850d5ce55a9ed728e8aae24706e9947f1050ad4e0acde56202c34400cb2a890602090a2005b604051630467973360e01b8152600490fd5b604051631c26b84160e01b8152600490fd5b346101d45760203660031901126101d4576004356001548110156101d45761046e602091612536565b905460405160039290921b1c6001600160a01b03168152f35b346101d45760003660031901126101d457600380546104a58161269f565b916104b3604051938461229b565b818352602091828401809260036000527fc2575a0e9e593c00f959f8c92f12db2869c3395a3b0502d05e2516446f71f85b906000925b84841061058657604080518881528951818a01819052600092600582901b83018101918a918c9085015b8287106105205785850386f35b909192938280610576600193603f198a8203018652885161054a608082519080855284019061220a565b918482015185820152868060a01b0360408301511660408201526060809201519181840391015261220a565b9601920196019592919092610513565b60048760019260409a999a5161059b8161224a565b6105a487612491565b81528487015483820152848060a01b0360028801541660408201526105ca868801612491565b60608201528152019301930192919695966104e9565b346101d45760403660031901126101d45761062c6004356105ff61230e565b9080600052600080516020612d1a833981519152602052610627600160406000200154612904565b612b94565b005b346101d45761063c3661240d565b9291610646612c17565b8015610a68578315610a5657336000908152602081905260409020600201546001600160a01b0316610a44576040518483823760028186019081528190036020019020546001600160a01b0316610a3257604051936106a48561222f565b6106af3683866122d7565b85526106bc3682856122d7565b60208601523360408601526000606086015260006080860152600060a0860152600060c086015233600052600060205260406000209480518051906001600160401b03821161095b5781906107118954612457565b601f81116109e2575b50602090601f831160011461097c57600092610971575b50508160011b916000199060031b1c19161786555b60208101519586516001600160401b03811161095b576107696001830154612457565b601f8111610914575b506020601f821160011461088f57908061086d95949392600080516020612cfa833981519152999a600092610884575b50508160011b916000199060031b1c19161760018201555b6040820151600282018054606085015160ff60a01b90151560a01b166001600160a01b039093166001600160a81b0319909116179190911781556001600160a01b03199260049160c09190610829905b6080830151815460ff60a81b191690151560a81b60ff60a81b16179055565b60a081015160038501550151910155610841336125de565b60405182868237602081848101600281520301902090339082541617905560405193849333978561263c565b0390a26001600080516020612d3a83398151915255005b015190508a806107a2565b6001830160005260206000209860005b601f19841681106108fc575091600080516020612cfa833981519152989960019261086d9796959483601f198116106108e3575b505050811b0160018201556107ba565b015160001960f88460031b161c191690558a80806108d3565b828201518b556001909a01996020928301920161089f565b600183016000526020600020601f830160051c810160208410610954575b601f830160051c82018110610948575050610772565b60008155600101610932565b5080610932565b634e487b7160e01b600052604160045260246000fd5b015190508880610731565b60008a8152602081209350601f198516905b8181106109ca57509084600195949392106109b1575b505050811b018655610746565b015160001960f88460031b161c191690558880806109a4565b9293602060018192878601518155019501930161098e565b909150886000526020600020601f840160051c810160208510610a2b575b90849392915b601f830160051c82018110610a1c57505061071a565b60008155859450600101610a06565b5080610a00565b6040516305bf278d60e21b8152600490fd5b604051630157f48960e31b8152600490fd5b60405163556fc8e360e11b8152600490fd5b60405163430f13b360e01b8152600490fd5b346101d45760203660031901126101d457610a93612324565b600080516020612d5a83398151915254906001600160401b03821680159081610f02575b6001149081610ef8575b159081610eef575b50610edd5760016001600160401b0319831617600080516020612d5a8339815191525560ff8260401c1615610eb0575b6001600160a01b03811615610e9e57610b4d90610b14612c47565b610b1c612c47565b610b24612c47565b610b2c612c47565b6001600080516020612d3a83398151915255610b47816129e7565b50612a75565b50610b566125bd565b9060405191610b648361224a565b8252426020830152336040830152604051610b7e81612265565b6012815271125b9a5d1a585b0819195c1b1bde5b595b9d60721b60208201526060830152600354600160401b81101561095b57806001610bc19201600355612583565b610e885782518051906001600160401b03821161095b57610be28354612457565b601f8111610e44575b50602090601f8311600114610dd657918060609492600394600092610dcb575b50508160011b9160001990851b1c19161781555b602085015160018201556002810160018060a01b036040870151166bffffffffffffffffffffffff60a01b82541617905501920151918251926001600160401b03841161095b57610c708254612457565b601f8111610d83575b50602090601f8511600114610d195760ff949160009183610d0e575b50508160011b916000199060031b1c19161790555b60401c1615610cb557005b68ff000000000000000019600080516020612d5a8339815191525416600080516020612d5a833981519152557fc7f505b2f371ae2175ee4913f4499e1f2633a7b5936321eed1cdaeb6115181d2602060405160018152a1005b015190508580610c95565b90601f198516918360005260206000209260005b818110610d6b575091600193918760ff989410610d52575b505050811b019055610caa565b015160001960f88460031b161c19169055858080610d45565b92936020600181928786015181550195019301610d2d565b826000526020600020601f860160051c81019160208710610dc1575b601f0160051c01905b818110610db55750610c79565b60008155600101610da8565b9091508190610d9f565b015190508780610c0b565b908360005260206000209160005b601f1985168110610e2c5750926060949260019260039583601f19811610610e14575b505050811b018155610c1f565b015160001983871b60f8161c19169055878080610e07565b91926020600181928685015181550194019201610de4565b836000526020600020601f840160051c810160208510610e81575b601f830160051c82018110610e75575050610beb565b60008155600101610e5f565b5080610e5f565b634e487b7160e01b600052600060045260246000fd5b60405163e6c4247b60e01b8152600490fd5b68ffffffffffffffffff1982166801000000000000000117600080516020612d5a83398151915255610af9565b60405163f92ee8a960e01b8152600490fd5b90501583610ac9565b303b159150610ac1565b604084901c60ff16159150610ab7565b346101d45760003660031901126101d4576001805460008080805b848110610f50575060809450604051938452602084015260408301526060820152f35b80610f5b8792612536565b60018060a01b0391549060031b1c16600052600060205260026040600020015460ff808260a01c169182610fcf575b60a81c1680610fbf575b81610fb6575b50610fa6575b01610f2d565b93610fb090612899565b93610fa0565b90501588610f9a565b94610fc990612899565b94610f94565b94610fd990612899565b94610f8a565b346101d45760403660031901126101d457610ffe6024356004356126ed565b91906110156040519260608452606084019061233a565b6020838203818501528251908183528083019281808460051b8301019501936000915b84831061104c578780888b60408301520390f35b909192939495848061106a600193601f198682030187528a516123a4565b9801930193019194939290611038565b346101d45760203660031901126101d4576110ee6001600160a01b038061109f612324565b1660005260006020526040600020906110b782612491565b916110c460018201612491565b9060ff60028201546110fc600460038501549401549460405198899860e08a5260e08a019061220a565b9088820360208a015261220a565b9481166040870152818160a01c161515606087015260a81c161515608085015260a084015260c08301520390f35b346101d45760003660031901126101d4576101d060405161114a81612265565b60058152640352e302e360dc1b602082015260405191829160208352602083019061220a565b346101d45760203660031901126101d457611189612324565b6111916128a8565b60018060a01b03809116908160005260006020526002604060002001908154908116156104335760ff8160a01c161561121e5760ff8160a81c1661120c5760ff60a81b1916600160a81b1790556040514281527f2bfea66b50069ddba7202e01f1ad6beb8b3875485bb9a198e9f9fbe9cd38224590602090a2005b604051636aab598760e11b8152600490fd5b604051631c117d4160e21b8152600490fd5b346101d45760003660031901126101d457602060405160008152f35b346101d4576112806112956112603661240d565b9194909261126c6128a8565b604051956112798761224a565b36916122d7565b845242602085015233604085015236916122d7565b6060820152600354600160401b81101561095b578060016112b99201600355612583565b610e885781518051906001600160401b03821161095b576112da8354612457565b601f81116114ce575b50602090601f831160011461146257918060609492600394600092611457575b50508160011b9160001990851b1c19161781555b602084015160018201556002810160018060a01b036040860151166bffffffffffffffffffffffff60a01b825416179055019101519081516001600160401b03811161095b576113678254612457565b601f811161140f575b50602092601f82116001146113ae57928192936000926113a3575b5050600019600383901b1c191660019190911b179055005b01519050838061138b565b601f198216938360005260206000209160005b8681106113f757508360019596106113de575b505050811b019055005b015160001960f88460031b161c191690558380806113d4565b919260206001819286850151815501940192016113c1565b826000526020600020601f830160051c8101916020841061144d575b601f0160051c01905b8181106114415750611370565b60008155600101611434565b909150819061142b565b015190508680611303565b90601f198316918460005260206000209260005b8181106114b65750926001928592600396606098961061149e575b505050811b018155611317565b015160001983871b60f8161c19169055868080611491565b92936020600181928786015181550195019301611476565b836000526020600020601f840160051c8101916020851061150c575b601f0160051c01905b81811061150057506112e3565b600081556001016114f3565b90915081906114ea565b346101d45760403660031901126101d45761152f61230e565b600435600052600080516020612d1a83398151915260205260406000209060018060a01b0316600052602052602060ff604060002054166040519015158152f35b346101d45760003660031901126101d45760206040517f5e77d606cde660de6e89a084f347c557c5f3d8a234bff3f838a0a5f794279cce8152f35b346101d45760003660031901126101d45760206040517fa49807205ce4d355092ef5a8a18f56e8913cf4a201fbe287825b095693c217758152f35b346101d45760203660031901126101d4576101d0611602612324565b61160a612666565b5060018060a01b0380911660005260006020526004604060002060ff604051936116338561222f565b61163c83612491565b855261164a60018401612491565b602086015260028301549081166040860152818160a01c161515606086015260a81c1615156080840152600381015460a0840152015460c08201526040519182916020835260208301906123a4565b346101d45760203660031901126101d4576116b2612324565b6116ba6128a8565b6001600160a01b03811615610e9e5761062c90612937565b346101d45760203660031901126101d4576001600160a01b036116f3612324565b166000526000602052602060026040600020015460ff8160a01c169081611720575b506040519015158152f35b60ff915060a81c1682611715565b346101d45760003660031901126101d4576020600154604051908152f35b346101d45760603660031901126101d457611765612324565b6024356001600160401b0381116101d457611784903690600401612377565b91906044356001600160401b0381116101d4576117a5903690600401612377565b936117ae6128a8565b6117b6612c17565b6001600160a01b03841615610e9e576001600160a01b0384163314611bf0578015610a68578415610a56576001600160a01b0384811660009081526020819052604090206002015416610a44576040518583823760028187019081528190036020019020546001600160a01b0316610a3257604051946118358661222f565b6118403683866122d7565b865261184d3682856122d7565b602087015260018060a01b038516604087015260016060870152600160808701524260a0870152600060c087015260018060a01b038516600052600060205260406000209580518051906001600160401b03821161095b5781906118b18a54612457565b601f8111611ba0575b50602090601f8311600114611b3457600092611b29575b50508160011b916000199060031b1c19161787555b60208101519687516001600160401b03811161095b576119096001830154612457565b601f8111611ae2575b506020601f8211600114611a5c579080611a0295949392600080516020612cfa833981519152999a9b600092611a51575b50508160011b916000199060031b1c19161760018201555b6040820151600282018054606085015160ff60a01b90151560a01b166001600160a01b039093166001600160a81b0319909116179190911781556001600160a01b03199260049160c091906119af9061080a565b60a0810151600385015501519101556119c7886125de565b60405182868237600281840190815260209082900301902080546001600160a01b038a1692168217905560405190969094859490918561263c565b0390a26040514281526001600160a01b03909116907f013ffc5a24499d3fac16e33ee31c03109fba932a861e5f27e98ac18ce405c14b90602090a26001600080516020612d3a83398151915255005b015190508b80611943565b6001830160005260206000209960005b601f1984168110611aca575091600080516020612cfa83398151915298999a600192611a029796959483601f19811610611ab1575b505050811b01600182015561195b565b015160001960f88460031b161c191690558b8080611aa1565b828201518c556001909b019a60209283019201611a6c565b600183016000526020600020601f830160051c810160208410611b22575b601f830160051c82018110611b16575050611912565b60008155600101611b00565b5080611b00565b0151905089806118d1565b9250896000526020600020906000935b601f1984168510611b85576001945083601f19811610611b6c575b505050811b0187556118e6565b015160001960f88460031b161c19169055898080611b5f565b81810151835560209485019460019093019290910190611b44565b909150896000526020600020601f840160051c810160208510611be9575b90849392915b601f830160051c82018110611bda5750506118ba565b60008155859450600101611bc4565b5080611bbe565b6040516354f7686560e11b8152600490fd5b346101d45760003660031901126101d4577f00000000000000000000000000000000000000000000000000000000000000006001600160a01b03163003611c6d5760206040517f360894a13ba1a3210667c828492db98dca3e2076cc3735a920a3ca505d382bbc8152f35b60405163703e46dd60e11b8152600490fd5b60403660031901126101d457611c93612324565b6024356001600160401b0381116101d457366023820112156101d457611cc39036906024816004013591016122d7565b906001600160a01b037f00000000000000000000000000000000000000000000000000000000000000008116308114908115611e7f575b50611c6d57611d076128a8565b6040516352d1902d60e01b8152908216916020918281600481875afa60009181611e50575b50611d4a57604051634c9c8ce360e01b815260048101859052602490fd5b9284937f360894a13ba1a3210667c828492db98dca3e2076cc3735a920a3ca505d382bbc90818103611e385750823b15611e1f5780546001600160a01b03191682179055604051907fbc7cd75a20ee27fd9adebab32041f755214dbc6bffa90cc0225b39da2e5c2d3b600080a2835115611e055750600080848461062c96519101845af4903d15611dfc573d611ddf816122bc565b90611ded604051928361229b565b8152600081943d92013e612c76565b60609250612c76565b9250505034611e1057005b63b398979f60e01b8152600490fd5b604051634c9c8ce360e01b815260048101839052602490fd5b60249060405190632a87526960e21b82526004820152fd5b9091508381813d8311611e78575b611e68818361229b565b810103126101d457519086611d2c565b503d611e5e565b9050817f360894a13ba1a3210667c828492db98dca3e2076cc3735a920a3ca505d382bbc5416141584611cfa565b346101d45760203660031901126101d4576004356001600160401b0381116101d457611edf6020913690600401612377565b80604051928337600290820190815281900382019020546040516001600160a01b039091168152f35b346101d45760003660031901126101d457604051806001916001549283825260208092019360016000527fb10e2d527612073b26eecdfd717e6a320cf44b4afac2b0732d9fcbe2b7fa0cf6926000905b828210611f83576101d086611f6f818a038261229b565b60405191829160208352602083019061233a565b84546001600160a01b03168752958601959383019390830190611f58565b346101d45760403660031901126101d457611fba61230e565b336001600160a01b03821603611fd65761062c90600435612b94565b60405163334bd91960e11b8152600490fd5b346101d45760203660031901126101d457612001612324565b6120096128a8565b60018060a01b038091169081600052600060205260406000209060028201908154908116156104335760ff8160a01c166120815761010160a01b9061ffff60a01b19161790556003429101557f013ffc5a24499d3fac16e33ee31c03109fba932a861e5f27e98ac18ce405c14b6020604051428152a2005b60405163bcebcf0760e01b8152600490fd5b346101d45760403660031901126101d45761062c6004356120b261230e565b9080600052600080516020612d1a8339815191526020526120da600160406000200154612904565b612b1f565b346101d45760203660031901126101d457600435600052600080516020612d1a8339815191526020526020600160406000200154604051908152f35b346101d45760203660031901126101d4576004356001600160401b0381116101d457366023820112156101d45761215e60209136906024816004013591016122d7565b8161217260405192838151938492016121e7565b600290820190815281900382019020546040516001600160a01b039091168152f35b346101d45760203660031901126101d4576004359063ffffffff60e01b82168092036101d457602091637965db0b60e01b81149081156121d6575b5015158152f35b6301ffc9a760e01b149050836121cf565b60005b8381106121fa5750506000910152565b81810151838201526020016121ea565b90602091612223815180928185528580860191016121e7565b601f01601f1916010190565b60e081019081106001600160401b0382111761095b57604052565b608081019081106001600160401b0382111761095b57604052565b604081019081106001600160401b0382111761095b57604052565b602081019081106001600160401b0382111761095b57604052565b90601f801991011681019081106001600160401b0382111761095b57604052565b6001600160401b03811161095b57601f01601f191660200190565b9291926122e3826122bc565b916122f1604051938461229b565b8294818452818301116101d4578281602093846000960137010152565b602435906001600160a01b03821682036101d457565b600435906001600160a01b03821682036101d457565b90815180825260208080930193019160005b82811061235a575050505090565b83516001600160a01b03168552938101939281019260010161234c565b9181601f840112156101d4578235916001600160401b0383116101d457602083818601950101116101d457565b9060c0806123d06123be855160e0865260e086019061220a565b6020860151858203602087015261220a565b9360018060a01b03604082015116604085015260608101511515606085015260808101511515608085015260a081015160a0850152015191015290565b60406003198201126101d4576001600160401b03916004358381116101d4578261243991600401612377565b939093926024359182116101d45761245391600401612377565b9091565b90600182811c92168015612487575b602083101461247157565b634e487b7160e01b600052602260045260246000fd5b91607f1691612466565b906040519182600082546124a481612457565b9081845260209460019160018116908160001461251457506001146124d5575b5050506124d39250038361229b565b565b600090815285812095935091905b8183106124fc5750506124d393508201013880806124c4565b855488840185015294850194879450918301916124e3565b925050506124d394925060ff191682840152151560051b8201013880806124c4565b60015481101561256d5760016000527fb10e2d527612073b26eecdfd717e6a320cf44b4afac2b0732d9fcbe2b7fa0cf60190600090565b634e487b7160e01b600052603260045260246000fd5b60035481101561256d57600360005260021b7fc2575a0e9e593c00f959f8c92f12db2869c3395a3b0502d05e2516446f71f85b0190600090565b604051906125ca82612265565b60058252640312e302e360dc1b6020830152565b600154600160401b81101561095b578060016125fd9201600155612536565b60018060a09493941b038084549260031b9316831b921b1916179055565b908060209392818452848401376000828201840152601f01601f1916010190565b929061265590612663959360408652604086019161261b565b92602081850391015261261b565b90565b604051906126738261222f565b600060c08360608152606060208201528260408201528260608201528260808201528260a08201520152565b6001600160401b03811161095b5760051b60200190565b919082018092116126c357565b634e487b7160e01b600052601160045260246000fd5b805182101561256d5760209160051b010190565b91600191600154928385101561286f578361270883876126b6565b1161285d575b6127178261269f565b91604095612728604051948561229b565b8184526127348261269f565b96602091601f1980990136602088013761274d8461269f565b9861275b6040519a8b61229b565b848a526127678561269f565b018360005b8281106128465750505060005b84811061278b57505050505050929190565b8060046127a161279c8994866126b6565b612536565b9054600392916001600160a01b039190841b1c8116806127c1868e6126d9565b526000526000885286600020908751936127da8561222f565b6127e383612491565b85526127f0878401612491565b8a86015260028301549182168986015260ff60a0928181851c161515606088015260a81c161515608086015282015490840152015460c0820152612834828d6126d9565b5261283f818c6126d9565b5001612779565b8b8282612851612666565b9201015201849061276c565b90508383038381116126c3579061270e565b5050604051925061287f83612280565b600083526040519261289084612280565b60008452929190565b60001981146126c35760010190565b3360009081527fb16e88c42fd4e48df2dd6a2eabd6bc9aec654ec170056b470819f8892cc6431c60205260409020547fa49807205ce4d355092ef5a8a18f56e8913cf4a201fbe287825b095693c217759060ff16156102725750565b80600052600080516020612d1a83398151915260205260406000203360005260205260ff60406000205416156102725750565b6001600160a01b031660008181527f25bd5b05d04f0db909d6350656d04903d8638654547f44d5956314846d645bce60205260408120549091907f5e77d606cde660de6e89a084f347c557c5f3d8a234bff3f838a0a5f794279cce90600080516020612d1a8339815191529060ff166129e1578184526020526040832082845260205260408320600160ff19825416179055600080516020612cda833981519152339380a4600190565b50505090565b6001600160a01b031660008181527fb7db2dd08fcb62d0c9e08c51941cae53c267786a0b75803fb7960902fc8ef97d6020526040812054909190600080516020612d1a8339815191529060ff16612a70578280526020526040822081835260205260408220600160ff198254161790553391600080516020612cda8339815191528180a4600190565b505090565b6001600160a01b031660008181527fb16e88c42fd4e48df2dd6a2eabd6bc9aec654ec170056b470819f8892cc6431c60205260408120549091907fa49807205ce4d355092ef5a8a18f56e8913cf4a201fbe287825b095693c2177590600080516020612d1a8339815191529060ff166129e1578184526020526040832082845260205260408320600160ff19825416179055600080516020612cda833981519152339380a4600190565b90600091808352600080516020612d1a83398151915280602052604084209260018060a01b03169283855260205260ff604085205416156000146129e1578184526020526040832082845260205260408320600160ff19825416179055600080516020612cda833981519152339380a4600190565b90600091808352600080516020612d1a83398151915280602052604084209260018060a01b03169283855260205260ff6040852054166000146129e157818452602052604083208284526020526040832060ff1981541690557ff6391f5c32d9c69d2a47ea670b442974b53935d1edc7fd64eb21e047a839171b339380a4600190565b600080516020612d3a8339815191526002815414612c355760029055565b604051633ee5aeb560e01b8152600490fd5b60ff600080516020612d5a8339815191525460401c1615612c6457565b604051631afcd79f60e31b8152600490fd5b90612c9d5750805115612c8b57602081519101fd5b60405163d6bda27560e01b8152600490fd5b81511580612cd0575b612cae575090565b604051639996b31560e01b81526001600160a01b039091166004820152602490fd5b50803b15612ca656fe2f8788117e7eff1d82e926ec794901d17c78024a50270940304540a733656f0d13f197a82f4966f6c2d4b97843814bb153ef687b07710d419534f227976645ca02dd7bc7dec4dceedda775e58dd541e08a116c6c53815c0bd028192f7b6268009b779b17422d0df92223018b32b4d1fa46e071723d6817e2486d003becc55f00f0c57e16840df040f15088dc2f81fe391c3923bec73e23a9662efc9c229c6a00a26469706673582212203f427c2a48adc194c3c1ed64d2a8b86bce1da4437776778874b75bce7acce2c764736f6c63430008180033",
  "linkReferences": {},
  "deployedLinkReferences": {}
}