{
  "_format": "hh-sol-artifact-1",
  "contractName": "ZKAuthRegistry",
  "sourceName": "contracts/ZKAuthRegistry.sol",
  "abi": [
    {
      "inputs": [],
      "stateMutability": "nonpayable",
      "type": "constructor"
    },
    {
      "inputs": [],
      "name": "AccessControlBadConfirmation",
      "type": "error"
    },
    {
      "inputs": [
        {
          "internalType": "address",
          "name": "account",
          "type": "address"
        },
        {
          "internalType": "bytes32",
          "name": "neededRole",
          "type": "bytes32"
        }
      ],
      "name": "AccessControlUnauthorizedAccount",
      "type": "error"
    },
    {
      "inputs": [
        {
          "internalType": "address",
          "name": "target",
          "type": "address"
        }
      ],
      "name": "AddressEmptyCode",
      "type": "error"
    },
    {
      "inputs": [],
      "name": "CommitmentAlreadyExists",
      "type": "error"
    },
    {
      "inputs": [],
      "name": "CommitmentNotFound",
      "type": "error"
    },
    {
      "inputs": [
        {
          "internalType": "address",
          "name": "implementation",
          "type": "address"
        }
      ],
      "name": "ERC1967InvalidImplementation",
      "type": "error"
    },
    {
      "inputs": [],
      "name": "ERC1967NonPayable",
      "type": "error"
    },
    {
      "inputs": [],
      "name": "FailedCall",
      "type": "error"
    },
    {
      "inputs": [],
      "name": "InvalidAddress",
      "type": "error"
    },
    {
      "inputs": [],
      "name": "InvalidInitialization",
      "type": "error"
    },
    {
      "inputs": [],
      "name": "InvalidProof",
      "type": "error"
    },
    {
      "inputs": [],
      "name": "InvalidRole",
      "type": "error"
    },
    {
      "inputs": [],
      "name": "NotInitializing",
      "type": "error"
    },
    {
      "inputs": [],
      "name": "SessionExpired",
      "type": "error"
    },
    {
      "inputs": [],
      "name": "SessionNotFound",
      "type": "error"
    },
    {
      "inputs": [],
      "name": "UUPSUnauthorizedCallContext",
      "type": "error"
    },
    {
      "inputs": [
        {
          "internalType": "bytes32",
          "name": "slot",
          "type": "bytes32"
        }
      ],
      "name": "UUPSUnsupportedProxiableUUID",
      "type": "error"
    },
    {
      "inputs": [],
      "name": "UnauthorizedRole",
      "type": "error"
    },
    {
      "anonymous": false,
      "inputs": [
        {
          "indexed": true,
          "internalType": "bytes32",
          "name": "commitment",
          "type": "bytes32"
        },
        {
          "indexed": false,
          "internalType": "enum ZKAuthRegistry.UserRole",
          "name": "role",
          "type": "uint8"
        },
        {
          "indexed": false,
          "internalType": "uint256",
          "name": "timestamp",
          "type": "uint256"
        }
      ],
      "name": "CommitmentRegistered",
      "type": "event"
    },
    {
      "anonymous": false,
      "inputs": [
        {
          "indexed": false,
          "internalType": "uint64",
          "name": "version",
          "type": "uint64"
        }
      ],
      "name": "Initialized",
      "type": "event"
    },
    {
      "anonymous": false,
      "inputs": [
        {
          "indexed": true,
          "internalType": "bytes32",
          "name": "role",
          "type": "bytes32"
        },
        {
          "indexed": true,
          "internalType": "bytes32",
          "name": "previousAdminRole",
          "type": "bytes32"
        },
        {
          "indexed": true,
          "internalType": "bytes32",
          "name": "newAdminRole",
          "type": "bytes32"
        }
      ],
      "name": "RoleAdminChanged",
      "type": "event"
    },
    {
      "anonymous": false,
      "inputs": [
        {
          "indexed": true,
          "internalType": "bytes32",
          "name": "role",
          "type": "bytes32"
        },
        {
          "indexed": true,
          "internalType": "address",
          "name": "account",
          "type": "address"
        },
        {
          "indexed": true,
          "internalType": "address",
          "name": "sender",
          "type": "address"
        }
      ],
      "name": "RoleGranted",
      "type": "event"
    },
    {
      "anonymous": false,
      "inputs": [
        {
          "indexed": true,
          "internalType": "bytes32",
          "name": "role",
          "type": "bytes32"
        },
        {
          "indexed": true,
          "internalType": "address",
          "name": "account",
          "type": "address"
        },
        {
          "indexed": true,
          "internalType": "address",
          "name": "sender",
          "type": "address"
        }
      ],
      "name": "RoleRevoked",
      "type": "event"
    },
    {
      "anonymous": false,
      "inputs": [
        {
          "indexed": true,
          "internalType": "bytes32",
          "name": "sessionId",
          "type": "bytes32"
        }
      ],
      "name": "SessionEnded",
      "type": "event"
    },
    {
      "anonymous": false,
      "inputs": [
        {
          "indexed": true,
          "internalType": "bytes32",
          "name": "sessionId",
          "type": "bytes32"
        },
        {
          "indexed": true,
          "internalType": "bytes32",
          "name": "commitment",
          "type": "bytes32"
        },
        {
          "indexed": false,
          "internalType": "uint256",
          "name": "expiry",
          "type": "uint256"
        }
      ],
      "name": "SessionStarted",
      "type": "event"
    },
    {
      "anonymous": false,
      "inputs": [
        {
          "indexed": true,
          "internalType": "address",
          "name": "implementation",
          "type": "address"
        }
      ],
      "name": "Upgraded",
      "type": "event"
    },
    {
      "anonymous": false,
      "inputs": [
        {
          "indexed": true,
          "internalType": "address",
          "name": "oldVerifier",
          "type": "address"
        },
        {
          "indexed": true,
          "internalType": "address",
          "name": "newVerifier",
          "type": "address"
        }
      ],
      "name": "VerifierUpdated",
      "type": "event"
    },
    {
      "inputs": [],
      "name": "ADMIN_ROLE",
      "outputs": [
        {
          "internalType": "bytes32",
          "name": "",
          "type": "bytes32"
        }
      ],
      "stateMutability": "view",
      "type": "function"
    },
    {
      "inputs": [],
      "name": "DEFAULT_ADMIN_ROLE",
      "outputs": [
        {
          "internalType": "bytes32",
          "name": "",
          "type": "bytes32"
        }
      ],
      "stateMutability": "view",
      "type": "function"
    },
    {
      "inputs": [],
      "name": "SESSION_DURATION",
      "outputs": [
        {
          "internalType": "uint256",
          "name": "",
          "type": "uint256"
        }
      ],
      "stateMutability": "view",
      "type": "function"
    },
    {
      "inputs": [],
      "name": "UPGRADE_INTERFACE_VERSION",
      "outputs": [
        {
          "internalType": "string",
          "name": "",
          "type": "string"
        }
      ],
      "stateMutability": "view",
      "type": "function"
    },
    {
      "inputs": [],
      "name": "VERSION",
      "outputs": [
        {
          "internalType": "string",
          "name": "",
          "type": "string"
        }
      ],
      "stateMutability": "view",
      "type": "function"
    },
    {
      "inputs": [],
      "name": "authVerifier",
      "outputs": [
        {
          "internalType": "contract IAuthVerifier",
          "name": "",
          "type": "address"
        }
      ],
      "stateMutability": "view",
      "type": "function"
    },
    {
      "inputs": [
        {
          "internalType": "bytes32",
          "name": "",
          "type": "bytes32"
        }
      ],
      "name": "commitments",
      "outputs": [
        {
          "internalType": "bool",
          "name": "",
          "type": "bool"
        }
      ],
      "stateMutability": "view",
      "type": "function"
    },
    {
      "inputs": [
        {
          "internalType": "bytes32",
          "name": "sessionId",
          "type": "bytes32"
        }
      ],
      "name": "endSession",
      "outputs": [],
      "stateMutability": "nonpayable",
      "type": "function"
    },
    {
      "inputs": [
        {
          "internalType": "bytes32",
          "name": "commitment",
          "type": "bytes32"
        }
      ],
      "name": "getRole",
      "outputs": [
        {
          "internalType": "enum ZKAuthRegistry.UserRole",
          "name": "",
          "type": "uint8"
        }
      ],
      "stateMutability": "view",
      "type": "function"
    },
    {
      "inputs": [
        {
          "internalType": "bytes32",
          "name": "role",
          "type": "bytes32"
        }
      ],
      "name": "getRoleAdmin",
      "outputs": [
        {
          "internalType": "bytes32",
          "name": "",
          "type": "bytes32"
        }
      ],
      "stateMutability": "view",
      "type": "function"
    },
    {
      "inputs": [
        {
          "internalType": "bytes32",
          "name": "sessionId",
          "type": "bytes32"
        }
      ],
      "name": "getSession",
      "outputs": [
        {
          "components": [
            {
              "internalType": "bytes32",
              "name": "commitment",
              "type": "bytes32"
            },
            {
              "internalType": "uint256",
              "name": "expiry",
              "type": "uint256"
            },
            {
              "internalType": "bool",
              "name": "active",
              "type": "bool"
            }
          ],
          "internalType": "struct ZKAuthRegistry.Session",
          "name": "",
          "type": "tuple"
        }
      ],
      "stateMutability": "view",
      "type": "function"
    },
    {
      "inputs": [
        {
          "internalType": "bytes32",
          "name": "role",
          "type": "bytes32"
        },
        {
          "internalType": "address",
          "name": "account",
          "type": "address"
        }
      ],
      "name": "grantRole",
      "outputs": [],
      "stateMutability": "nonpayable",
      "type": "function"
    },
    {
      "inputs": [
        {
          "internalType": "bytes32",
          "name": "role",
          "type": "bytes32"
        },
        {
          "internalType": "address",
          "name": "account",
          "type": "address"
        }
      ],
      "name": "hasRole",
      "outputs": [
        {
          "internalType": "bool",
          "name": "",
          "type": "bool"
        }
      ],
      "stateMutability": "view",
      "type": "function"
    },
    {
      "inputs": [
        {
          "internalType": "address",
          "name": "admin",
          "type": "address"
        },
        {
          "internalType": "address",
          "name": "_authVerifier",
          "type": "address"
        }
      ],
      "name": "initialize",
      "outputs": [],
      "stateMutability": "nonpayable",
      "type": "function"
    },
    {
      "inputs": [
        {
          "internalType": "bytes32",
          "name": "commitment",
          "type": "bytes32"
        }
      ],
      "name": "isRegistered",
      "outputs": [
        {
          "internalType": "bool",
          "name": "",
          "type": "bool"
        }
      ],
      "stateMutability": "view",
      "type": "function"
    },
    {
      "inputs": [],
      "name": "proxiableUUID",
      "outputs": [
        {
          "internalType": "bytes32",
          "name": "",
          "type": "bytes32"
        }
      ],
      "stateMutability": "view",
      "type": "function"
    },
    {
      "inputs": [
        {
          "internalType": "bytes32",
          "name": "commitment",
          "type": "bytes32"
        },
        {
          "internalType": "enum ZKAuthRegistry.UserRole",
          "name": "role",
          "type": "uint8"
        },
        {
          "internalType": "bytes",
          "name": "proof",
          "type": "bytes"
        }
      ],
      "name": "registerCommitment",
      "outputs": [],
      "stateMutability": "nonpayable",
      "type": "function"
    },
    {
      "inputs": [
        {
          "internalType": "bytes32",
          "name": "",
          "type": "bytes32"
        }
      ],
      "name": "registrationTime",
      "outputs": [
        {
          "internalType": "uint256",
          "name": "",
          "type": "uint256"
        }
      ],
      "stateMutability": "view",
      "type": "function"
    },
    {
      "inputs": [
        {
          "internalType": "bytes32",
          "name": "role",
          "type": "bytes32"
        },
        {
          "internalType": "address",
          "name": "callerConfirmation",
          "type": "address"
        }
      ],
      "name": "renounceRole",
      "outputs": [],
      "stateMutability": "nonpayable",
      "type": "function"
    },
    {
      "inputs": [
        {
          "internalType": "bytes32",
          "name": "role",
          "type": "bytes32"
        },
        {
          "internalType": "address",
          "name": "account",
          "type": "address"
        }
      ],
      "name": "revokeRole",
      "outputs": [],
      "stateMutability": "nonpayable",
      "type": "function"
    },
    {
      "inputs": [
        {
          "internalType": "bytes32",
          "name": "",
          "type": "bytes32"
        }
      ],
      "name": "roles",
      "outputs": [
        {
          "internalType": "enum ZKAuthRegistry.UserRole",
          "name": "",
          "type": "uint8"
        }
      ],
      "stateMutability": "view",
      "type": "function"
    },
    {
      "inputs": [
        {
          "internalType": "bytes32",
          "name": "",
          "type": "bytes32"
        }
      ],
      "name": "sessions",
      "outputs": [
        {
          "internalType": "bytes32",
          "name": "commitment",
          "type": "bytes32"
        },
        {
          "internalType": "uint256",
          "name": "expiry",
          "type": "uint256"
        },
        {
          "internalType": "bool",
          "name": "active",
          "type": "bool"
        }
      ],
      "stateMutability": "view",
      "type": "function"
    },
    {
      "inputs": [
        {
          "internalType": "address",
          "name": "newVerifier",
          "type": "address"
        }
      ],
      "name": "setVerifier",
      "outputs": [],
      "stateMutability": "nonpayable",
      "type": "function"
    },
    {
      "inputs": [
        {
          "internalType": "bytes32",
          "name": "commitment",
          "type": "bytes32"
        },
        {
          "internalType": "bytes",
          "name": "proof",
          "type": "bytes"
        }
      ],
      "name": "startSession",
      "outputs": [
        {
          "internalType": "bytes32",
          "name": "sessionId",
          "type": "bytes32"
        }
      ],
      "stateMutability": "nonpayable",
      "type": "function"
    },
    {
      "inputs": [
        {
          "internalType": "bytes4",
          "name": "interfaceId",
          "type": "bytes4"
        }
      ],
      "name": "supportsInterface",
      "outputs": [
        {
          "internalType": "bool",
          "name": "",
          "type": "bool"
        }
      ],
      "stateMutability": "view",
      "type": "function"
    },
    {
      "inputs": [
        {
          "internalType": "address",
          "name": "newImplementation",
          "type": "address"
        },
        {
          "internalType": "bytes",
          "name": "data",
          "type": "bytes"
        }
      ],
      "name": "upgradeToAndCall",
      "outputs": [],
      "stateMutability": "payable",
      "type": "function"
    },
    {
      "inputs": [
        {
          "internalType": "bytes32",
          "name": "sessionId",
          "type": "bytes32"
        }
      ],
      "name": "validateSession",
      "outputs": [
        {
          "internalType": "bool",
          "name": "isValid",
          "type": "bool"
        },
        {
          "internalType": "enum ZKAuthRegistry.UserRole",
          "name": "role",
          "type": "uint8"
        },
        {
          "internalType": "bytes32",
          "name": "commitment",
          "type": "bytes32"
        }
      ],
      "stateMutability": "view",
      "type": "function"
    }
  ],
  "bytecode": "0x60a080604052346100cc57306080527ff0c57e16840df040f15088dc2f81fe391c3923bec73e23a9662efc9c229c6a009081549060ff8260401c166100bd57506001600160401b036002600160401b031982821601610078575b60405161152490816100d2823960805181818161071001526107f00152f35b6001600160401b031990911681179091556040519081527fc7f505b2f371ae2175ee4913f4499e1f2633a7b5936321eed1cdaeb6115181d290602090a1388080610059565b63f92ee8a960e01b8152600490fd5b600080fdfe608060408181526004918236101561001657600080fd5b600092833560e01c91826301ffc9a714610e7e575081630bbab53114610caa578163248a9ca314610c7257816327258b221461058f5781632f2ff15d14610c4857816336568abe14610c0257816339b240bd14610b875781633deaa34114610b69578163485cc955146109d75781634f1ef2861461077457816352d1902d146106fb5781635437988d1461067d578163551ef55d1461063c5781636e8eb7bc1461050957816375b238fc146106015781637dbd2832146105bc578163839df9451461058f57816391d148541461053b57816395356651146105095781639ce3efe61461049c578163a217fddf14610481578163ad3cb1cc14610444578163b42ff6ca14610231578163c408733514610209578163cf947c88146101e2578163d547741f14610191575063ffa1ad741461014e57600080fd5b3461018d578160031936011261018d5780516101899161016d82610f62565b60058252640312e302e360dc1b60208301525191829182610fdf565b0390f35b5080fd5b919050346101de57806003193601126101de576101da91356101d560016101b6610f04565b938387526000805160206114cf8339815191526020528620015461118b565b6113a7565b5080f35b8280fd5b9050346101de5760203660031901126101de57602092818392358252845220549051908152f35b50503461018d578160031936011261018d57905490516001600160a01b039091168152602090f35b919050346101de57806003193601126101de5781356024359267ffffffffffffffff93848111610440576102689036908301610ed1565b83879297526020966001885260ff868420541615610430576102ce91889187519161029283610f62565b60018352833681850137876102a684611028565b528560018060a01b03815416928a5196879586948593633a94343960e21b85528c8501611063565b03925af19081156104265782916103f9575b50156103ea576000194301944386116103d7578451958787019085825242878901523360601b60608901524060748801526074875260a0870191878310908311176103c4578186528651902095620151804201938442116103b15750927fe12dcdc8180bbeb523b0b350351879d7e26caf15dbd1e7198c3997cd96b1cee792600283899661036e8c96610f30565b8882528960e060c0830192878452019460018652898152600388522091518255516001820155019051151560ff801983541691161790558551908152a351908152f35b634e487b7160e01b845260119052602483fd5b634e487b7160e01b835260418452602483fd5b506011602492634e487b7160e01b835252fd5b5082516309bde33960e01b8152fd5b6104199150873d891161041f575b6104118183610f7e565b81019061104b565b386102e0565b503d610407565b85513d84823e3d90fd5b8551635b34156960e11b81528490fd5b8580fd5b50503461018d578160031936011261018d5780516101899161046582610f62565b60058252640352e302e360dc1b60208301525191829182610fdf565b50503461018d578160031936011261018d5751908152602090f35b9050346101de5760203660031901126101de5780359182845260036020526002818520019182549160ff8316156104fc57505060ff191690557f6a6b81d728114bb7b95b5503b42f70f985fc24a1e37339f84cc7f4b5c1010eef8280a280f35b516396c95f8160e01b8152fd5b9050346101de5760203660031901126101de5760ff82602094610539933581526002865220541691518092610fbc565bf35b9050346101de57816003193601126101de578160209360ff9261055c610f04565b903582526000805160206114cf83398151915286528282206001600160a01b039091168252855220549151911615158152f35b9050346101de5760203660031901126101de578160209360ff923581526001855220541690519015158152f35b9050346101de5760203660031901126101de5760609282913581526003602052209081549160ff60026001830154920154169082519384526020840152151590820152f35b50503461018d578160031936011261018d57602090517fa49807205ce4d355092ef5a8a18f56e8913cf4a201fbe287825b095693c217758152f35b9050823461067a57602036600319011261067a5760606106758461066085356110ca565b92919390825194151585526020850190610fbc565b820152f35b80fd5b9050346101de5760203660031901126101de57610698610f1a565b906106a1611111565b6001600160a01b039182169283156106ee57505082546001600160a01b0319811683178455167f0243549a92b2412f7a3caf7a2e56d65b8821b91345363faa5f57195384065fcc8380a380f35b5163e6c4247b60e01b8152fd5b82843461067a578060031936011261067a57507f00000000000000000000000000000000000000000000000000000000000000006001600160a01b0316300361076757602090517f360894a13ba1a3210667c828492db98dca3e2076cc3735a920a3ca505d382bbc8152f35b5163703e46dd60e11b8152fd5b918091506003193601126101de5761078a610f1a565b90602493843567ffffffffffffffff811161018d573660238201121561018d57808501356107b781610fa0565b946107c485519687610f7e565b81865260209182870193368a8383010111610440578186928b8693018737880101526001600160a01b037f000000000000000000000000000000000000000000000000000000000000000081163081149081156109a9575b5061099957610829611111565b81169585516352d1902d60e01b815283818a818b5afa869181610966575b50610863575050505050505191634c9c8ce360e01b8352820152fd5b9088888894938c7f360894a13ba1a3210667c828492db98dca3e2076cc3735a920a3ca505d382bbc918281036109515750853b1561093d575080546001600160a01b031916821790558451889392917fbc7cd75a20ee27fd9adebab32041f755214dbc6bffa90cc0225b39da2e5c2d3b8580a282511561091f5750506101da9582915190845af4913d15610915573d6109076108fe82610fa0565b92519283610f7e565b81528581943d92013e61146b565b506060925061146b565b95509550505050503461093157505080f35b63b398979f60e01b8152fd5b8651634c9c8ce360e01b8152808501849052fd5b8751632a87526960e21b815280860191909152fd5b9091508481813d8311610992575b61097e8183610f7e565b8101031261098e57519038610847565b8680fd5b503d610974565b855163703e46dd60e11b81528890fd5b9050817f360894a13ba1a3210667c828492db98dca3e2076cc3735a920a3ca505d382bbc541614153861081c565b9050346101de57816003193601126101de576109f1610f1a565b906109fa610f04565b907ff0c57e16840df040f15088dc2f81fe391c3923bec73e23a9662efc9c229c6a009283549260ff84871c16159367ffffffffffffffff811680159081610b61575b6001149081610b57575b159081610b4e575b50610b3e5767ffffffffffffffff198116600117865584610b1f575b506001600160a01b039082821615610b0f5716918215610b015750610aa890610a9161142a565b610a9961142a565b610aa2816111be565b5061125e565b5084546001600160a01b031916178455610ac0578280f35b805468ff00000000000000001916905551600181527fc7f505b2f371ae2175ee4913f4499e1f2633a7b5936321eed1cdaeb6115181d290602090a138808280f35b855163e6c4247b60e01b8152fd5b865163e6c4247b60e01b81528490fd5b68ffffffffffffffffff19166801000000000000000117855538610a6a565b865163f92ee8a960e01b81528490fd5b90501538610a4e565b303b159150610a46565b869150610a3c565b50503461018d578160031936011261018d5760209051620151808152f35b9050346101de5760203660031901126101de57828291606094838051610bac81610f30565b8281528260208201520152358152600360205220908051610bcc81610f30565b8254928382528260ff60026001840154936020860194855201541692019115158252825193845251602084015251151590820152f35b83833461018d578060031936011261018d57610c1c610f04565b90336001600160a01b03831603610c3957506101da9192356113a7565b5163334bd91960e11b81528390fd5b919050346101de57806003193601126101de576101da9135610c6d60016101b6610f04565b611320565b9050346101de5760203660031901126101de57816020936001923581526000805160206114cf83398151915285522001549051908152f35b83833461018d57606036600319011261018d578235906024356003811015610e7a5760443567ffffffffffffffff8111610e7657610ceb9036908701610ed1565b8486526020916001835260ff8588205416610e66578315610e56578691600185141580610e48575b610e38578390865192610d2584610f62565b6001845282368186013788610d3985611028565b5260018060a01b038a5416908a8c610d648b5197889687958694633a94343960e21b86528501611063565b03925af1908115610e2e578791610e11575b5015610e01578486526001825283862060ff19906001828254161790556002835284872091610dee57907f973e05439f31a779688e30965d84e1e474d3c673c1f6916a585803abd0abe7669596979181541660ff851617905585875281524283872055610de583518093610fbc565b4290820152a280f35b634e487b7160e01b875260218852602487fd5b83516309bde33960e01b81528790fd5b610e289150833d851161041f576104118183610f7e565b88610d76565b85513d89823e3d90fd5b8551636caa20b560e11b81528990fd5b508792506002851415610d13565b8451636caa20b560e11b81528890fd5b845163145718a760e01b81528890fd5b8480fd5b8380fd5b8491346101de5760203660031901126101de573563ffffffff60e01b81168091036101de5760209250637965db0b60e01b8114908115610ec0575b5015158152f35b6301ffc9a760e01b14905083610eb9565b9181601f84011215610eff5782359167ffffffffffffffff8311610eff5760208381860195010111610eff57565b600080fd5b602435906001600160a01b0382168203610eff57565b600435906001600160a01b0382168203610eff57565b6060810190811067ffffffffffffffff821117610f4c57604052565b634e487b7160e01b600052604160045260246000fd5b6040810190811067ffffffffffffffff821117610f4c57604052565b90601f8019910116810190811067ffffffffffffffff821117610f4c57604052565b67ffffffffffffffff8111610f4c57601f01601f191660200190565b906003821015610fc95752565b634e487b7160e01b600052602160045260246000fd5b6020808252825181830181905290939260005b82811061101457505060409293506000838284010152601f8019910116010190565b818101860151848201604001528501610ff2565b8051156110355760200190565b634e487b7160e01b600052603260045260246000fd5b90816020910312610eff57518015158103610eff5790565b918091604084528160408501526060840137600060608284010152601f8019910116810160206080606083019282948360608284030191015285518094520193019160005b8281106110b6575050505090565b8351855293810193928101926001016110a8565b600090815260036020526040812060ff6002820154161561110a576001810154421161110a57604060ff9154928381526002602052205416916001929190565b5080918190565b3360009081527fb16e88c42fd4e48df2dd6a2eabd6bc9aec654ec170056b470819f8892cc6431c60205260409020547fa49807205ce4d355092ef5a8a18f56e8913cf4a201fbe287825b095693c217759060ff161561116d5750565b6044906040519063e2517d3f60e01b82523360048301526024820152fd5b806000526000805160206114cf83398151915260205260406000203360005260205260ff604060002054161561116d5750565b6001600160a01b031660008181527fb7db2dd08fcb62d0c9e08c51941cae53c267786a0b75803fb7960902fc8ef97d60205260408120549091906000805160206114cf8339815191529060ff16611259578280526020526040822081835260205260408220600160ff1982541617905533917f2f8788117e7eff1d82e926ec794901d17c78024a50270940304540a733656f0d8180a4600190565b505090565b6001600160a01b031660008181527fb16e88c42fd4e48df2dd6a2eabd6bc9aec654ec170056b470819f8892cc6431c60205260408120549091907fa49807205ce4d355092ef5a8a18f56e8913cf4a201fbe287825b095693c21775906000805160206114cf8339815191529060ff1661131a578184526020526040832082845260205260408320600160ff198254161790557f2f8788117e7eff1d82e926ec794901d17c78024a50270940304540a733656f0d339380a4600190565b50505090565b906000918083526000805160206114cf83398151915280602052604084209260018060a01b03169283855260205260ff6040852054161560001461131a578184526020526040832082845260205260408320600160ff198254161790557f2f8788117e7eff1d82e926ec794901d17c78024a50270940304540a733656f0d339380a4600190565b906000918083526000805160206114cf83398151915280602052604084209260018060a01b03169283855260205260ff60408520541660001461131a57818452602052604083208284526020526040832060ff1981541690557ff6391f5c32d9c69d2a47ea670b442974b53935d1edc7fd64eb21e047a839171b339380a4600190565b60ff7ff0c57e16840df040f15088dc2f81fe391c3923bec73e23a9662efc9c229c6a005460401c161561145957565b604051631afcd79f60e31b8152600490fd5b90611492575080511561148057602081519101fd5b60405163d6bda27560e01b8152600490fd5b815115806114c5575b6114a3575090565b604051639996b31560e01b81526001600160a01b039091166004820152602490fd5b50803b1561149b56fe02dd7bc7dec4dceedda775e58dd541e08a116c6c53815c0bd028192f7b626800a2646970667358221220c9aa8a5fdcb03bb6ecd2ce061076933ca1a3a9c9466de1f96ea6361e411dd8c664736f6c63430008180033",
  "linkReferences": {},
  "deployedLinkReferences": {}
}